S02200005333324B3134345F41637469766542616C616E6365363450696E2E7372656374
S21400000000700020510500009105000091050000D9
S2140000109105000091050000910500000000000019
S2140000200000000000000000000000009105000035
S2140000309105000000000000BD040000F55C000013
S21400004095F80000A1F80000ADF80000B9F800002F
S214000050C5F80000D1F80000DDF80000E9F800005F
S214000060F5F8000001F900000DF9000019F900008C
S21400007025F9000031F900003DF9000049F90000BB
S21400008055F900009105000091050000910500005B
S2140000909105000091050000910500009105000003
S2140000A035A8000041A8000041A000004DA00000B7
S2140000B059A0000091050000910500009105000080
S2140000C091050000910500009105000091050000D3
S2140000D091050000910500009105000091050000C3
S2140000E091050000910500009105000091050000B3
S2140000F091050000910500009105000091050000A3
S2140001009105000091050000910500009105000092
S2140001109105000091050000910500009105000082
S2140001209105000091050000910500009105000072
S2140001309105000091050000910500009105000062
S2140001409105000091050000910500009105000052
S2140001509105000091050000910500009105000042
S2140001609105000091050000910500009105000032
S21400017091050000910500006DDD000079DD0000AE
S21400018085DD000091DD00009DDD0000910500008A
S21400019091050000A9DD0000B5DD00009105000016
S2140001A0C1DD0000910500009105000091050000EA
S2140001B0CDDD0000D9DD000091050000E5DD000082
S2140001C091050000910500009105000091CF000008
S2140001D0A1CF0000B1CF0000C1CF00009105000004
S2140001E091050000D1CF0000E1CF0000F1CF000064
S2140001F001D00000910500009105000011D000001C
S21400020021D0000031D0000041D000009105000050
S2140002109105000051D0000061D0000071D00000B0
S21400022081D00000910500009105000091050000B6
S2140002309105000091050000910500009105000061
S2140002409105000091050000910500009105000051
S2140002509105000091050000910500009105000041
S2140002609105000091050000910500009105000031
S2140002709105000091050000910500009105000021
S2140002809105000091050000910500009105000011
S2140002909105000091050000910500009105000001
S2140002A091050000910500009105000091050000F1
S2140002B091050000910500009105000091050000E1
S2140002C091050000910500009105000091050000D1
S2140002D091050000910500009105000091050000C1
S2140002E091050000910500009105000091050000B1
S2140002F091050000910500009105000091050000A1
S2140003009105000091050000910500009105000090
S2140003109105000091050000910500009105000080
S2140003209105000091050000910500009105000070
S2140003309105000091050000910500009105000060
S2140003409105000091050000910500009105000050
S2140003509105000091050000910500009105000040
S2140003609105000091050000910500009105000030
S2140003709105000091050000910500009105000020
S2140003809105000091050000910500009105000010
S2140003909105000091050000910500009105000000
S2140003A091050000910500009105000091050000F0
S2140003B091050000910500009105000091050000E0
S2140003C091050000910500009105000091050000D0
S2140003D091050000910500009105000091050000C0
S2140003E091050000910500009105000091050000B0
S2140003F0910500009105000091050000FFFFFFFF3A
S214000400FFFFFFFFFFFFFFFFFFFFFFFFFE7FFFFF78
S214000410EFF3098141B1F1EE101A40F8041D20ED0A
S214000420200A3A490A6810607047B0EC200A02C8F1
S214000430E1EE101A36490A681060704772B64EF63A
S2140004402250CEF2000040F2FF01C0F2000101701F
S21400045043F25000C2F20000016881F3088841F6BA
S214000460E460C2F2000041F6D861C2F200010A78E8
S214000470027041F6B075C2F2000541F6BC71C2F2D8
S21400048000010A682A60106880F30988EFF3148078
S21400049040F0020080F31488BFF36F8FBDE8F00FC2
S2140004A00FBCBDE8005006BC62B6084719481A499A
S2140004B001607047174818490160704772B6EFF33D
S2140004C0098020E9F00F41F6B075C2F200052E68EB
S2140004D03060744605F09AFB41F6E460C2F2000014
S2140004E041F6D861C2F200010A78027041F6BC718A
S2140004F0C2F200010A682A6044F0F40E1068B0E800
S214000500F00F80F3098862B670470000B01F002025
S214000510BC1F002004ED00E00000001072B670471B
S21400052062B67047EFF3108072B6704780F310889B
S214000530704730BF704720BF7047B0FA80F07047F2
S21400054090FAA0F0B0FA80F0704790FAA0F07047EA
S21400055072B60B490A4A0A4B094C094D084E084F19
S214000560B846B946BA46BB46BC460648854606481F
S21400057080470648804762B600F03EFFFEE7000070
S2140005800000000000700020DD320100E9310100AB
S214000590FFF7FEBF81F0004102E000BF83F000439A
S2140005A030B54FEA41044FEA430594EA050F08BF09
S2140005B090EA020F1FBF54EA000C55EA020C7FEACD
S2140005C0645C7FEA655C00F0E2804FEA5454D4EB4A
S2140005D05555B8BF6D420CDD2C4480EA020281EA14
S2140005E0030382EA000083EA010180EA020281EA4C
S2140005F00303362D88BF30BD11F0004F4FEA01319E
S2140006004FF4801C4CEA113102D0404261EB4101AC
S21400061013F0004F4FEA03334CEA133302D0524232
S21400062063EB430394EA050F00F0A780A4F10104EE
S214000630D5F1200E0DDB02FA0EFC22FA05F2801828
S21400064041F1000103FA0EF2801843FA05F359410E
S2140006500EE0A5F120050EF1200E012A03FA0EFC8D
S21400066028BF4CF0020C43FA05F3C01851EBE371B7
S21400067001F0004507D54FF0000EDCF1000C7EEBD4
S21400068000006EEB0101B1F5801F1BD3B1F5001F12
S2140006900CD349085FEA30004FEA3C0C04F1010431
S2140006A04FEA445212F5800F80F09A80BCF1004F5A
S2140006B008BF5FEA500C50F1000041EB045141EADC
S2140006C0050130BD5FEA4C0C404141EB010111F4DD
S2140006D0801FA4F10104E9D191F0000F04BF014688
S2140006E00020B1FA81F308BF2033A3F10B03B3F166
S2140006F020020CDA0C3208DD02F1140CC2F10C02F6
S21400070001FA0CF021FA02F10CE002F11402D8BF53
S214000710C2F1200C01FA02F120FA0CFCDCBF41EA1F
S2140007200C019040E41AA2BF01EB0451294330BDEE
S2140007306FEA04041F3C1CDA0C340EDC04F11404CB
S214000740C4F1200220FA04F001FA02F340EA0300A2
S21400075021FA04F345EA030130BDC4F10C04C4F1E8
S214000760200220FA02F001FA04F340EA03002946C8
S21400077030BD21FA04F0294630BD94F0000F83F412
S214000780801306BF81F480110134013D4EE77FEAF5
S214000790645C18BF7FEA655C29D094EA050F08BF41
S2140007A090EA020F05D054EA000C04BF1946104622
S2140007B030BD91EA030F1EBF0021002030BD5FEA66
S2140007C0545C05D14000494128BF41F0004130BD8E
S2140007D014F580043CBF01F5801130BD01F00045E2
S2140007E045F0FE4141F470014FF0000030BD7FEA55
S2140007F0645C1ABF194610467FEA655C1CBF0B4650
S214000800024650EA013406BF52EA033591EA030F66
S21400081041F4002130BD00BF90F0000F04BF00215E
S214000820704730B54FF4806404F132044FF0000591
S2140008304FF0000150E700BF90F0000F04BF00210A
S214000840704730B54FF4806404F1320410F0004570
S21400085048BF40424FF000013EE700BF42004FEA6B
S214000860E2014FEA31014FEA02701FBF12F07F43E8
S21400087093F07F4F81F06051704792F0000F14BFE5
S21400088093F07F4F704730B54FF4607401F0004529
S21400089021F0004120E700BF50EA010208BF704780
S2140008A030B54FF000050AE050EA010208BF704775
S2140008B030B511F0004502D5404261EB41014FF4DE
S2140008C0806404F132045FEA915C3FF4DCAE4FF0E2
S2140008D003025FEADC0C18BF03325FEADC0C18BFC9
S2140008E0033202EBDC02C2F1200300FA03FC20FA1A
S2140008F002F001FA03FE40EA0E0021FA02F1144467
S214000900C1E600BF70B54FF0FF0C4CF4E06C1CEA7B
S21400091011541DBF1CEA135594EA0C0F95EA0C0FF0
S21400092000F0DEF82C4481EA030621EA4C5123EA63
S2140009304C5350EA013518BF52EA033541F4801192
S21400094043F4801338D0A0FB02CE4FF00005E1FB45
S21400095002E506F00042E0FB03E54FF00006E1FB8F
S21400096003569CF0000F18BF4EF0010EA4F1FF04D2
S214000970B6F5007F64F5407404D25FEA4E0E6D4112
S21400098046EB060642EAC62141EA55514FEAC52023
S21400099040EA5E504FEACE2EB4F1FD0C88BFBCF59F
S2140009A0E06F1ED8BEF1004F08BF5FEA500E50F150
S2140009B0000041EB045170BD06F0004646EA010116
S2140009C040EA020081EA0301B4EB5C04C2BFD4EB48
S2140009D00C0541EA045170BD41F480114FF0000E41
S2140009E0013C00F3AB8014F1360FDEBF002001F0AF
S2140009F0004170BDC4F10004203C35DA0C341BDC29
S214000A0004F11404C4F1200500FA05F320FA04F0FA
S214000A1001FA05F240EA020001F0004221F000412E
S214000A2010EBD37021FA04F642EB06015EEA430EA1
S214000A3008BF20EAD37070BDC4F10C04C4F12005D1
S214000A4000FA04F320FA05F001FA04F240EA020084
S214000A5001F0004110EBD37041F100015EEA430E55
S214000A6008BF20EAD37070BDC4F1200500FA05F275
S214000A704EEA020E20FA04F301FA05F243EA0203F4
S214000A8021FA04F001F0004121FA04F220EA020003
S214000A9000EBD3705EEA430E08BF20EAD37070BD49
S214000AA094F0000F0FD101F00046400041EB010129
S214000AB011F4801F08BF013CF7D041EA060195F00B
S214000AC0000F18BF704703F00046520043EB0303C5
S214000AD013F4801F08BF013DF7D043EA06037047B2
S214000AE094EA0C0F0CEA135518BF95EA0C0F0CD0BD
S214000AF050EA410618BF52EA4306D1D181EA030103
S214000B0001F000414FF0000070BD50EA410606BFFC
S214000B101046194652EA430619D094EA0C0F02D141
S214000B2050EA013613D195EA0C0F05D152EA033686
S214000B301CBF104619460AD181EA030101F00041A4
S214000B4041F0FE4141F470014FF0000070BD41F0ED
S214000B50FE4141F4780170BD70B54FF0FF0C4CF4C7
S214000B60E06C1CEA11541DBF1CEA135594EA0C0FE6
S214000B7095EA0C0F00F0A7F8A4EB050481EA030E33
S214000B8052EA03354FEA013100F088804FEA03331A
S214000B904FF0805545EA131343EA12634FEA0222E8
S214000BA045EA111545EA10654FEA00260EF00041A9
S214000BB09D4208BF964244F1FD0404F5407402D2FB
S214000BC05B084FEA3202B61A65EB03055B084FEA8C
S214000BD032024FF480104FF4002CB6EB020E75EB89
S214000BE0030E22BFB61A754640EA0C005B084FEAB1
S214000BF03202B6EB020E75EB030E22BFB61A75462E
S214000C0040EA5C005B084FEA3202B6EB020E75EB78
S214000C10030E22BFB61A754640EA9C005B084FEAF0
S214000C203202B6EB020E75EB030E22BFB61A7546FD
S214000C3040EADC0055EA060E18D04FEA051545EAEC
S214000C4016754FEA06164FEAC30343EA52734FEA95
S214000C50C2025FEA1C1CC0D111F4801F0BD141EA0E
S214000C6000014FF000004FF0004CB6E711F4801F73
S214000C7004BF01430020B4F1FD0C88BFBCF5E06F53
S214000C803FF6AFAEB5EB030C04BFB6EB020C5FEA63
S214000C90500C50F1000041EB045170BD0EF0004EB8
S214000CA04EEA113114EB5C04C2BFD4EB0C0541EAEA
S214000CB0045170BD41F480114FF0000E013C90E6E7
S214000CC045EA060E8DE60CEA135594EA0C0F08BFAB
S214000CD095EA0C0F3FF43BAF94EA0C0F0AD150EAAA
S214000CE001347FF434AF95EA0C0F7FF425AF10463D
S214000CF019462CE795EA0C0F06D152EA03353FF465
S214000D00FDAE1046194622E750EA410618BF52EAE1
S214000D1043067FF4C5AE50EA41047FF40DAF52EAB5
S214000D2043057FF4EBAE12E74FEA4102B2F1E0432F
S214000D3024BFB3F5001CDCF1FE5C0DD901F0004CBD
S214000D404FEAC0024CEA5070B2F1004F40EB83000D
S214000D5008BF20F00100704711F0804F21D113F139
S214000D603872BCBF01F00040704741F480114FEA72
S214000D705252C2F11802C2F1200C10FA0CF320FAFB
S214000D8002F018BF40F001004FEAC1234FEAD32318
S214000D9003FA0CFC40EA0C0023FA02F34FEA430382
S214000DA0CCE77FEA625307D150EA01331EBF4FF00B
S214000DB0FE4040F44000704701F0004040F0FE4026
S214000DC040F40000704700BF53B94AB9002908BF75
S214000DD000281CBF4FF0FF314FF0FF3000F03CB84A
S214000DE082B0EC462DE9005000F01EF8DDF804E075
S214000DF002B00CBC704700BF2DE9F041069C1546BA
S214000E0006460F46984600F029F805FB01F300FB5E
S214000E100838A5FB0023B21A434467EB0303C4E972
S214000E200023BDE8F08100BF2DE9F041069C904606
S214000E3006460F461D4600F05FF900FB05F5A0FBD1
S214000E40082308FB0155B21A2B4467EB0303C4E9D9
S214000E500023BDE8F08100BF704700BF00292DE9E0
S214000E60F043C0F2A6800026002BC0F29C80884685
S214000E7094469E46154604460F46002B3DD18A42B0
S214000E8059D9B2FA82F33BB1C3F120029F4020FA4F
S214000E9002F29D4017439C40290C220CB7FBF1FE42
S214000EA0A8B201FB1E7742EA074700FB0EF3BB42DF
S214000EB00AD97F190EF1FF3280F00581BB4240F25D
S214000EC00281AEF1020E2F44FF1AA4B2B7FBF1F373
S214000ED001FB137744EA074700FB03F0B84208D942
S214000EE07F1903F1FF3280F0F080B84240F2ED80C7
S214000EF0023B43EA0E43002203E08B420FD9002256
S214000F001346341C18BF012460424FF0000565EB01
S214000F1045015840514000196941BDE8F083B3FAD5
S214000F2083F2002A40F086808B4202D3844500F28A
S214000F30DB800123E5E712B90123B3FBF2F5B5FA2E
S214000F4085F000283BD1781B4FEA154E1FFA85FC2A
S214000F500122B0FBFEF8210C0EFB180741EA0747FA
S214000F600CFB08F3BB4207D97F1908F1FF3102D208
S214000F70BB4200F2BD808846FF1AA4B2B7FBFEF360
S214000F800EFB137744EA07470CFB03FCBC4507D966
S214000F907F1903F1FF3102D2BC4500F2A7800B4651
S214000FA043EA0843ADE752426FEA060663EB4303A3
S214000FB05DE7404261EB41014FF0FF3654E7C0F178
S214000FC0200224FA02F107FA00F385404FEA154E94
S214000FD0D7401943B7FBFEF20B0C0EFB12771FFA35
S214000FE085FC43EA07430CFB02F79F4204FA00F431
S214000FF007D95B1902F1FF3074D29F4272D9023AC8
S2140010002B44DF1B89B2B7FBFEF80EFB187341EAD0
S21400101003430CFB08F79F4208D95B1908F1FF3120
S2140010205CD29F425AD9A8F102082B44D81B48EA42
S21400103002428EE7C2F120032CFA03F10EFA02FEFA
S21400104020FA03F741EA0E0E08FA02F028FA03F136
S2140010504FEA1E453843B1FBF5F8030C05FB1811A3
S2140010601FFA8EF743EA014107FB08F38B420CFA9E
S21400107002FC09D911EB0E0108F1FF3930D28B4280
S2140010802ED9A8F102087144C91A80B2B1FBF5F353
S21400109005FB131140EA014107FB03F78F4208D90D
S2140010A011EB0E0103F1FF3016D28F4214D9023B2A
S2140010B0714443EA0843C91BA3FB0C89494509D37D
S2140010C005D000221DE79646FEE6134611E794403B
S2140010D04445F6D2013BF4E70346EAE78846A5E72F
S2140010E0C846D1E702468CE713460AE7023B57E7B5
S2140010F0A8F102082F443FE72DE9F041002B44D128
S2140011008A42154604464FD9B2FA82F70E464FB1C8
S214001110C7F12003B94020FA03F602FA07F50E439A
S21400112000FA07F44FEA154E230CB6FBFEF0AFB2FA
S2140011300EFB106143EA014307FB00F1994209D90F
S2140011405B1900F1FF3280F0EC80994240F2E980B2
S21400115002382B445A1AA4B2B2FBFEF30EFB13223B
S21400116044EA024207FB03F7974208D9521903F1F3
S214001170FF3180F0D880974240F2D580023B43EAA8
S214001180004000263146BDE8F0818B4247D8B3FACE
S21400119083F6002E48D18B4202D3824200F2CD80E5
S2140011A001203146BDE8F08112B90125B5FBF2F504
S2140011B0B5FA85F8B8F1000F77D14A1B4FEA154EFD
S2140011C0AFB20126B2FBFEF0230C0EFB102143EA61
S2140011D0014107FB00F38B4207D9491900F1FF32A2
S2140011E002D28B4200F2BA801046C91AA4B2B1FBF2
S2140011F0FEF30EFB131144EA014407FB03F7A74274
S21400120008D9641903F1FF3280F08F80A74240F2BC
S2140012108C80023B43EA00403146BDE8F081002660
S21400122030463146BDE8F081C6F1200422FA04F5C6
S214001230B3402B4320FA04FC01FA06F721FA04F522
S2140012404FEA134E4CEA0707B5FBFEF8390C0EFBC7
S21400125018551FFA83FC41EA05450CFB08F1A94224
S21400126002FA06F204D9ED1808F1FF3467D3A04657
S2140012706D1ABFB2B5FBFEF40EFB145547EA0541E6
S2140012800CFB04FC8C4504D9C91804F1FF355CD36B
S2140012902C4644EA0844CCEB0101A4FB0223994205
S2140012A048D344D0204600266CE7C8F1200401FA53
S2140012B008F305FA08F520FA04F7E1404FEA154E60
S2140012C01F43B1FBFEF63A0C0EFB16111FFA85FC07
S2140012D042EA01430CFB06F29A4200FA08F407D9E8
S2140012E05B1906F1FF3137D29A4235D9023E2B44BC
S2140012F09B1ABFB2B3FBFEF00EFB103347EA034364
S2140013000CFB00F1994207D95B1900F1FF3221D29C
S21400131099421FD902382B445A1A40EA06466746B5
S21400132050E7104616E70B4629E7134672E7B0402B
S2140013309042B7D2601E002624E7304622E7A94234
S21400134095D9A8F102081D4492E78C45A0D9023C25
S21400135019449EE71046DFE70E46C9E702382944DF
S21400136043E700BF80B483B000AF0346FB71FB7950
S214001370002B02D0012B07D00DE0094A084B5B6B0F
S21400138043F40033536306E0064A064B5B6B43F4B4
S2140013900033536300BF0C37BD465DF8047B7047CF
S2140013A0004002400050024080B485B000AF0346C3
S2140013B0FB710023FB73FB79012B08D0022B0AD0AC
S2140013C0002B00D00BE0094BDB69FB7307E0084BF2
S2140013D0DB69FB7303E0074BDB69FB7300BFFB7B3A
S2140013E018461437BD465DF8047B704700A00640DB
S2140013F000B0064000C0064080B58CB00AAF0AF0C8
S214001400D9FA04F0C1FE0AF0BFFA04F087FD04F032
S214001410D3FE06F0F7FCBB1D184603F007FB0223BD
S2140014200093224B01930C230293802303930523FE
S2140014300493002305930023069303230793BB1D01
S21400144008931B481B491C4A002301F005FBBB1DE3
S214001450184603F017FD194B1B685A1C17490A60FB
S21400146042F21072934217D1154B009300200921C7
S214001470144A154B0DF0AAFE144B1B8864339AB21F
S214001480124B1A80114B1B8841F2707293420CD992
S2140014900E4B00221A80DEE7084B1B6844F61F62DC
S2140014A0934202D9054B00221A60D4E7C0170020E9
S2140014B0CC08002010340100D114000000000020E9
S2140014C004000020E44400203412FF180084FF1FAC
S2140014D080B58EB00AAF78604BF68033FB60F86854
S2140014E004F022FC04F04AFC07F10A03184602F056
S2140014F081FA03230093504B01930C23029380231D
S21400150003930523049300230593002306930323E4
S214001510079307F10A03089348484949494A0023B4
S21400152001F09AFA04230093474B01931923029380
S2140015304FF480730393052304930023059300233D
S21400154006930323079307F10A0308933F4840498D
S214001550404A002301F080FA052300933E4B019396
S214001560192302934FF480730393052304930023F7
S2140015700593002306930323079307F10A030893B2
S21400158036483749374A002301F066FA06230093A7
S214001590354B01930C230293802303930523049376
S2140015A000230593002306930323079307F10A03FA
S2140015B008932E482E492F4A002301F04DFA0723A0
S2140015C000932D4B0193192302934FF480730393DA
S2140015D00523049300230593002306930323079310
S2140015E007F10A03089325482549264A002301F0F7
S2140015F033FA08230093244B01930C230293802391
S21400160003930523049300230593002306930323E3
S214001610079307F10A0308931C481D491D4A002337
S21400162001F01AFA07F10A031B48194601F008FBF5
S2140016301037BD4680BD00BFB00200209C090020C8
S2140016401C340100D5160000F80E0020F812002009
S21400165028340100E91F0000C00400205C0A0020B6
S214001660343401009D160000F40C00201C0B0020F2
S21400167040340100B9160000B8130020F001002025
S2140016804C34010035170000C0190020E40B002080
S21400169058340100151F0000CC08002080B584B027
S2140016A000AF786007F10E03C82000211A4600F04C
S2140016B00FFE06F0E3F9F5E780B584B000AF78607A
S2140016C007F10E034FF4487000211A4600F000FEA2
S2140016D0F6E700BF80B584B000AF78600023FB73E8
S2140016E00023BB7307F10C03C82000211A4600F044
S2140016F0EFFDFB7B0133FB73FB7B042B01D900233F
S214001700FB730A4B1B78AA2B0FD1BB7B0133BB7331
S214001710BB7B052B09D106480921012206F0F2FE03
S214001720024B00221A700023BB73DBE77C3D0020CF
S21400173000F10F4080B58EB000AF7860002387F8C8
S2140017403730002387F83630002387F8353007F126
S214001750240300221A60043300221A600433002295
S2140017601A60043307F10C0300221A6004330022C7
S2140017701A60043300221A60043300221A6004330D
S21400178000221A60043300221A80023307F1320363
S214001790C82000211A4600F09BFD06F0DDFB97F8F6
S2140017A03630002B0ED0012B00F05481A8E397F8BA
S2140017B037305A1C87F837200A2B03D9002387F8BE
S2140017C0373009E00020002111F068FC034683F062
S2140017D00103DBB2002BEAD1002387F8373097F8F5
S2140017E03530092B00F2298101A252F823F000BF00
S2140017F0191800002B1800007D180000DF180000E4
S2140018003B1A00003B1A0000351900003B1A000086
S21400181097190000E119000000200021C24A11F0CB
S2140018201BFC012387F8353008E107F1240300206C
S21400183000211A4611F056FCBB8C1A4641F288333A
S21400184003FB02F3B94A82FB03121A44D212DB17D7
S214001850D31A9AB2B64B1A80B54B1B88184606F0B8
S2140018603BFB03469AB2B34B1A8000200021B24AD3
S21400187011F0F2FB022387F83530DFE007F124038E
S2140018800233002000211A4611F02CFCFB8C1A466D
S21400189041F2883303FB02F3A44A82FB03121A4484
S2140018A0D212DB17D31A9AB2A44B1A80A34B1B880A
S2140018B01A4613461B019B1A9B00A14A82FB031281
S2140018C09210DB17D31A9AB29A4B5A800020002146
S2140018D09C4A11F0C1FB032387F83530AEE007F1D0
S2140018E024030433002000211A4611F0FBFB3B8D35
S2140018F01A4641F2883303FB02F38C4A82FB03123A
S2140019001A44D212DB17D31A9AB28F4B1A808E4B18
S2140019101B881A4652001A441201D31A9AB2854BF3
S2140019209A8000200021894A11F096FB062387F84A
S214001930353083E007F124030633002000211A46E1
S21400194011F0D0FB7B8D1A4641F2883303FB02F37D
S214001950764A82FB03121A44D212DB17D31A9AB2C3
S2140019607B4B1A807A4B1B881A4613461B019B1A20
S2140019709B00734A82FB03129210DB17D31A9AB2AB
S2140019806C4BDA8000200021724A11F065FB0823B8
S21400199087F8353052E007F1240308330020002191
S2140019A01A4611F09FFBBB8D1A4641F2883303FBA3
S2140019B002F35E4A82FB03121A44D212DB17D31AD2
S2140019C09AB2654B1A80644B1A885A4B1A810020CB
S2140019D00021624A11F040FB092387F835302DE0DC
S2140019E007F124030A33002000211A4611F07AFB7F
S2140019F0FB8D1A4641F2883303FB02F34B4A82FB07
S214001A0003121A44D212DB17D31A9AB2544B1A8016
S214001A10534B1B88184606F05FFA03469AB2454BAE
S214001A205A8100200021404A11F016FB002387F857
S214001A303530012387F8363000E000BF60E297F8C3
S214001A4037305A1C87F837200A2B03D9002387F82B
S214001A50373009E00120002111F020FB034683F017
S214001A600103DBB2002BEAD1002387F8373097F862
S214001A7035300B2B00F2428201A252F823F000BF51
S214001A80B11A0000711B0000BB1B0000111C0000F7
S214001A90671C0000B11C0000071D00005F1D000051
S214001AA0A91D0000FD1E0000F31D0000AD1E000075
S214001AB0012000212B4A11F0CFFA07F1320314203F
S214001AC000211A4600F004FC07F10C030120002157
S214001AD01A4611F007FBBB891A4641F2883303FB0E
S214001AE002F3124A82FB03121A44D212DB17D31AED
S214001AF09AB21D4B1A801C4B1B881A4613461B01B4
S214001B009B1A9B000E4A82FB03129210DB17D31A15
S214001B109AB2084B9A8101200021144A11F09CFACF
S214001B20012387F83530EAE1FC3C0100810008809B
S214001B306C42002058430020003D01001C3F00205E
S214001B404FECC44E043D0100C8410020083D010092
S214001B50744000200C3D0100D6420020103D0100DC
S214001B6014420020D03C010000430020D43C010079
S214001B7007F10C030233012000211A4611F0B2FAD5
S214001B80FB891A4641F2883303FB02F3B24A82FB12
S214001B9003121A44D212DB17D31A9AB2AF4B1A802A
S214001BA0AE4B1A88AE4BDA8101200021AD4A11F007
S214001BB053FA022387F83530A1E107F10C0304330A
S214001BC0012000211A4611F08DFA3B8A1A4641F28E
S214001BD0883303FB02F3A04A82FB03121A44D21294
S214001BE0DB17D31A9AB2A04B1A809F4B1B881A4653
S214001BF092001A44520013449AB2994B1A8201205A
S214001C0000219A4A11F028FA032387F8353076E146
S214001C1007F10C030633012000211A4611F062FA80
S214001C207B8A1A4641F2883303FB02F38A4A82FB18
S214001C3003121A44D212DB17D31A9AB28C4B1A80AC
S214001C408B4B1B881A4692001A44520013449AB2D1
S214001C50834B5A8201200021864A11F0FDF90423A5
S214001C6087F835304BE107F10C03083301200021DB
S214001C701A4611F037FABB8A1A4641F2883303FB3C
S214001C8002F3754A82FB03121A44D212DB17D31AE8
S214001C909AB2794B1A80784B1A88714B9A82012037
S214001CA00021764A11F0D8F9052387F8353026E169
S214001CB007F10C030A33012000211A4611F012FA2C
S214001CC0FB8A1A4641F2883303FB02F3624A82FB20
S214001CD003121A44D212DB17D31A9AB2684B1A8030
S214001CE0674B1B881A4692001A44520013449AB255
S214001CF05B4BDA8201200021624A11F0ADF906231F
S214001D0087F83530FBE007F10C030C330120002187
S214001D101A4611F0E7F93B8B1A4641F2883303FB6B
S214001D2002F34D4A82FB03121A44D212DB17D31A6F
S214001D309AB2554B1A80544B1B881B01534A82FBA0
S214001D400312DB17D31A9AB2454B1A8301200021DF
S214001D504F4A11F081F9072387F83530CFE007F1B5
S214001D600C030E33012000211A4611F0BBF97B8BC1
S214001D701A4641F2883303FB02F3374A82FB03120A
S214001D801A44D212DB17D31A9AB2424B1A80414B2E
S214001D901A88334B5A83012000213F4A11F05CF920
S214001DA0082387F83530AAE007F10C03103301202A
S214001DB000211A4611F096F9BB8B1A4641F2883379
S214001DC003FB02F3244A82FB03121A44D212DB17E7
S214001DD0D31A9AB2314B1A80304B1A88204B9A830A
S214001DE0012000212E4A11F037F90A2387F83530F2
S214001DF085E007F10C031233012000211A4611F08A
S214001E0071F9FB8B1A4641F2883303FB02F3124A40
S214001E1082FB03121A44D212DB17D31A9AB2214B52
S214001E201A80204B1B881A4613469B0013445B00FF
S214001E3003F56A531833002B00DA03339B109AB26B
S214001E40074BDA8301200021174A11F005F90B230E
S214001E5087F8353053E000BF81000880F83F002047
S214001E6058430020D83C010098420020DC3C01008A
S214001E7068420020E03C0100E0400020E43C010015
S214001E8074410020E83C0100A241002056555555FB
S214001E90EC3C0100D4420020F03C01001842002037
S214001EA0F43C01006E400020F83C010007F10C03F2
S214001EB01433012000211A4611F014F93B8C1A46FF
S214001EC041F2883303FB02F30E4A82FB03121A44E4
S214001ED0D212DB17D31A9AB20B4B1A800A4B1A8807
S214001EE00A4B1A8401200021094A11F0B5F8002394
S214001EF087F83530002387F8363000E000BF00BF93
S214001F0044E400BF8100088090420020584300202F
S214001F10D03C010080B584B000AF78600023BB8160
S214001F200023FB7307F10A03C82000211A4600F0BD
S214001F30CFF9FB7B0133FB73FB7B052B1AD1244BBC
S214001F401B6903F010031B09002B06D0204B1B69EE
S214001F5003F020035B09002B05D11E480421012253
S214001F6006F0D0FA04E01B480421002206F0CAFA64
S214001F700023FB73184B1B6903F48033002B06D039
S214001F80154A154B1B6823F48033136005E0124A8C
S214001F90114B1B6843F480331360104B1B6D03F02A
S214001FA040039B09002B12D0002006210AF0D8FF20
S214001FB00346BB810A4B1A68BB89B2FBF3F3094A96
S214001FC01360064A054B1B6D23F040031365A9E713
S214001FD040F00F4000F10F40C0F00F40008003407B
S214001FE0F40E00208C09002080B584B000AF786025
S214001FF007F10E03C82000211A4600F069F906F022
S214002000F7F8F5E780B58CB00AAF7860364B00225B
S2140020101A60364B00221A60354B00221A80354B68
S2140020201B68002B08D0344B1A68324B1B68B2FB77
S214002030F3F3324A136007E02F4B1B68304AA2FBCB
S2140020400323DB082D4A13602C4B1B682D4A1360B4
S2140020502D4B00221A602D4B00221A602C482D4969
S2140020607A6801F0F1FF7B681B88002B00D038E00F
S214002070294B1B68002B04D17B6847F247321A8035
S2140020802FE0264B1A68264B1B689A4204D27B68C0
S21400209047F248321A8024E0224B1B783E2B04D9A4
S2140020A07B6847F246321A801BE01E4B18781A4BA4
S2140020B019681D4B1A68194B1B6800900191029213
S2140020C003930023049300230593002306930B2316
S2140020D007937B68089315481549164A002300F0B5
S2140020E0BBFC0837BD4680BDA02200209C220020F5
S2140020F0A8220020343701001C370100AC22002043
S214002100CDCCCCCCBC220020A81F0020C81F0020AD
S214002110782100206C340100383701004037010078
S21400212018370100303701003C370100E01F00205F
S2140021307C340100C121000080B400AFBD465DF8CC
S214002140047B704780B485B000AF78601A4B1A687D
S2140021507B689A420CD17B681B69FB60164AFB6859
S2140021601360FB68002B12D0FB6800225A610EE059
S2140021707B685B69FB607B681B69BB60FB68BA6851
S2140021801A61BB68002B02D0BB68FA685A617B688C
S214002190012283F826207B6800221A617B680022D1
S2140021A05A61064B1B88013B9AB2044B1A801437BF
S2140021B0BD465DF8047B70479C220020A8220020C4
S2140021C080B58AB000AF786007F10C0207F1120301
S2140021D00020002100F03AFE00F05AF803F018FF45
S2140021E03862284B1B680133264A1360264B1B684F
S2140021F07B6233E007F11203184602F0D5FD7B6AD6
S2140022001B69BB617B6A9B695A1E7B6A9A617B6A03
S2140022109B69002B1BD17B6A9B8C022B04D17B6AAB
S2140022201A6A7B6A9A6106E0786AFFF78BFF7B6A18
S214002230032283F826207B6A9B687B617B69002BE0
S21400224005D07B6ADA687B69786A11469847BB696D
S2140022507B6207F11203184602F0D6FD7B6A002B5C
S214002260C8D103F0D5FE02463B6AD31AFB6100F0E4
S21400227021F8064B1A68FB699A4202D2034AFB69A8
S2140022801360A1E7A81F00209C220020C81F002082
S21400229090B585B002AF3C46BB1D009304480021B4
S2140022A00022234601F012FF0C37BD4690BD00BF4A
S2140022B07821002080B582B000AFBB1D0348002106
S2140022C01A4602F001F80837BD4680BD7821002086
S2140022D080B586B000AFF8600B467A607B8100233D
S2140022E07B612A4B1B78002B04D07B6846F6635232
S2140022F01A8047E07B89082B1DD801A252F823F0EC
S2140023002523000037230000252300003723000084
S2140023104123000037230000372300003723000046
S21400232025230000FB68002B04D17B6847F27E2241
S2140023301A8027E005E07B6845F625621A8021E0D2
S21400234000BFFEF7EFF87861114B1A687B891046DC
S214002350F9681A467B6800F07DF97B681B88002BBD
S21400236003D07869FEF7E2F80CE0094B1B681846C4
S21400237003F0A0F97869FEF7D9F802F0C3FC7B6891
S21400238000221A801837BD4680BD00BFC41B00203F
S214002390B01F002080B582B000AF03F09FFCBB1DCD
S2140023A00D4800211A4600F035FE0C4B1B68013B19
S2140023B00A4A1360094B1B68002B09D1084B1B689F
S2140023C0064A1360BB1D074800211A4600F022FE8D
S2140023D00837BD4680BD00BFE81E0020BC22002096
S2140023E0AC220020E01F002080B588B000AF7860E7
S2140023F00023FB6107F10E0300200021002200F0FD
S21400240025FDFB89002B1CD1FEF78CF8F8610D4BDF
S2140024101B6801330B4A1360F869FEF787F800F073
S21400242007FAB86100F066FA7861BA697B69134406
S2140024303B61054B1A683B699A4202D2024A3B69E5
S2140024401360D7E7B0210020A422002080B58CB00E
S2140024500AAF7860284B00221A60284B00221A60C8
S214002460274B00221A60254B00229A80234B00221D
S214002470DA80234B00229A80214B0022DA80214BFF
S2140024801B68002B04D17B6847F212221A802FE0CB
S2140024901D4B1A681D4B1B689A4204D27B6847F294
S2140024A013221A8024E01A4B1B783E2B04D97B6833
S2140024B047F211221A801BE0154B1878114B196849
S2140024C0144B1A68104B1B680090019102920393FC
S2140024D00023049300230593002306930B230793FE
S2140024E07B6808930C480D490D4A002300F0B4FAA7
S2140024F00837BD4680BD00BFB0210020B4220020B2
S214002500C0220020243701002C37010018370100B4
S2140025102037010028370100E81E0020943401000F
S214002520E923000080B489B000AFF860B9607A6033
S214002530FB681B68002B12D1BB687A681A65BB68FB
S21400254000225A61BB6800229A61BB68FA68DA61A9
S214002550FB68BA681A60FB6801229A8074E0FB6820
S2140025601B68FB61FB681B68BB617B687B6153E093
S214002570BB691A6D7B699A4244D3BB699B69002B81
S2140025801ED1BB687A691A65BB6800229A61BB686F
S214002590BA695A61BB68FA68DA61BB691A6D7B6909
S2140025A0D21ABB691A65BB69BA689A61FB68BA68D1
S2140025B01A60FB689B8801339AB2FB689A8043E0F6
S2140025C0BB699B69FB61BB687A691A65BB68FA6977
S2140025D09A61BB68BA695A61BB68FA68DA61BB6916
S2140025E01A6D7B69D21ABB691A65BB69BA689A61AB
S2140025F0FB69BA685A61FB689B8801339AB2FB682C
S2140026009A8021E0BB691B6D7A69D31A7B61BB692E
S214002610FB61BB695B69BB61BB69002BA8D1BB686A
S2140026207A691A65BB68FA699A61BB6800225A61C2
S214002630BB68FA68DA61FB69BA685A61FB689B880E
S21400264001339AB2FB689A802437BD465DF8047B56
S214002650704700BF80B586B000AFF860B9603B60D9
S2140026601346FB80FB88042B13D13A4B1B68BA68D1
S214002670D31A7B617B6913F5803F02D87B69002BF8
S21400268058D1FB6800221A653B6847F27E221A8002
S2140026905CE0FB88082B3FD12E4B1A68FB685B6D0D
S2140026A0D21ABB689A4208D9BB687B61294B1A6864
S2140026B0BB681A44FB685A653CE0FB685A6D254BBC
S2140026C01B68D21ABB6813447B617B6913F5803F95
S2140026D002D87B69002B18D1FB685A6D1D4B196810
S2140026E0FB685B6DC91ABB68B1FBF3F30133B968CD
S2140026F001FB03F31A44FB685A65FB6800221A655F
S2140027003B6847F27E221A8020E0FB685A6DBB6861
S2140027101A44FB685A650DE0BB68002B02D0BB6804
S2140027207B6107E0FB6800221A653B6847F27E2261
S2140027301A800BE0FB68012283F836200648F96809
S2140027407A69FFF7EFFE3B6800221A801837BD460D
S21400275080BD00BFB0210020B422002080B487B026
S21400276000AF78607B68DB697B617B689B693B6157
S2140027707B685B69FB603B69002B2CD1FB68002BF8
S2140027800CD17B6900221A607B6900229A807B68E4
S21400279000221A657B680022DA613EE0FB680022B0
S2140027A09A61FB681A6D7B681B6D1A44FB681A6594
S2140027B07B69FA681A607B699B88013B9AB27B69E1
S2140027C09A807B6800225A617B6800221A657B68C3
S2140027D00022DA6121E03B69FA685A61FB68002B47
S2140027E009D0FB683A699A61FB681A6D7B681B6DB5
S2140027F01A44FB681A657B6800229A617B699B888D
S214002800013B9AB27B699A807B6800225A617B689A
S21400281000221A657B680022DA611C37BD465DF827
S214002820047B704780B400AFBD465DF8047B7047FC
S21400283080B586B000AF0023FB60FDF773FEF8603E
S21400284003F0E6FBB86000237B82294B7B607B6845
S2140028501B687B617B69002B39D07B691B6D5A1E18
S2140028607B691A652FE07B8A01337B827B6993F84C
S2140028703630012B07D17B69002283F83620786931
S21400288002F07AFE08E07B6993F83630052B03D118
S2140028907B69042283F836207B695A697B681A6054
S2140028A07B681B687B617B69002B03D17B680022F9
S2140028B09A800CE07B689B88013B9AB27B689A8082
S2140028C07B6900229A617B691B6D002BCBD07B68ED
S2140028D07A8ADA8003F09CFB0246BB68D31A3B6018
S2140028E0F868FDF723FE3B6818461837BD4680BDDE
S2140028F0B422002080B588B000AF00233B61FDF70E
S21400290011FE386103F084FBF86000237B83514B93
S214002910BB60BB681B68FB61FB69002B00F089800D
S214002920FB691B6D5A1EFB691A657DE07B8B0133C4
S2140029307B8300237B61FB6993F83430042B04D13E
S214002940FB691B6BDB685B6A7B61FB6900229A652F
S214002950FB690022A3F85C2003F05AFB0246FB69E1
S2140029609A64F86902F0A8FCFB6993F83630032BEA
S21400297007D1F86902F000FEFB69002283F83620D2
S21400298008E0FB6993F83630072B03D1FB69042275
S21400299083F83620FB69032283F83520FB69002282
S2140029A083F834207B69002B27D07B6993F8372087
S2140029B07B6993F838309A421FD07B6993F83720AA
S2140029C0FB6993F837309A4217D1786901F0B8FD61
S2140029D00346FB717B6993F83820FB79934228BF46
S2140029E01346FB717B6993F83730FA799A4204D024
S2140029F0FB797869194600F0C5FEFB695A69BB6821
S214002A001A60BB681B68FB61FB69002B03D1BB68BF
S214002A1000229A800DE0BB689B88013B9AB2BB6897
S214002A209A80FB6900229A61FB691B6D002B3FF4BC
S214002A307DAFBB687A8BDA8003F0EAFA0246FB6861
S214002A40D31A3B603869FDF771FD3B68184620379E
S214002A50BD4680BDC022002080B58CB002AFF860B5
S214002A60B9607A603B600023BB61FB68002B04D131
S214002A703B6D47F2AD121A80D6E07B68002B04D17E
S214002A803B6D47F24F121A80CEE07B6B002B04D1D1
S214002A903B6D46F62F621A80C6E0654B1B68FA6BE4
S214002AA09A4204D23B6D46F630621A80BCE0BA6B9E
S214002AB0FB6B9A4204D33B6D46F631621A80B3E054
S214002AC097F830303F2B04D93B6D46F273221A80BC
S214002AD0AAE097F830303F2B08D1FB68554A93425E
S214002AE004D03B6D46F273221A809DE0F86800F031
S214002AF0BFFB3B6D00221A80B7F84C3003F0010391
S214002B00002B17D0B7F84C3003F00203002B11D07F
S214002B107B6BFB6100237B6208E0FB6900221A6086
S214002B20FB690433FB617B6A01337B627A6AFB6B69
S214002B309A42F2D3BB6B9B007A6B13447B61FB6BB0
S214002B400093B7F84C300193786839687A6B7B69E4
S214002B5002F0CEFEF861FB687A689A62FB683A6813
S214002B60DA62FB68BA681A62FB6897F8302083F866
S214002B703720FB6897F8302083F83820FB68FA691E
S214002B801A60FB687A699A60FB68BA6C5A60FB68E0
S214002B907A6B5A62FB68FA6B1A64FB68B7F84C20CB
S214002BA0A3F84420002387F823300BE097F823206F
S214002BB0FB681E32002143F8221097F823300133B9
S214002BC087F8233097F82330002BEFD0FB6803F10B
S214002BD06002B7F840301046194601F0C5FDF868A7
S214002BE002F050FEFDF79EFCB861FB6893F83730A4
S214002BF0184601F0DBF9F86802F01CFDF86800F0F2
S214002C00B3FA0D4B1B8801339AB20B4B1A800B4B51
S214002C101B78012B03D0B869FDF788FC04E0B8697F
S214002C20FDF784FC02F06EF82837BD4680BD00BF75
S214002C3018370100AC200020DC1F0020D51B002028
S214002C4080B586B000AF7860396000233B617B6852
S214002C50684A934204D13B6847F24C121A80C5E09A
S214002C607B68002B08D1FDF75DFC3861624B1B6862
S214002C707B603869FDF75AFCFDF754FC38617B68C9
S214002C8093F83630072B00F2818001A252F823F029
S214002C90B12C0000B92C0000C12C0000C12C000093
S214002CA09D2D0000B92C0000C12C0000C12C000096
S214002CB0786802F0FFFC72E07868FFF74FFD6EE080
S214002CC07B6893F83430072B50D801A252F823F0D3
S214002CD06D2D0000F12C00006D2D0000F12C000081
S214002CE0F92C0000F12C0000F12C00006D2D0000E6
S214002CF0786802F0E1FA3AE07B681B6BDB685B6A97
S214002D00FB60FB6893F83730FB75786802F0D4FAFE
S214002D10FB6893F83720FB6893F838309A4214D053
S214002D20FB6893F837207B6893F837309A420CD1CB
S214002D30F86801F005FC0346FB75FB6893F838203D
S214002D40FB7D934228BF1346FB757B68002283F801
S214002D503420FB6893F83730FA7D9A4205D0FB7D25
S214002D60F868194600F00EFD01E000E000BF7B6841
S214002D7093F83630032B04D07B6893F83630072B55
S214002D8003D17868FFF7EAFC09E008E03869FDF748
S214002D90CDFB3B6846F62D621A8027E000BF7B68B5
S214002DA0DB6B002B02D0786801F0F6FB7B686033A3
S214002DB0184601F09DFC786802F076FD786800F011
S214002DC0F9F90E4B1B88013B9AB20C4B1A807868B7
S214002DD000F04EFA7B68FF2283F836203869FDF74C
S214002DE0A5FB3B6800221A8001F08CFF1837BD4611
S214002DF080BD00BFAC200020B01F0020DC1F0020DC
S214002E0080B584B000AF786039600023FB60FDF7C2
S214002E1089FBF8607B68002B04D00B4B1B687A6834
S214002E209A4207D1F868FDF781FB3B6847F25712D4
S214002E301A8006E0F868FDF779FB7868396800F0D4
S214002E40DDFA1037BD4680BDB01F002090B587B0B4
S214002E5000AFF8607A603B600B467B8100237B61A5
S214002E607B89002B08D0B3F5004F05D03B6845F6AC
S214002E7025621A800023C4E000BF7B68002B02D0C6
S214002E807B6800221A60FDF74DFB78615F4B1B687C
S214002E90DB6C002B35D05D4B1B68DA6C013ADA64CC
S214002EA05A4B1B68DB6C3B617B68002B04D0574B8E
S214002EB01B689A6C7B681A60544B1C6803F0A8F871
S214002EC00246524B1B689B6CD31AC4F8A0304F4B7B
S214002ED01B68D3F8A4204D4B1B68D3F8A0309A4249
S214002EE007D24A4B1B68494A1268D2F8A020C3F89A
S214002EF0A4207869FDF71AFB3B6800221A803B691C
S214002F007FE07B891BB2002B08DA7869FDF70EFBA1
S214002F103B6846F2B0121A80002372E03C4B1B78E6
S214002F20002B08D07869FDF701FB3B6846F6635234
S214002F301A80002365E0002000210722FB6802F0CB
S214002F4033F87869FDF7F2FA01F0DCFEFDF7EAFAED
S214002F5078612E4B1B6893F83530012B2CD0032B51
S214002F6037D0002B40D17B68002B21D0274B1B6825
S214002F709A6C7B681A60254B1C6803F049F8024679
S214002F80224B1B689B6CD31AC4F8A0301F4B1B68DF
S214002F90D3F8A4201D4B1B68D3F8A0309A4207D262
S214002FA01A4B1B68194A1268D2F8A020C3F8A4204E
S214002FB03B6800221A801CE07B68002B04D0134B71
S214002FC01B689A6C7B681A603B6846F2A9121A80E6
S214002FD00FE07B68002B02D07B6800221A603B68FB
S214002FE047F2D9221A8004E03B6846F62E621A8021
S214002FF000BF064B1B68DB6C3B617869FDF796FAF1
S2140030003B6918461C37BD4690BD00BFB01F002068
S214003010C41B002080B586B000AFF8600B467A600F
S2140030207B817B89002B08D0B3F5004F05D07B68E9
S21400303045F625621A8000230CE000BF02F0E8FF88
S21400304078617B89F86819467A697B6800F07AFAB5
S21400305038613B6918461837BD4680BD80B588B0D4
S21400306000AFF860B9607A603B6000237B61BB68A4
S214003070002B04D13B6846F2D5221A8056E07B68C6
S214003080002B04D13B6846F2D5221A804EE0FDF7AD
S21400309049FA7861FB68002B02D1264B1B68FB605F
S2140030A0FB681B68002B0DD17869FDF73FFABB68FB
S2140030B000221A607B6800221A603B6847F25212B0
S2140030C01A8033E0FB68B3F8443003F00103002BAA
S2140030D00DD17869FDF72AFABB6800221A607B6872
S2140030E000221A603B6847F254121A801EE0786984
S2140030F0FDF71CFA0023FB61FB685B6ABB6105E019
S214003100BB690433BB61FB690133FB61BB691B68A8
S214003110002BF5D0BB68FA691A60FB681A6CFB696D
S214003120D21A7B681A603B6800221A802037BD4698
S21400313080BD00BFB01F002080B582B000AF7860B1
S21400314039607B68074A934204D13B6847F25B12BA
S2140031501A8003E07868396800F088FA0837BD46B8
S21400316080BD00BFAC20002080B483B000AF786084
S2140031707B680022C3F8B4200D4B1B68002B04D1DB
S2140031807B680022C3F8B82009E0094B1A687B6800
S214003190C3F8B820064B1B687A68C3F8B420044A04
S2140031A07B6813600C37BD465DF8047B704700BF34
S2140031B0C41F002080B485B000AF78607B68D3F869
S2140031C0B430FB607B68D3F8B830BB60FB68002B7C
S2140031D00ED1184ABB681360BB68002B03D0BB68CF
S2140031E00022C3F8B4207B680022C3F8B8201BE096
S2140031F0BB68002B08D1FB680022C3F8B8207B68A8
S2140032000022C3F8B4200FE0FB68BA68C3F8B82001
S214003210BB68FA68C3F8B4207B680022C3F8B820FD
S2140032207B680022C3F8B4201437BD465DF8047BE3
S214003230704700BFC41F002080B483B000AF786022
S214003240084B00221A60084B00221A80074B002207
S2140032501A607B6800221A800C37BD465DF8047B36
S214003260704700BFC41F0020DC1F0020D41F0020B2
S21400327080B584B000AF78607B6800221A607B68F7
S21400328000229A607B6800225A607B680022DA601F
S2140032907B6800221A617B6800225A617B680022E4
S2140032A09A617B680022DA617B68524A1A627B6800
S2140032B000225A627B6800229A627B680022DA62E9
S2140032C07B6800229A647B6800229A657B680022ED
S2140032D0A3F85C207B6860331846002101F044FAAE
S2140032E07B6800221A677B6800225A677B68002288
S2140032F0DA677B680022A3F884207B680022C3F884
S21400330080200023FB7308E0FA7B7B681E320021D6
S21400331043F82210FB7B0133FB73FB7B002BF3D0BF
S2140033207B680022DA647B680022C3F8A0207B68F2
S2140033300022C3F8A4207B6800221A647B6800225F
S21400334083F886207B680022C3F8AC207B680022C6
S214003350C3F8A8207B680022A3F844207B680022DC
S2140033601A657B6800225A657B680022A3F88820CD
S2140033707B680022A3F88A207B680022C3F88C2092
S2140033807B680022C3F8902002F042FEB8607B689B
S214003390BA68C3F894207B680022C3F898207B683C
S2140033A00022C3F8B0207B68002283F834207B68B4
S2140033B0002283F835207B68002283F836207B685D
S2140033C0402283F837207B68402283F838207B68C9
S2140033D00022DA637B680022C3F8B4207B680022F0
S2140033E0C3F8B8207B68044AC3F8BC201037BD4633
S2140033F080BD00BFA8340100B034010080B584B0A1
S21400340000AF786039600023FB60FDF78BF8F8604A
S2140034103B6800221A807B6893F83630072B72D8F8
S21400342001A252F823F000BF4934000049340000DE
S2140034304934000049340000593400008934000043
S214003440B3340000DD340000F868FDF76FF83B6821
S21400345047F253121A805EE07B6893F88630013B91
S214003460DAB27B6883F886207B6893F88630002B78
S21400347006D17B68002283F83620786802F07CF854
S214003480F868FDF753F846E07B6893F88630013B12
S214003490DAB27B6883F886207B6893F88630002B48
S2140034A003D17B68012283F83620F868FDF73EF8E2
S2140034B031E07B6893F88630013BDAB27B6883F8AC
S2140034C086207B6893F88630002B03D17B68022227
S2140034D083F83620F868FDF729F81CE07B6893F837
S2140034E08630013BDAB27B6883F886207B6893F8E7
S2140034F08630002B03D17B68032283F83620F868D9
S214003500FDF714F807E0F868FDF710F83B6846F694
S2140035102D621A8001E001F0F5FB1037BD4680BD34
S21400352080B582B000AF064B1B68184602F0CEF995
S214003530BB1D00201946FFF783FB0837BD4680BD3C
S214003540B01F002080B588B002AFF8607A603B609C
S2140035500B467B8100233B61FCF7E4FF3861FB6888
S214003560002B02D1404B1B68FB60FB687A689A64AC
S2140035703B6800221A80FB6893F83630072B64D825
S21400358001A252F823F000BFA9350000A9350000BB
S214003590DF350000DF350000A9350000A935000042
S2140035A0DF350000DF350000FB68DB6CB3F1FF3F62
S2140035B008D13869FCF7BAFF3B6846F6C5521A8050
S2140035C000234DE000BFFB68DB6C5A1CFB68DA6426
S2140035D0FB68DB6C7B613869FCF7A8FF3FE0FB68A3
S2140035E093F83430072B14D17B6800930020F968D9
S2140035F00022002301F0D4FEFB68DB6C7B61386997
S214003600FCF794FF7B891BB2002B1DDB01F07AFBD5
S21400361025E0FB68DB6CB3F1FF3F08D13869FCF7A7
S21400362085FF3B6846F6C5521A80002318E000BFA7
S214003630FB68DB6C5A1CFB68DA64FB68DB6C7B613E
S2140036403869FCF773FF0AE009E03869FCF76EFF9B
S2140036503B6846F62D621A8000237B6100BF7B69BB
S21400366018461837BD4680BDB01F002080B584B010
S21400367000AF786039600023FB60FCF753FFF8600A
S2140036807B68002B02D13D4B1B687B603B4B1B6865
S2140036907A689A420BD13A4B1B78002B07D0F86811
S2140036A0FCF744FF3B6846F663521A8063E03B68CB
S2140036B000221A807B6893F83630072B51D801A277
S2140036C052F823F0E5360000033700001B370000F1
S2140036D0333700004B3700004B3700004B370000F5
S2140036E04B3700007B68042283F836207B68012273
S2140036F083F88620786801F0DDFFF868FCF716FF8F
S21400370037E07B68052283F836207B68012283F841
S2140037108620F868FCF70AFF2BE07B68062283F811
S21400372036207B68012283F88620F868FCF7FEFEC8
S2140037301FE07B68072283F836207B68012283F827
S2140037408620F868FCF7F2FE13E07B6893F8863074
S2140037500133DAB27B6883F88620F868FCF7E6FE69
S21400376007E0F868FCF7E2FE3B6846F62D621A8032
S21400377001E001F0C7FA1037BD4680BDB01F00203B
S214003780C41B002080B584B000AF78600B46FB7089
S2140037900023FB607B6893F83730FB727B6893F8F6
S2140037A03630072B00F28A8001A252F823F000BFC1
S2140037B0D1370000053800000F3800000F38000031
S2140037C005380000053800000F3800000F380000EC
S2140037D0786801F06FFF7B68FA7883F837207B689B
S2140037E093F83730184600F0E1FB364B1B687A68D2
S2140037F09A4203D1786801F0DDFE58E0786801F05F
S21400380019FF54E07B68FA7883F837204FE07B682E
S214003810FA7883F837207B6893F83430013B052B21
S21400382043D801A252F823F041380000AB3800001C
S2140038304138000049380000413800004138000097
S214003840786801F08BFC31E0786801F087FC7B68D3
S2140038501B6BDB685B6AFB60FA7AFB789A4208D9D6
S214003860FB6893F83730FA789A421DD30023FB6042
S2140038701AE0FB6893F83730FA7A9A4214D1F8685F
S21400388000F05EFE0346FB70FB6893F83820FB787A
S214003890934228BF1346FB70FB6893F83730FA78DC
S2140038A09A4201D10023FB6000E000BF00BFFB6826
S2140038B07B607B68002B7FF46BAF00E000BF1037A7
S2140038C0BD4680BDB01F002080B586B000AF7860D2
S2140038D00023FB60FCF726FEF8603E4B00221A80B1
S2140038E03D4B00221A603D4B00221A603C4B0022E2
S2140038F01A603C4B00221A603B4B00221A81F86883
S214003900FCF714FEFCF70EFEF860384B1B687B6174
S214003910F868FCF70BFE34E0FCF704FEF8607B6901
S2140039200022C3F8B0207B6900225A677B69002218
S214003930C3F8A4207B690022C3F88C207B69002290
S214003940A3F888207B690022A3F88A207B690022DE
S214003950C3F898207B690022C3F89C2002F058FB2D
S21400396002467B69C3F894207B696033BB60BB6802
S21400397000229A817B69D3F8B8307B61F868FCF73F
S214003980D5FD7B69002BC7D1FCF7CCFDF860184B42
S2140039901B683B61F868FCF7C9FD0EE0FCF7C2FD4A
S2140039A0F8603B692033BB60BB6800229A813B69A4
S2140039B09B693B61F868FCF7B9FD3B69002BEDD1CC
S2140039C0FEF730FFFEF7B8FB7B6800221A80183738
S2140039D0BD4680BDB61F0020CC1B0020A4220020C0
S2140039E0C81F0020D0210020A0200020C41F0020D7
S2140039F06C21002080B586B000AF786000233B6164
S214003A0007F10E0332481946FFF796FBFB89002B99
S214003A1003D0FA897B681A8056E007F10E0302206D
S214003A2000211A46FEF754FCFB89002B03D0FA89C6
S214003A307B681A8048E0FCF775FD3861254B00224C
S214003A401A603869FCF772FD00237B61224B1A6806
S214003A50224B1B689A4206D91F4B1A681F4B1B68DD
S214003A60B2FBF3F37B617B69002B06D11A4B1B6814
S214003A701B4AA2FB0323DB087B6107F10E03786970
S214003A8000211A46FEF724FC07F10E0310481946DB
S214003A90FFF7B6F9FB89002B03D0FA897B681A80FA
S214003AA012E0FCF73FFD38610E4B00221A60094B0E
S214003AB01B680D4A13600D4B01221A703869FCF71B
S214003AC035FD7B6800221A801837BD4680BD00BFD2
S214003AD0E01F0020D01B00201C3701000837010023
S214003AE0CDCCCCCCCC1B0020AC210020D91E002095
S214003AF080B590B000AF78600023BB6109E0854BCD
S214003B001B685A0007F10A03104600211A46FEF702
S214003B10DFFB814B1B78012BF1D107F10A03184616
S214003B20FFF7D2FE0023FB617C4B1A68794B1B68BB
S214003B309A4206D9794B1A68764B1B68B2FBF3F3A8
S214003B40FB61FB69002B06D1744B1B68744AA2FB11
S214003B500323DB08FB6102F05BFA7861FCF7E2FC0A
S214003B60B861704B1B68704A13606E4B00221A6077
S214003B70B869FCF7DBFC6D4B1A686B4B1B689A4206
S214003B804FD96A4B1B686A4A934205D842F21073B3
S214003B907B6201233B6224E0644B1B68654A9342C8
S214003BA005D84FF47A737B620A233B6219E05F4BB9
S214003BB01B68614A934204D864237B6264233B6299
S214003BC00FE05A4B1B685D4A934205D80A237B6276
S214003BD04FF47A733B6204E001237B6242F2107377
S214003BE03B62524B1A683B6AB2FBF3F33B614E4BA7
S214003BF01B687A6A02FB03F23B69B2FBF3F39BB2E3
S214003C00C3F51C5310339AB24D4B1A804D4B1A888D
S214003C104B4B1B889A4208D2494B1A88494B1A804C
S214003C2003E0474B42F210721A8001F01FFE002399
S214003C30BB63FCF777FCB861434B1B68BB62B86993
S214003C40FCF774FC1FE0FCF76DFCB861BB6AD3F8A8
S214003C509820BB6AC3F89C20BB6A0022C3F8982051
S214003C60B869FCF763FCBB6AD3F89C30BA6B1344A4
S214003C70BB63FCF757FCB861BB6AD3F8B830BB62CD
S214003C80B869FCF753FCBB6A002BDCD1BB6B002B7E
S214003C9031D0BB6B264A934205D842F210733B6381
S214003CA001237B6321E0BB6B224A934205D84FF485
S214003CB07A733B630A237B6317E0BB6B1E4A93420F
S214003CC004D864233B6364237B630EE0BB6B1B4A10
S214003CD0934205D80A233B634FF47A737B6304E070
S214003CE001233B6342F210737B63BA6B7B6BB2FBC0
S214003CF0F3F3FB6203E000233B630123FB62FCF764
S214003D0011FCB861104B1B68BB62B869FCF70EFC6F
S214003D1051E000BF08370100D91E00201C37010003
S214003D20CDCCCCCCD01B0020C0210020AC21002064
S214003D307F1A0600FF083D00FF596202FF83D7176F
S214003D40D81F0020B61F0020C41F0020BB6AD3F86F
S214003D509C303A6B02FB03F2FB6AB2FBF3F3FB8781
S214003D60FB8F42F21072934202D942F21073FB8725
S214003D70BB6AFA8FA3F88820BB6AB3F88A30FA8F3A
S214003D809A4203D9BB6AFA8FA3F88A20BB6A03F16A
S214003D90AC01BB6A03F1A80207F10A03B86AFFF791
S214003DA05DF9FCF7BFFBB861BB6AD3F8B830BB62FD
S214003DB0B869FCF7BBFBBB6A002BC7D1104B1B785E
S214003DC0012B07D10E4B00221A7007F10A03184682
S214003DD0FFF77AFD02F01CF902467B69D31AFB60F6
S214003DE0084B1A68FB689A4202D2064AFB681360C0
S214003DF007F10A03F86900211A46FEF769FAAAE6EF
S214003E00D4210020CC1B002080B58CB00AAF78608F
S214003E10254B00221A60254B00221A60244B0022F4
S214003E201A60244B00221A70234B00221A70234B70
S214003E301B68002B04D17B6846F62B621A802FE0A5
S214003E401F4B1A681F4B1B689A4204D27B6846F6C3
S214003E502C621A8024E01C4B1B783E2B04D97B680E
S214003E6046F62A621A801BE0174B1878134B19681F
S214003E70164B1A68124B1B6800900191029203932E
S214003E80002304930023059300230693032307933C
S214003E907B6808930E480F490F4A0023FEF7DCFDA7
S214003EA00837BD4680BD00BFD01B0020C0210020C3
S214003EB0AC210020D91E0020D42100200C370100A0
S214003EC014370100183701000437010010370100CD
S214003ED0DC210020B4340100F13A000080B483B045
S214003EE000AF7860064B00221A60064B00221A804C
S214003EF07B6800221A800C37BD465DF8047B70474D
S214003F00DC1E00207021002080B483B000AF7860F3
S214003F10064B00221A60064B00221A807B6800229D
S214003F201A800C37BD465DF8047B70476C21002074
S214003F30B41F002080B483B000AF00237B6007E08E
S214003F40074A7B68002142F823107B6801337B60B8
S214003F507B68012BF4D90C37BD465DF8047B7047AF
S214003F60C822002080B582B000AF0023FB700E4B45
S214003F707B6005E0FB782033FB707B6804337B6056
S214003F807B681B68002BF5D07B681B681846FCF71F
S214003F90D4FA0346DAB2FB781344FB70FB78184673
S214003FA00837BD4680BD00BFC822002080B487B059
S214003FB000AF0346FB71FB795B09FB75FB7903F0E9
S214003FC01F033B610123FB603B69C3F11F031A46D5
S214003FD0FB689340FB60FB7DFA7D064951F8221092
S214003FE0FA680A43034941F823201C37BD465DF8AA
S214003FF0047B7047C822002080B487B000AF034619
S214004000FB71FB795B09FB75FB7903F01F033B61D2
S2140040100123FB603B69C3F11F031A46FB6893400C
S214004020FB60FB7DFA7D074951F82210FA68D243FF
S2140040300A40044941F823201C37BD465DF8047B3E
S214004040704700BFC822002080B586B000AFF86079
S214004050B9607A6000237B61FB68002B04D17B6823
S21400406045F6C3521A8029E0FCF75CFA7861FB68D3
S214004070144A1A60FB68BA685A60FB6800221A6223
S214004080FB6800225A62FB68002283F82820FB683F
S2140040900022DA62FB680833184601F089F8F868EF
S2140040A000F0E4F9084B1B8801339AB2064B1A80DD
S2140040B07869FCF73BFA7B6800221A801837BD4601
S2140040C080BD00BF4D555458D821002080B58EB015
S2140040D000AFF860B9603B601346FB8000237B634B
S2140040E0FB68002B04D13B6C45F6C3521A80E2E015
S2140040F0FB88002B07D0B3F5004F04D03B6C45F689
S21400410025621A80D7E000BFFB681B686B4A9342A3
S21400411004D03B6C45F6C4521A80CCE03B68002BBA
S21400412002D03B6800221A60FCF7FCF97863FB6853
S21400413093F82830002B1BD1614B1A68FB685A6233
S214004140FB68012283F828203B68002B03D0FB681D
S214004150DA6A3B681A605A4B1B681846F96800F022
S214004160C1F9786BFCF7E2F93B6C00221A80A2E0FA
S214004170FB685A6A524B1B689A4216D1FB6893F842
S21400418028300133DAB2FB6883F828203B68002B1E
S21400419003D0FB68DA6A3B681A60786BFCF7C6F9EE
S2140041A03B6C45F282721A8085E0FB881BB2002BBE
S2140041B007DA786BFCF7BAF93B6C46F2B0121A8055
S2140041C079E0404B1B78002B07D0786BFCF7AEF9F4
S2140041D03B6C46F663521A806DE0FB685B6A3B6395
S2140041E03B6B93F83720364B1B6893F837309A4270
S2140041F007D9334B1B6893F83730386B1946FFF7EF
S214004200C1FA07F110031846F9680422BB6800F0EB
S214004210CBFE786BFCF78AF900F074FDFCF782F9A8
S2140042207863274B1B6893F83530032B3BD801A2E5
S21400423052F823F0454200005D4200008D42000027
S214004240774200003B68002B04D01D4B1B689A6C1D
S2140042503B681A603B6C00221A8029E03B68002B02
S21400426004D0174B1B689A6C3B681A603B6C46F28E
S214004270A9121A801CE03B68002B02D03B68002283
S2140042801A603B6C47F2D9221A8011E03B68002B7B
S21400429004D00B4B1B689A6C3B681A603B6C45F667
S2140042A0C2521A8004E03B6C46F62E621A8000BFAB
S2140042B0786BFCF73BF93837BD4680BD4D555458F2
S2140042C0B01F0020C41B002080B58CB002AFF86081
S2140042D00B467A607B8100237B62FB68002B04D14F
S2140042E07B6845F6C3521A80B6E07B89002B07D060
S2140042F0B3F5004F04D07B6845F625621A80ABE024
S21400430000BFFB681B68564A934204D07B6845F69C
S214004310C4521A80A0E0FCF705F97862FB685A6A76
S214004320504B1B689A4207D0786AFCF7FFF87B6808
S21400433045F281721A808FE001F06AFE3862FB68EF
S2140043403A6ADA62FB6893F82830013BDAB2FB6817
S21400435083F82820FB6893F82830002B07D0786A6B
S214004360FCF7E4F87B6845F283721A8074E03D4BF4
S2140043701B681846F96800F0C7F8FB680833FB614D
S214004380FB691B89002B0DD1FB6800225A62FB6873
S214004390002283F82820786AFCF7C8F87B68002299
S2140043A01A8059E02F4B1B6893F837202D4B1B685B
S2140043B093F838309A422CD02A4B1B68184600F0E7
S2140043C0BFF80346FB76274B1B6893F83820FB7E26
S2140043D0934228BF1346FB76224B1B6893F8373070
S2140043E0FA7E9A4215D91F4B1B68184601F062F9EF
S2140043F01C4B1B68FA7E83F83720FB7E1846FFF7B7
S214004400D5FD184B1B68184601F014F9164AFB7EBA
S2140044101370FB691B689B687B61FB687A695A624C
S214004420FB68012283F828207869F96800F05AF8BA
S2140044303B6A0093F86879690022002300F0B0FF19
S214004440786AFCF773F87B891BB2002B01DB00F05F
S21400445059FC7B6800221A802837BD4680BD00BF05
S2140044604D555458B01F0020E41E002080B483B081
S21400447000AF78607B680E4ADA617B6800225A617A
S2140044800C4B1B68002B03D17B6800229A6107E067
S214004490084B1A687B689A61064B1B687A685A61F3
S2140044A0044A7B6813600C37BD465DF8047B704792
S2140044B0D0340100B022002080B483B000AF786012
S2140044C0064B00221A60064B00221A807B680022E8
S2140044D01A800C37BD465DF8047B7047B02200207A
S2140044E0D821002080B483B000AF786039607B6844
S2140044F0DA6B3B681A627B683A68DA630C37BD464B
S2140045005DF8047B704700BF80B485B000AF78606C
S21400451039607B683C33FB6003E0FB681B68203334
S214004520FB60FB681A683B689A42F6D1FB681B681A
S2140045301A6AFB681A601437BD465DF8047B70473C
S21400454080B487B000AF78603F23FB747B683C3351
S2140045507B6115E07B691B689B68FB60FB68002B32
S2140045600AD0FB689B6893F83730FB72FA7AFB7CBC
S2140045709A4201D2FB7AFB747B691B6820337B610D
S2140045807B691B68002BE5D1FB7C18461C37BD46B3
S2140045905DF8047B704700BF80B58AB002AF7860D4
S2140045A07B68DB6BFB6134E0FB691B6ABB6101F077
S2140045B02FFD7861FB697A69DA627868F969FFF736
S2140045C0A3FFFB6908333B613B691B89002B07D1BE
S2140045D0FB69002283F82820FB6900225A6216E055
S2140045E03B691B689B68FB60FB697A685A62FB69DB
S2140045F0012283F82820F868F969FFF773FF7B69C2
S2140046000093F869F9680022002300F0C9FEBB6930
S214004610FB61FB69002BC7D12037BD4680BD00BFBC
S21400462080B487B000AF78602E4B1B68002B04D197
S2140046307B6845F21E721A804EE02B4B1B88002BBF
S21400464004D17B6845F21D721A8045E0254B1B6835
S2140046507B61244B1B683B613B6910333B61224BFB
S2140046601B88013BBB810023FB8114E07B693A6910
S2140046701A607B6900225A607B6900221A817B6976
S2140046800022DA607B6910337B613B6910333B6143
S214004690FB890133FB81FA89BB899A42E6D37B69A1
S2140046A000221A607B6900225A607B6900221A8108
S2140046B07B690022DA600B4B1B680C4A13600A4BBE
S2140046C01A880A4B9A80094B0022DA80074B002290
S2140046D01A817B6800221A801C37BD465DF8047B71
S2140046E0704700BF00370100FC360100A020002004
S2140046F080B485B000AF78607B685B89FB817B689F
S2140047005B89002B26D07B681B68BB60154B1A683C
S214004710BB681A607B685B68124A1360114BDA88C4
S2140047207B685B89D31A9AB20E4BDA800D4B9A8857
S2140047307B685B8913449AB20A4B9A807B68002296
S2140047405A817B6800229A817B6800221A607B6807
S21400475000225A60FB8918461437BD465DF8047B74
S214004760704700BFA020002080B483B000AF786000
S2140047700B467B807B687A881A817B6800225A8188
S2140047807B6800229A817B6800221A607B68002280
S2140047905A600C37BD465DF8047B704780B483B022
S2140047A000AF7860064B00221A60064B00221A8083
S2140047B07B6800221A800C37BD465DF8047B704784
S2140047C074210020D621002080B483B000AF78602A
S2140047D0064B00221A60064B00221A807B680022D5
S2140047E01A800C37BD465DF8047B7047CC2100204C
S2140047F0C821002080B485B000AF474BFB60474B14
S214004800BB60474BFB60474BFB60474BBB60474B6F
S214004810FB60474B7B60474BFB60474BFB60474B5F
S214004820FB60474BFB60474B7B60474B7B60474BCF
S214004830FB60474B7B60474BFB60474B7B60474BBF
S214004840FB60474B7B60474B7B60474B7B60474B2F
S2140048507B60474BFB60474BFB60474BFB60474B1F
S2140048607B60474BFB60474BFB60474B7B60474B8F
S2140048707B60474B7B60474B7B60474B7B60474B7F
S2140048807B60474B7B60474BFB60474BFB60474B6F
S214004890FB60474BFB60474B7B60474B7B60474B5F
S2140048A07B60474BFB60474BFB60474BFB60474BCF
S2140048B07B60474B7B60474B7B60474BBB60474BFF
S2140048C07B60474BFB60474BFB60474BFB60474BAF
S2140048D0FB60474BFB60474BFB60474BFB60474B1F
S2140048E07B60474BFB60474BFB60474B7B60474B0F
S2140048F07B60474BFB60474BFB60474B7B60474BFF
S214004900FB60474BFB60474B7B60474B7B60143735
S214004910BD465DF8047B70477C350100E436010037
S2140049207D3501007E3501008035010084350100AB
S2140049308835010085350100B0350100B13501002C
S214004940B2350100B4350100B6350100B8350100B6
S214004950BC350100DC350100DE350100E035010024
S214004960E2350100E4350100E6350100E8350100D6
S21400497018360100193601001A3601001C360100EF
S2140049801E3601001F3601002036010022360100C7
S2140049902436010026360100283601002A3601009A
S2140049A02C3601005C3601005D3601005E360100E3
S2140049B05F36010060360100623601006436010091
S2140049C08C3601008D3601008E3601008F360100D0
S2140049D090360100923601009436010098360100A8
S2140049E0993601009A3601009B3601009C3601007C
S2140049F09D3601009E3601009F360100A03601005C
S214004A00A2360100A3360100A4360100A636010036
S214004A10A8360100A9360100AC360100DC360100DC
S214004A20DD360100DE360100E036010080B584B0D8
S214004A3000AF786000F0FEFE5A4B00221A705A4B08
S214004A4000221A70594B00221A70594B00221A6025
S214004A50584B00221A60584B00221A70574B0022FF
S214004A601A70574B00221A70564B00221A60564B8B
S214004A7000221A60554B00221A60554B1B68002B0B
S214004A8015D0544B1B68FB60FB68002B0FD0504BB7
S214004A901B68BB6008E0BB68013BBB60FB6800228C
S214004AA01A60FB680433FB60BB68002BF3D14A4BEB
S214004AB000221A60494B00221A60494B00221A60F5
S214004AC0484B00221A60484B00221A60474B0022CF
S214004AD01A60474B00221A60464B00221A70FFF7F6
S214004AE029FA00F025FD7868FFF76EFE7B681B88C4
S214004AF0002B00D053E07868FFF750FE7B681B88D9
S214004B00002B00D04BE07868FFF78AFD7B681B8897
S214004B10002B00D043E07868FFF7CEFC7B681B884C
S214004B20002B00D03BE07868FFF7EEF97B681B8827
S214004B30002B00D033E07868FFF7D0F97B681B883D
S214004B40002B00D02BE07868FEF776FB7B681B888E
S214004B50002B00D023E0786800F0F2F97B681B8811
S214004B60002B00D01BE07868FDF770FC7B681B8884
S214004B70002B00D013E07868FFF746F97B681B88A7
S214004B80002B00D00BE07868FDF73CFA7B681B88AA
S214004B90002B00D003E0FFF72DFE00F039FE1037A3
S214004BA0BD4680BDDA1F0020D51B0020C41B002098
S214004BB0B01F0020BC1F0020E41E0020D81E0020CE
S214004BC0B81F0020AC1F0020D0210020C01F0020EE
S214004BD0F8360100F4360100E01E0020CC1F00204D
S214004BE0C81B0020A8210020C4210020B4210020DA
S214004BF0D01F0020D41B002080B400AF094B1B78C8
S214004C00012B00D00AE0084B1B78F92B00D905E0F1
S214004C10054B1B780133DAB2034B1A70BD465DF8BC
S214004C20047B7047D51B0020DA1F002080B582B0B9
S214004C3000AF00237B602B4B1B78012B00D04DE090
S214004C40FBF770FC7860284B1B78002B03D1786844
S214004C50FBF76CFC42E0244B1B78013BDAB2224B9C
S214004C601A70214B1B78002B03D07868FBF75EFC8C
S214004C7034E01E4B1B78002B03D07868FBF756FCFD
S214004C802CE0FFF76FF903461A46194B1A70184BBB
S214004C901B781946174A0B465B000B449B001344CF
S214004CA01B68154A1360144B1A68144B1B689A420B
S214004CB003D17868FBF73AFC10E00F4B1B68D3F87B
S214004CC08C200132C3F88C200D4B1B6801330C4A34
S214004CD01360FBF7EFFB7868FBF728FC0837BD4648
S214004CE080BD00BFD51B0020DA1F0020C41B00209B
S214004CF0D81E0020D81B0020BC1F0020B01F00209C
S214004D00D41F002080B582B000AF00237B601F4B0D
S214004D101B78002B00D036E01D4B1B78002B00D0F4
S214004D2031E0FBF7FFFB7860FFF71CF903461A46F5
S214004D30184B1A70174B1B781946174A0B465B0020
S214004D400B449B0013441B68144A1360134B1A68E9
S214004D50134B1B689A4203D17868FBF7E7FB12E017
S214004D600E4B1B68D3F88C200132C3F88C200D4BF9
S214004D701B6801330B4A1360FBF798FB7868FBF758
S214004D80D5FBBFF36F8F0837BD4680BDDA1F002006
S214004D90C41B0020D81E0020D81B0020BC1F0020EB
S214004DA0B01F0020D41F002080B584B000AF78600C
S214004DB00023FB60124B1B78012B04D07B6845F662
S214004DC089621A8019E00F4B1B78F92B04D97B688F
S214004DD045F209221A8010E0FBF7A4FBF860094BA5
S214004DE01B780133DAB2074B1A7000F0B9FCF8688A
S214004DF0FBF79CFB7B6800221A801037BD4680BDFF
S214004E00D51B0020C41B002080B584B000AF78609E
S214004E100023FB60194B1B78012B04D07B6845F6FA
S214004E2089621A8027E0164B1B78002B04D17B681A
S214004E3046F664521A801EE0FBF774FBF860104BCF
S214004E401B78013BDAB20E4B1A700D4B1B78002B09
S214004E5007D0F868FBF76AFB7B6846F663521A8051
S214004E6009E000F08DFCF868FBF760FBFFF74AFFEF
S214004E707B6800221A801037BD4680BDD51B0020F7
S214004E80C41B002080B582B000AF7860174B1B783B
S214004E90002B23D1FFF766F803461A46144B1A7008
S214004EA0134B1A78134B1A70114B1B781946124A7B
S214004EB00B465B000B449B0013441B680F4A1360B1
S214004EC00E4B1B680E4A1360084B01221A70FBF744
S214004ED0B5FA7B6843F699221A8003E07B6845F6AC
S214004EE08A621A800837BD4680BD00BFD51B0020E9
S214004EF0D81E0020E41E0020D81B0020BC1F002067
S214004F00B01F002080B584B000AF78600023FB603F
S214004F10FBF708FBF860084B1B680133064A136072
S214004F20064B1B680133054A1360F868FBF7FEFA68
S214004F3000F074FCECE700BFBC210020D01B002072
S214004F4080B58CB00AAF7860104B00221A60104B08
S214004F501968104B1A68104B1B683F20009001918F
S214004F6002920393002304930023059300230693E1
S214004F700B2307937B68089308480949094A0023CE
S214004F80FDF76AFD0837BD4680BD00BFBC21002086
S214004F90E8360100EC360100F0360100AC200020B7
S214004FA0D4340100054F000080B586B000AFF8602D
S214004FB0B9603B601346FB711B4B1B68FA7983F89C
S214004FC03420194B1B68002283F83520164B1B68CB
S214004FD01846396800F0FEFBBB68002B11D0BB6892
S214004FE008337B61FB68BA68DA600F4B1B681846AB
S214004FF0F968012200F01AF87869F96800F0EAF812
S21400500008E0094B1B680022A3F84620064B1B68E5
S21400501000221A63044B1B68B868194600F03CF877
S2140050201837BD4680BD00BFB01F002080B487B0D3
S21400503000AFF860B9601346FB80FB68FA88A3F8F7
S2140050404620FB68BA681A630023FB821AE0BB6836
S21400505000225A60BB6800221A60BB6800221A61F0
S214005060BB6800225A61BB6800221A83BB68002214
S214005070DA61BB68FA689A60BB682033BB60FB8A5B
S2140050800133FB82FA8AFB889A42E0D31C37BD467E
S2140050905DF8047B704700BF80B487B000AF7860CF
S2140050A039607B68002B12D07B685A683B68C3F86F
S2140050B0BC207B6808337B617B691B683B613B696E
S2140050C09B68FB60FB681A6A7B68DA6116E03B68DF
S2140050D093F83430022B02D0072B05D009E03B684A
S2140050E0094AC3F8BC2009E03B68084AC3F8BC205C
S2140050F004E03B68064AC3F8BC2000BF1C37BD4628
S2140051005DF8047B704700BFE8340100F03401000E
S214005110FC34010080B487B000AF786039603B682B
S2140051200D4AC3F8BC207B6808337B617B691B682B
S2140051303B613B69002B07D03B699B68FB60FB68C3
S2140051401A6A7B68DA6102E07B68034ADA611C3718
S214005150BD465DF8047B7047FC34010080B586B020
S21400516000AF78607B681B6B3B617B68B3F84630AA
S214005170FB8217E03B69DB68FB60FB680833BB60BB
S214005180BB681B89012B07D9B868396900F0BEF8DF
S214005190B868396900F01EF83B6920333B61FB8A2A
S2140051A0013BFB82FB8A002BE4D11837BD4680BD4D
S2140051B080B483B000AF78607B6800221A607B689A
S2140051C000225A607B6800221A810C37BD465DF8C3
S2140051D0047B704780B489B000AF786039603B6864
S2140051E09B68BB61BB6993F83730FB757B681B898E
S2140051F0002B0FD17B6801221A813B6800225A607F
S2140052003B6800221A607B683A681A607B683A68D6
S2140052105A604CE07B681B8901339AB27B681A811E
S2140052207B681B68FB610CE0FB699B683B613B6924
S21400523093F83730FA7D9A4200D205E0FB695B6846
S214005240FB61FB69002BEFD1FB69002B0FD13B689C
S21400525000225A607B685B68FB603B68FA681A60ED
S214005260FB683A685A607B683A685A601FE0FB69D8
S2140052701B68002B0CD1FB693A681A603B68002259
S2140052801A603B68FA695A607B683A681A600EE0F2
S214005290FB691B68FB603B68FA681A603B68FA6942
S2140052A05A60FB683A685A60FB693A681A602437A5
S2140052B0BD465DF8047B704780B586B000AF786069
S2140052C07B681B6B3B617B68B3F84630FB820FE064
S2140052D03B69DB68FB60FB680833BB60B86839690C
S2140052E000F014F83B6920333B61FB8A013BFB82EC
S2140052F0FB8A002BECD17B680022A3F846207B6853
S21400530000221A631837BD4680BD00BF80B485B042
S21400531000AF786039607B681B89012B06D17B68FB
S21400532000221A607B6800225A6027E03B681B68F0
S214005330002B09D13B685B68FB60FB6800221A60A3
S2140053407B68FA681A6019E03B685B68002B09D135
S2140053503B681B68BB60BB6800225A607B68BA6803
S2140053605A600BE03B681B68BB603B685B68FB6091
S214005370BB68FA685A60FB68BA681A607B681B8963
S214005380013B9AB27B681A813B6800225A603B68F0
S21400539000221A601437BD465DF8047B704700BFD4
S2140053A090B587B002AFF860B9607A607B80BB6862
S2140053B093F83630072B00F2868001A252F823F0CD
S2140053C0C7540000C7540000E1530000E15300003A
S2140053D0C7540000C754000057540000575400003C
S2140053E0BB6893F83430032B09D17C883B6A009362
S2140053F0F868B9687A68234600F06AF809E0BB687E
S2140054007A689A65BB687A88A3F85C20BB683A6AB3
S2140054109A64FB68002B06D0B868FFF74DFFF86863
S214005420B968FFF777FEBB6893F83630032B02D1D6
S214005430B868FDF793F9B86800F09EF8BB680022DC
S21400544083F83620BB68002283F83520BB6800222C
S21400545083F8342038E0BB6893F83430032B09D146
S2140054607C883B6A0093F868B9687A68234600F03F
S2140054702FF809E0BB687A689A65BB687A88A3F853
S2140054805C20BB683A6A9A64FB68002B06D0B86852
S214005490FFF712FFF868B968FFF73CFEBB6893F8A1
S2140054A03630072B02D1B868FDF758F9BB680422DE
S2140054B083F83620BB68002283F83520BB680022BC
S2140054C083F8342000E000BF1437BD4690BD00BF0F
S2140054D080B487B000AFF860B9607A607B80BB6844
S2140054E01B6B3B61BB68B3F84630FB8217E03B6939
S2140054F0DA68FB689A420CD13B69FA681A613B6924
S2140055007A685A613B697A881A833B693A6ADA6133
S21400551008E03B6920333B61FB8A013BFB82FB8A48
S214005520002BE4D11C37BD465DF8047B704700BFF6
S21400553080B483B000AF0023FB7113E0FA79134602
S2140055405B0013449B000B4A13443B603B680022FD
S2140055501A813B6800221A603B6800225A60FB7979
S2140055600133FB71FB793F2BE8D90C37BD465DF85C
S214005570047B7047D81B002080B582B000AF7860EF
S2140055807B6893F837301846FEF710FD7B6893F873
S2140055903720074B1B789A4203D1786800F04AF808
S2140055A002E0786800F006F80837BD4680BD00BF08
S2140055B0E41E002080B485B000AF78607B6893F866
S2140055C037301A4613465B0013449B00184A1344B0
S2140055D0FB60FB681B89002B0FD1FB6801221A8138
S2140055E07B680022DA607B6800221A61FB687A68B2
S2140055F01A60FB687A685A6015E0FB681B890133FD
S2140056009AB2FB681A81FB681A687B68DA607B6866
S21400561000221A61FB681B68BB60BB687A681A6167
S214005620FB687A681A601437BD465DF8047B7047DD
S214005630D81B002080B485B000AF78607B6893F8F4
S21400564037301A4613465B0013449B00184A13442F
S214005650FB60FB681B89002B0FD1FB6801221A81B7
S2140056607B680022DA607B6800221A61FB687A6831
S2140056701A60FB687A685A6014E0FB681B8901337D
S2140056809AB2FB681A817B680022DA60FB685B6866
S214005690BB607B68BA681A61BB687A68DA60FB68C8
S2140056A07A685A601437BD465DF8047B704700BFC1
S2140056B0D81B002080B586B000AF78607B6893F872
S2140056C037301A4613465B0013449B00234A1344A4
S2140056D07B617B681B693B617B68DB68FB603B69C1
S2140056E0002B1FD1FB68002B0FD17B6900221A818B
S2140056F07B6900221A607B6900225A607B6893F8F7
S21400570037301846FEF778FC1FE07B691B89013BA3
S2140057109AB27B691A81FB6800221A617B69FA6873
S2140057201A6012E07B691B89013B9AB27B691A8179
S2140057303B69FA68DA60FB68002B03D17B693A693B
S2140057405A6002E0FB683A691A617B6800221A61B7
S2140057507B680022DA601837BD4680BDD81B002063
S21400576080B500AF044B1B78012B04D100F050FC31
S2140057700246024B1A6080BDC41B0020AC1F0020EE
S21400578080B582B000AF0F4B1B78002B16D100F00F
S2140057903FFC02460C4B1B68D31A7B600B4B1A6807
S2140057A07B689A4202D2094A7B681360084B1A68E3
S2140057B07B689A4202D2064A7B6813600837BD4669
S2140057C080BD00BFC41B0020AC1F0020D0210020DD
S2140057D0C01F002080B582B000AF786039603B689B
S2140057E0002B09D0094879683A68FCF79BFE7B686D
S2140057F0032283F8362003E07B68022283F83620F3
S2140058007868FFF757FF0837BD4680BDC0220020E6
S21400581080B400AFBD465DF8047B704780B500AF2E
S214005820034B1B68002B02D0014B1B68984780BDBA
S214005830A821002080B400AF094B1A68094B1B68EA
S2140058409B001344084A1360074B1B6823F00703AA
S2140058501A46054B1A60BD465DF8047B704700BFCC
S214005860F4360100F83601005030002080B500AF55
S214005870034B1B68002B02D0014B1B68984780BD6A
S214005880C421002080B582B000AF7860054B1B684D
S214005890002B03D0034B1B68786898470837BD4633
S2140058A080BD00BFE01E002080B582B000AF7860EB
S2140058B0054B1B68002B03D0034B1B687868984782
