S02200005333324B3134345F41637469766542616C616E6365363450696E2E7372656374
S21400000000700020510500009105000091050000D9
S2140000109105000091050000910500000000000019
S2140000200000000000000000000000009105000035
S2140000309105000000000000BD040000156C0000E3
S214000040617701006D7701007977010085770100FF
S214000050917701009D770100A9770100B57701002F
S214000060C1770100CD770100D9770100E57701005F
S214000070F1770100FD77010009780100157801008D
S214000080217801009105000091050000910500000F
S2140000909105000091050000910500009105000003
S2140000A0C9230100D5230100911801009D18010005
S2140000B0A9180100910500009105000091050000B7
S2140000C091050000910500009105000091050000D3
S2140000D091050000910500009105000091050000C3
S2140000E091050000910500009105000091050000B3
S2140000F091050000910500009105000091050000A3
S2140001009105000091050000910500009105000092
S2140001109105000091050000910500009105000082
S2140001209105000091050000910500009105000072
S2140001309105000091050000910500009105000062
S2140001409105000091050000910500009105000052
S2140001509105000091050000910500009105000042
S2140001609105000091050000910500009105000032
S2140001709105000091050000B5570100C157010028
S214000180CD570100D9570100E55701009105000041
S21400019091050000F1570100FD5701009105000090
S2140001A00958010091050000910500009105000026
S2140001B01558010021580100910500002D58010036
S2140001C09105000091050000910500006D4A0100B0
S2140001D07D4A01008D4A01009D4A010091050000FC
S2140001E091050000AD4A0100BD4A0100CD4A01005C
S2140001F0DD4A01009105000091050000ED4A01006E
S214000200FD4A01000D4B01001D4B01009105000049
S214000210910500002D4B01003D4B01004D4B0100A8
S2140002205D4B01009105000091050000910500005E
S2140002309105000091050000910500009105000061
S2140002409105000091050000910500009105000051
S2140002509105000091050000910500009105000041
S2140002609105000091050000910500009105000031
S2140002709105000091050000910500009105000021
S2140002809105000091050000910500009105000011
S2140002909105000091050000910500009105000001
S2140002A091050000910500009105000091050000F1
S2140002B091050000910500009105000091050000E1
S2140002C091050000910500009105000091050000D1
S2140002D091050000910500009105000091050000C1
S2140002E091050000910500009105000091050000B1
S2140002F091050000910500009105000091050000A1
S2140003009105000091050000910500009105000090
S2140003109105000091050000910500009105000080
S2140003209105000091050000910500009105000070
S2140003309105000091050000910500009105000060
S2140003409105000091050000910500009105000050
S2140003509105000091050000910500009105000040
S2140003609105000091050000910500009105000030
S2140003709105000091050000910500009105000020
S2140003809105000091050000910500009105000010
S2140003909105000091050000910500009105000000
S2140003A091050000910500009105000091050000F0
S2140003B091050000910500009105000091050000E0
S2140003C091050000910500009105000091050000D0
S2140003D091050000910500009105000091050000C0
S2140003E091050000910500009105000091050000B0
S2140003F0910500009105000091050000FFFFFFFF3A
S214000400FFFFFFFFFFFFFFFFFFFFFFFFFE7FFFFF78
S214000410EFF3098141B1F1EE101A40F8041D20ED0A
S214000420200A3A490A6810607047B0EC200A02C8F1
S214000430E1EE101A36490A681060704772B64EF63A
S2140004402250CEF2000040F2FF01C0F2000101701F
S21400045043F2A870C2F20000016881F3088842F2F5
S2140004603C60C2F2000042F23061C2F200010A783B
S214000470027042F20875C2F2000542F21471C2F22E
S21400048000010A682A60106880F30988EFF3148078
S21400049040F0020080F31488BFF36F8FBDE8F00FC2
S2140004A00FBCBDE8005006BC62B6084719481A499A
S2140004B001607047174818490160704772B6EFF33D
S2140004C0098020E9F00F42F20875C2F200052E6896
S2140004D03060744606F02AFB42F23C60C2F200002E
S2140004E042F23061C2F200010A78027042F21471E0
S2140004F0C2F200010A682A6044F0F40E1068B0E800
S214000500F00F80F3098862B67047000008270020C5
S2140005101427002004ED00E00000001072B67047BB
S21400052062B67047EFF3108072B6704780F310889B
S214000530704730BF704720BF7047B0FA80F07047F2
S21400054090FAA0F0B0FA80F0704790FAA0F07047EA
S21400055072B60B490A4A0A4B094C094D084E084F19
S214000560B846B946BA46BB46BC460648854606481F
S21400057080470648804762B600F03EFFFEE7000070
S2140005800000000000700020A9B10100B5B0010015
S214000590FFF7FEBF81F0004102E000BF83F000439A
S2140005A030B54FEA41044FEA430594EA050F08BF09
S2140005B090EA020F1FBF54EA000C55EA020C7FEACD
S2140005C0645C7FEA655C00F0E2804FEA5454D4EB4A
S2140005D05555B8BF6D420CDD2C4480EA020281EA14
S2140005E0030382EA000083EA010180EA020281EA4C
S2140005F00303362D88BF30BD11F0004F4FEA01319E
S2140006004FF4801C4CEA113102D0404261EB4101AC
S21400061013F0004F4FEA03334CEA133302D0524232
S21400062063EB430394EA050F00F0A780A4F10104EE
S214000630D5F1200E0DDB02FA0EFC22FA05F2801828
S21400064041F1000103FA0EF2801843FA05F359410E
S2140006500EE0A5F120050EF1200E012A03FA0EFC8D
S21400066028BF4CF0020C43FA05F3C01851EBE371B7
S21400067001F0004507D54FF0000EDCF1000C7EEBD4
S21400068000006EEB0101B1F5801F1BD3B1F5001F12
S2140006900CD349085FEA30004FEA3C0C04F1010431
S2140006A04FEA445212F5800F80F09A80BCF1004F5A
S2140006B008BF5FEA500C50F1000041EB045141EADC
S2140006C0050130BD5FEA4C0C404141EB010111F4DD
S2140006D0801FA4F10104E9D191F0000F04BF014688
S2140006E00020B1FA81F308BF2033A3F10B03B3F166
S2140006F020020CDA0C3208DD02F1140CC2F10C02F6
S21400070001FA0CF021FA02F10CE002F11402D8BF53
S214000710C2F1200C01FA02F120FA0CFCDCBF41EA1F
S2140007200C019040E41AA2BF01EB0451294330BDEE
S2140007306FEA04041F3C1CDA0C340EDC04F11404CB
S214000740C4F1200220FA04F001FA02F340EA0300A2
S21400075021FA04F345EA030130BDC4F10C04C4F1E8
S214000760200220FA02F001FA04F340EA03002946C8
S21400077030BD21FA04F0294630BD94F0000F83F412
S214000780801306BF81F480110134013D4EE77FEAF5
S214000790645C18BF7FEA655C29D094EA050F08BF41
S2140007A090EA020F05D054EA000C04BF1946104622
S2140007B030BD91EA030F1EBF0021002030BD5FEA66
S2140007C0545C05D14000494128BF41F0004130BD8E
S2140007D014F580043CBF01F5801130BD01F00045E2
S2140007E045F0FE4141F470014FF0000030BD7FEA55
S2140007F0645C1ABF194610467FEA655C1CBF0B4650
S214000800024650EA013406BF52EA033591EA030F66
S21400081041F4002130BD00BF90F0000F04BF00215E
S214000820704730B54FF4806404F132044FF0000591
S2140008304FF0000150E700BF90F0000F04BF00210A
S214000840704730B54FF4806404F1320410F0004570
S21400085048BF40424FF000013EE700BF42004FEA6B
S214000860E2014FEA31014FEA02701FBF12F07F43E8
S21400087093F07F4F81F06051704792F0000F14BFE5
S21400088093F07F4F704730B54FF4607401F0004529
S21400089021F0004120E700BF50EA010208BF704780
S2140008A030B54FF000050AE050EA010208BF704775
S2140008B030B511F0004502D5404261EB41014FF4DE
S2140008C0806404F132045FEA915C3FF4DCAE4FF0E2
S2140008D003025FEADC0C18BF03325FEADC0C18BFC9
S2140008E0033202EBDC02C2F1200300FA03FC20FA1A
S2140008F002F001FA03FE40EA0E0021FA02F1144467
S214000900C1E600BF70B54FF0FF0C4CF4E06C1CEA7B
S21400091011541DBF1CEA135594EA0C0F95EA0C0FF0
S21400092000F0DEF82C4481EA030621EA4C5123EA63
S2140009304C5350EA013518BF52EA033541F4801192
S21400094043F4801338D0A0FB02CE4FF00005E1FB45
S21400095002E506F00042E0FB03E54FF00006E1FB8F
S21400096003569CF0000F18BF4EF0010EA4F1FF04D2
S214000970B6F5007F64F5407404D25FEA4E0E6D4112
S21400098046EB060642EAC62141EA55514FEAC52023
S21400099040EA5E504FEACE2EB4F1FD0C88BFBCF59F
S2140009A0E06F1ED8BEF1004F08BF5FEA500E50F150
S2140009B0000041EB045170BD06F0004646EA010116
S2140009C040EA020081EA0301B4EB5C04C2BFD4EB48
S2140009D00C0541EA045170BD41F480114FF0000E41
S2140009E0013C00F3AB8014F1360FDEBF002001F0AF
S2140009F0004170BDC4F10004203C35DA0C341BDC29
S214000A0004F11404C4F1200500FA05F320FA04F0FA
S214000A1001FA05F240EA020001F0004221F000412E
S214000A2010EBD37021FA04F642EB06015EEA430EA1
S214000A3008BF20EAD37070BDC4F10C04C4F12005D1
S214000A4000FA04F320FA05F001FA04F240EA020084
S214000A5001F0004110EBD37041F100015EEA430E55
S214000A6008BF20EAD37070BDC4F1200500FA05F275
S214000A704EEA020E20FA04F301FA05F243EA0203F4
S214000A8021FA04F001F0004121FA04F220EA020003
S214000A9000EBD3705EEA430E08BF20EAD37070BD49
S214000AA094F0000F0FD101F00046400041EB010129
S214000AB011F4801F08BF013CF7D041EA060195F00B
S214000AC0000F18BF704703F00046520043EB0303C5
S214000AD013F4801F08BF013DF7D043EA06037047B2
S214000AE094EA0C0F0CEA135518BF95EA0C0F0CD0BD
S214000AF050EA410618BF52EA4306D1D181EA030103
S214000B0001F000414FF0000070BD50EA410606BFFC
S214000B101046194652EA430619D094EA0C0F02D141
S214000B2050EA013613D195EA0C0F05D152EA033686
S214000B301CBF104619460AD181EA030101F00041A4
S214000B4041F0FE4141F470014FF0000070BD41F0ED
S214000B50FE4141F4780170BD70B54FF0FF0C4CF4C7
S214000B60E06C1CEA11541DBF1CEA135594EA0C0FE6
S214000B7095EA0C0F00F0A7F8A4EB050481EA030E33
S214000B8052EA03354FEA013100F088804FEA03331A
S214000B904FF0805545EA131343EA12634FEA0222E8
S214000BA045EA111545EA10654FEA00260EF00041A9
S214000BB09D4208BF964244F1FD0404F5407402D2FB
S214000BC05B084FEA3202B61A65EB03055B084FEA8C
S214000BD032024FF480104FF4002CB6EB020E75EB89
S214000BE0030E22BFB61A754640EA0C005B084FEAB1
S214000BF03202B6EB020E75EB030E22BFB61A75462E
S214000C0040EA5C005B084FEA3202B6EB020E75EB78
S214000C10030E22BFB61A754640EA9C005B084FEAF0
S214000C203202B6EB020E75EB030E22BFB61A7546FD
S214000C3040EADC0055EA060E18D04FEA051545EAEC
S214000C4016754FEA06164FEAC30343EA52734FEA95
S214000C50C2025FEA1C1CC0D111F4801F0BD141EA0E
S214000C6000014FF000004FF0004CB6E711F4801F73
S214000C7004BF01430020B4F1FD0C88BFBCF5E06F53
S214000C803FF6AFAEB5EB030C04BFB6EB020C5FEA63
S214000C90500C50F1000041EB045170BD0EF0004EB8
S214000CA04EEA113114EB5C04C2BFD4EB0C0541EAEA
S214000CB0045170BD41F480114FF0000E013C90E6E7
S214000CC045EA060E8DE60CEA135594EA0C0F08BFAB
S214000CD095EA0C0F3FF43BAF94EA0C0F0AD150EAAA
S214000CE001347FF434AF95EA0C0F7FF425AF10463D
S214000CF019462CE795EA0C0F06D152EA03353FF465
S214000D00FDAE1046194622E750EA410618BF52EAE1
S214000D1043067FF4C5AE50EA41047FF40DAF52EAB5
S214000D2043057FF4EBAE12E74FEA4102B2F1E0432F
S214000D3024BFB3F5001CDCF1FE5C0DD901F0004CBD
S214000D404FEAC0024CEA5070B2F1004F40EB83000D
S214000D5008BF20F00100704711F0804F21D113F139
S214000D603872BCBF01F00040704741F480114FEA72
S214000D705252C2F11802C2F1200C10FA0CF320FAFB
S214000D8002F018BF40F001004FEAC1234FEAD32318
S214000D9003FA0CFC40EA0C0023FA02F34FEA430382
S214000DA0CCE77FEA625307D150EA01331EBF4FF00B
S214000DB0FE4040F44000704701F0004040F0FE4026
S214000DC040F40000704700BF53B94AB9002908BF75
S214000DD000281CBF4FF0FF314FF0FF3000F03CB84A
S214000DE082B0EC462DE9005000F01EF8DDF804E075
S214000DF002B00CBC704700BF2DE9F041069C1546BA
S214000E0006460F46984600F029F805FB01F300FB5E
S214000E100838A5FB0023B21A434467EB0303C4E972
S214000E200023BDE8F08100BF2DE9F041069C904606
S214000E3006460F461D4600F05FF900FB05F5A0FBD1
S214000E40082308FB0155B21A2B4467EB0303C4E9D9
S214000E500023BDE8F08100BF704700BF00292DE9E0
S214000E60F043C0F2A6800026002BC0F29C80884685
S214000E7094469E46154604460F46002B3DD18A42B0
S214000E8059D9B2FA82F33BB1C3F120029F4020FA4F
S214000E9002F29D4017439C40290C220CB7FBF1FE42
S214000EA0A8B201FB1E7742EA074700FB0EF3BB42DF
S214000EB00AD97F190EF1FF3280F00581BB4240F25D
S214000EC00281AEF1020E2F44FF1AA4B2B7FBF1F373
S214000ED001FB137744EA074700FB03F0B84208D942
S214000EE07F1903F1FF3280F0F080B84240F2ED80C7
S214000EF0023B43EA0E43002203E08B420FD9002256
S214000F001346341C18BF012460424FF0000565EB01
S214000F1045015840514000196941BDE8F083B3FAD5
S214000F2083F2002A40F086808B4202D3844500F28A
S214000F30DB800123E5E712B90123B3FBF2F5B5FA2E
S214000F4085F000283BD1781B4FEA154E1FFA85FC2A
S214000F500122B0FBFEF8210C0EFB180741EA0747FA
S214000F600CFB08F3BB4207D97F1908F1FF3102D208
S214000F70BB4200F2BD808846FF1AA4B2B7FBFEF360
S214000F800EFB137744EA07470CFB03FCBC4507D966
S214000F907F1903F1FF3102D2BC4500F2A7800B4651
S214000FA043EA0843ADE752426FEA060663EB4303A3
S214000FB05DE7404261EB41014FF0FF3654E7C0F178
S214000FC0200224FA02F107FA00F385404FEA154E94
S214000FD0D7401943B7FBFEF20B0C0EFB12771FFA35
S214000FE085FC43EA07430CFB02F79F4204FA00F431
S214000FF007D95B1902F1FF3074D29F4272D9023AC8
S2140010002B44DF1B89B2B7FBFEF80EFB187341EAD0
S21400101003430CFB08F79F4208D95B1908F1FF3120
S2140010205CD29F425AD9A8F102082B44D81B48EA42
S21400103002428EE7C2F120032CFA03F10EFA02FEFA
S21400104020FA03F741EA0E0E08FA02F028FA03F136
S2140010504FEA1E453843B1FBF5F8030C05FB1811A3
S2140010601FFA8EF743EA014107FB08F38B420CFA9E
S21400107002FC09D911EB0E0108F1FF3930D28B4280
S2140010802ED9A8F102087144C91A80B2B1FBF5F353
S21400109005FB131140EA014107FB03F78F4208D90D
S2140010A011EB0E0103F1FF3016D28F4214D9023B2A
S2140010B0714443EA0843C91BA3FB0C89494509D37D
S2140010C005D000221DE79646FEE6134611E794403B
S2140010D04445F6D2013BF4E70346EAE78846A5E72F
S2140010E0C846D1E702468CE713460AE7023B57E7B5
S2140010F0A8F102082F443FE72DE9F041002B44D128
S2140011008A42154604464FD9B2FA82F70E464FB1C8
S214001110C7F12003B94020FA03F602FA07F50E439A
S21400112000FA07F44FEA154E230CB6FBFEF0AFB2FA
S2140011300EFB106143EA014307FB00F1994209D90F
S2140011405B1900F1FF3280F0EC80994240F2E980B2
S21400115002382B445A1AA4B2B2FBFEF30EFB13223B
S21400116044EA024207FB03F7974208D9521903F1F3
S214001170FF3180F0D880974240F2D580023B43EAA8
S214001180004000263146BDE8F0818B4247D8B3FACE
S21400119083F6002E48D18B4202D3824200F2CD80E5
S2140011A001203146BDE8F08112B90125B5FBF2F504
S2140011B0B5FA85F8B8F1000F77D14A1B4FEA154EFD
S2140011C0AFB20126B2FBFEF0230C0EFB102143EA61
S2140011D0014107FB00F38B4207D9491900F1FF32A2
S2140011E002D28B4200F2BA801046C91AA4B2B1FBF2
S2140011F0FEF30EFB131144EA014407FB03F7A74274
S21400120008D9641903F1FF3280F08F80A74240F2BC
S2140012108C80023B43EA00403146BDE8F081002660
S21400122030463146BDE8F081C6F1200422FA04F5C6
S214001230B3402B4320FA04FC01FA06F721FA04F522
S2140012404FEA134E4CEA0707B5FBFEF8390C0EFBC7
S21400125018551FFA83FC41EA05450CFB08F1A94224
S21400126002FA06F204D9ED1808F1FF3467D3A04657
S2140012706D1ABFB2B5FBFEF40EFB145547EA0541E6
S2140012800CFB04FC8C4504D9C91804F1FF355CD36B
S2140012902C4644EA0844CCEB0101A4FB0223994205
S2140012A048D344D0204600266CE7C8F1200401FA53
S2140012B008F305FA08F520FA04F7E1404FEA154E60
S2140012C01F43B1FBFEF63A0C0EFB16111FFA85FC07
S2140012D042EA01430CFB06F29A4200FA08F407D9E8
S2140012E05B1906F1FF3137D29A4235D9023E2B44BC
S2140012F09B1ABFB2B3FBFEF00EFB103347EA034364
S2140013000CFB00F1994207D95B1900F1FF3221D29C
S21400131099421FD902382B445A1A40EA06466746B5
S21400132050E7104616E70B4629E7134672E7B0402B
S2140013309042B7D2601E002624E7304622E7A94234
S21400134095D9A8F102081D4492E78C45A0D9023C25
S21400135019449EE71046DFE70E46C9E702382944DF
S21400136043E700BF80B483B000AF0346FB71FB7950
S214001370002B02D0012B07D00DE0094A084B5B6B0F
S21400138043F40033536306E0064A064B5B6B43F4B4
S2140013900033536300BF0C37BD465DF8047B7047CF
S2140013A0004002400050024080B485B000AF0346C3
S2140013B0FB710023FB73FB79012B08D0022B0AD0AC
S2140013C0002B00D00BE0094BDB69FB7307E0084BF2
S2140013D0DB69FB7303E0074BDB69FB7300BFFB7B3A
S2140013E018461437BD465DF8047B704700A00640DB
S2140013F000B0064000C0064080B58CB00AAF12F0C0
S21400140031FB05F09BFE12F017FB0BF0F3FA0BF026
S214001410BFFB0CF039F8BB1D184604F097FA022300
S2140014200093224B01930C230293802303930523FE
S2140014300493002305930023069303230793BB1D01
S21400144008931B481B491C4A002302F0A5F8BB1D45
S214001450184604F0A7FC194B1B685A1C17490A606B
S21400146042F21072934217D1154B009300200921C7
S214001470144A154B15F0CEFB144B1B8864339AB2F6
S214001480124B1A80114B1B8841F2707293420CD992
S2140014900E4B00221A80DEE7084B1B6844F61F62DC
S2140014A0934202D9054B00221A60D4E75820002048
S2140014B0540E0020F0B20100D114000008000020F5
S2140014C00C000020585100203412FF180284FF1F21
S2140014D080B58EB00AAF786005F0B0FC05F05AFE15
S2140014E04DF6C023FB60F86805F0AEFB05F0D6FBB2
S2140014F007F10A03184603F01DF807F10A036048CF
S2140015000021002203F08AFA032300935D4B019327
S214001510192302934FF48073039305230493002347
S2140015200593002306930323079307F10A03089302
S21400153055485649564A002302F02EF804230093D5
S214001540544B0193192302934FF48073039305239E
S214001550049300230593002306930323079307F1C0
S2140015600A0308934C484D494D4A002302F014F8EC
S214001570062300934B4B0193192302934FF4807379
S2140015800393052304930023059300230693032364
S214001590079307F10A03089343484049434A002348
S2140015A001F0FAFF05230093414B01930C230293AD
S2140015B080230393052304930023059300230693B7
S2140015C00323079307F10A0308933A4833493A4A34
S2140015D0002301F0E1FF07230093384B01930C230F
S2140015E0029380230393052304930023059300238B
S2140015F006930323079307F10A0308933048234909
S214001600304A002301F0C8FF082300932E4B0193B5
S214001610192302934FF48073039305230493002346
S2140016200593002306930323079307F10A03089301
S21400163026481649264A002301F0AEFF09230093E8
S214001640244B01930C2302938023039305230493D6
S21400165000230593002306930323079307F10A0349
S21400166008931D4809491D4A002301F095FF07F11C
S2140016700A031B48194602F083F81037BD4680BDA2
S214001680001000208C170020901B002000B30100E3
S214001690312A0000540A0020B411002010B30100C3
S2140016A0E5160000900300205C2200202D26000096
S2140016B050080020F0100020DD1700008C130020DA
S2140016C0741200209D170000501C00209007002078
S2140016D0152A00008C150020301000204917000045
S2140016E0540E002080B584B000AF786007F10E037A
S2140016F0282000211A4601F08BFB09F0F1FA09F0C8
S214001700F9FA0E4B1B88B3F5166F16D90B4B1B88D0
S21400171040F62722934210D8094B1B78012B0CD198
S214001720084BDB8840F62722934206D8054BDB8819
S214001730B3F5166F01D909F0EDFBD7E7904400200A
S2140017405A480020D84F002080B584B000AF78609B
S2140017500023FB7307F10C034FF4FA7000211A46BE
S21400176001F056FBFB7B002B02D0012B08D00FE0CC
S21400177009480B2101220DF0CBFF0123FB730AE081
S21400178005480B2100220DF0C3FF0023FB7302E087
S2140017900023FB7300BFDDE700F10F4080B598B073
S2140017A002AF786007F1560300930A480021002232
S2140017B0002303F06FF907F10803184609F010F844
S2140017C0054806F067FA044800214C2219F043FD4C
S2140017D0E8E700BF001000206451002080B58AB002
S2140017E000AF7860002387F82730002387F826307C
S2140017F0002387F8253007F12203642000211A46CB
S21400180001F006FB97F82630013387F8263097F864
S21400181026300A2B40F090804B4B1B7843F04163F8
S21400182043F48243BB6108233B7597F825305A1C66
S21400183087F825203B73454B5B78DBB203F03F030C
S214001840DAB2424B1B799B01DBB21343DBB2DBB24D
S2140018507B733E4BDB79BB733C4B9B78DBB203F070
S2140018603F03DAB2394B5B799B01DBB21343DBB241
S214001870DBB2FB73354B1B7A3B74354B1B787B74A2
S214001880344B1A79334B1B7AC3F30003DBB25B008D
S214001890DBB21344DAB22F4B1B7AC3F34003DBB23E
S2140018A09B00DBB21344DAB22A4B1B7AC3F38003E5
S2140018B0DBB2DB00DBB21344DAB2264B9B791B01AA
S2140018C0DBB21344DBB2BB74204B9B7ADBB203F073
S2140018D00103DAB21D4BDB7A03F003035B00DBB2D5
S2140018E01343DAB2194B1B7B03F00303DB00DBB2B6
S2140018F01343DAB2154B5B7B03F003035B01DBB2E9
S2140019001343DBB2DBB2FB74002387F8273000BF3B
S21400191000200C2115F072FB0346002B06D097F82A
S21400192027305A1C87F82720C72BF1D907F10C035C
S21400193018460C2106F056F997F82630092B02D9DE
S214001940002387F8263056E7085000202C49002050
S21400195054490020D04E002084B0F0B589B004AFC2
S214001960044607F12C0080E80E002346FB71002396
S214001970FB73BA4B1B781A46B94B1343BB63082359
S21400198087F83430FB79413B152B00F2338601A2F1
S21400199052F823F0ED190000891A0000251B0000FC
S2140019A0C11B0000651C0000F51C0000851D000022
S2140019B02B1E0000D11E0000771F00001D20000017
S2140019C0C320000039210000AF21000025220000BE
S2140019D09B220000092300008F2300001D24000026
S2140019E0AB2400003925000097250000FB7987F816
S2140019F02C304FF0A0531B8A9BB2DBB287F82D30F9
S214001A004FF0A0531B8A9BB21B0A9BB2DBB287F82F
S214001A102E304FF0A0535B8A9BB2DBB287F82F3094
S214001A204FF0A0535B8A9BB21B0A9BB2DBB287F8CF
S214001A3030304FF0A0539B8A9BB2DBB287F8313030
S214001A404FF0A0539B8A9BB21B0A9BB2DBB287F86F
S214001A50323097F82C0097F82D6097F82E5097F8AC
S214001A602F4097F8301097F8312097F832300091D1
S214001A700192029331462A46234608F01DFE03468D
S214001A8087F8333000F0B7BDFB7987F82C304FF07D
S214001A90A0531B8B9BB2DBB287F82D304FF0A053C0
S214001AA01B8B9BB21B0A9BB2DBB287F82E304FF023
S214001AB0A0535B8B9BB2DBB287F82F304FF0A0535E
S214001AC05B8B9BB21B0A9BB2DBB287F830304FF0C1
S214001AD0A0539B8B9BB2DBB287F831304FF0A053FC
S214001AE09B8B9BB21B0A9BB2DBB287F8323097F80F
S214001AF02C0097F82D6097F82E5097F82F4097F8FF
S214001B00301097F8312097F8323000910192029306
S214001B1031462A46234608F0CFFD034687F8333081
S214001B2000F069BDFB7987F82C304FF0A0531B8C72
S214001B309BB2DBB287F82D304FF0A0531B8C9BB2C4
S214001B401B0A9BB2DBB287F82E304FF0A0535B8C9B
S214001B509BB2DBB287F82F304FF0A0535B8C9BB262
S214001B601B0A9BB2DBB287F830304FF0A0539B8C39
S214001B709BB2DBB287F831304FF0A0539B8C9BB200
S214001B801B0A9BB2DBB287F8323097F82C0097F826
S214001B902D6097F82E5097F82F4097F8301097F84A
S214001BA0312097F8323000910192029331462A464E
S214001BB0234608F081FD034687F8333000F01BBD4E
S214001BC0FB7987F82C304FF0A0531B8D9BB2DBB20D
S214001BD087F82D304FF0A0531B8D9BB21B0A9BB28B
S214001BE0DBB287F82E304FF0A0535B8D9BB2DBB292
S214001BF087F82F304FF0A0535B8D9BB21B0A9BB229
S214001C00DBB287F830304FF0A0539B8D9BB2DBB22F
S214001C1087F831304FF0A0539B8D9BB21B0A9BB2C6
S214001C20DBB287F8323097F82C0097F82D6097F8DB
S214001C302E5097F82F4097F8301097F8312097F8E5
S214001C40323000910192029331462A46234608F02C
S214001C5033FD034687F8333000F0CDBC0850002033
S214001C60007F210CFB7987F82C304FF0A05393F8B7
S214001C703030DBB287F82D304FF0A05393F8313078
S214001C80DBB287F82E304FF0A05393F83230DBB239
S214001C9087F82F304FF0A05393F83430DBB287F834
S214001CA030304FF0A05393F83530DBB287F8313040
S214001CB04FF0A05393F83630DBB287F8323097F8FF
S214001CC02C0097F82D6097F82E5097F82F4097F82D
S214001CD0301097F8312097F8323000910192029335
S214001CE031462A46234608F0E7FC034687F8333099
S214001CF000F081BCFB7987F82C304FF0A05393F8A6
S214001D003830DBB287F82D304FF0A05393F83930D7
S214001D10DBB287F82E304FF0A05393F83A30DBB2A0
S214001D2087F82F304FF0A05393F83C30DBB287F89B
S214001D3030304FF0A05393F83D30DBB287F83130A7
S214001D404FF0A05393F83E30DBB287F8323097F866
S214001D502C0097F82D6097F82E5097F82F4097F89C
S214001D60301097F8312097F83230009101920293A4
S214001D7031462A46234608F09FFC034687F8333050
S214001D8000F039BCFB7987F82C304FF0A053B3F83D
S214001D9040309BB2DBB287F82D304FF0A053B3F83B
S214001DA040309BB21B0A9BB2DBB287F82E304FF056
S214001DB0A053B3F842309BB2DBB287F82F304FF017
S214001DC0A053B3F842309BB21B0A9BB2DBB287F833
S214001DD030304FF0A053B3F844309BB2DBB287F8F4
S214001DE031304FF0A053B3F844309BB21B0A9BB27D
S214001DF0DBB287F8323097F82C0097F82D6097F80A
S214001E002E5097F82F4097F8301097F8312097F813
S214001E10323000910192029331462A46234608F05A
S214001E204BFC034687F83330E5E3FB7987F82C3024
S214001E304FF0A053B3F848309BB2DBB287F82D3092
S214001E404FF0A053B3F848309BB21B0A9BB2DBB2EC
S214001E5087F82E304FF0A053B3F84A309BB2DBB26F
S214001E6087F82F304FF0A053B3F84A309BB21B0AC6
S214001E709BB2DBB287F830304FF0A053B3F84C304B
S214001E809BB2DBB287F831304FF0A053B3F84C303A
S214001E909BB21B0A9BB2DBB287F8323097F82C0055
S214001EA097F82D6097F82E5097F82F4097F8301037
S214001EB097F8312097F8323000910192029331461C
S214001EC02A46234608F0F8FB034687F8333092E3A9
S214001ED0FB7987F82C304FF0A053B3F850309BB204
S214001EE0DBB287F82D304FF0A053B3F850309BB2DA
S214001EF01B0A9BB2DBB287F82E304FF0A053B3F824
S214001F0052309BB2DBB287F82F304FF0A053B3F8B5
S214001F1052309BB21B0A9BB2DBB287F830304FF0D0
S214001F20A053B3F854309BB2DBB287F831304FF091
S214001F30A053B3F854309BB21B0A9BB2DBB287F8AF
S214001F40323097F82C0097F82D6097F82E5097F8B7
S214001F502F4097F8301097F8312097F832300091DC
S214001F600192029331462A46234608F0A5FB034613
S214001F7087F833303FE3FB7987F82C304FF0A053D7
S214001F80B3F858309BB2DBB287F82D304FF0A05331
S214001F90B3F858309BB21B0A9BB2DBB287F82E30E0
S214001FA04FF0A053B3F85A309BB2DBB287F82F300D
S214001FB04FF0A053B3F85A309BB21B0A9BB2DBB269
S214001FC087F830304FF0A053B3F85C309BB2DBB2EA
S214001FD087F831304FF0A053B3F85C309BB21B0A41
S214001FE09BB2DBB287F8323097F82C0097F82D605A
S214001FF097F82E5097F82F4097F8301097F8312022
S21400200097F8323000910192029331462A462346D1
S21400201008F052FB034687F83330ECE2FB7987F88A
S2140020202C304FF0A053B3F860309BB2DBB287F889
S2140020302D304FF0A053B3F860309BB21B0A9BB212
S214002040DBB287F82E304FF0A053B3F862309BB265
S214002050DBB287F82F304FF0A053B3F862309BB254
S2140020601B0A9BB2DBB287F830304FF0A053B3F8B0
S21400207064309BB2DBB287F831304FF0A053B3F830
S21400208064309BB21B0A9BB2DBB287F8323097F8FB
S2140020902C0097F82D6097F82E5097F82F4097F859
S2140020A0301097F8312097F8323000910192029361
S2140020B031462A46234608F0FFFA034687F83330AF
S2140020C099E2FB7987F82C304FF0A053B3F87030C4
S2140020D09BB2DBB287F82D304FF0A053B3F87030C8
S2140020E09BB21B0A9BB2DBB287F82E30FF2387F821
S2140020F02F30FF2387F83030FF2387F83130FF2357
S21400210087F8323097F82C0097F82D6097F82E5005
S21400211097F82F4097F8301097F8312097F832301C
S21400212000910192029331462A46234608F0C4FAEB
S214002130034687F833305EE2FB7987F82C304FF0A1
S214002140A053B3F878309BB2DBB287F82D304FF04F
S214002150A053B3F878309BB21B0A9BB2DBB287F869
S2140021602E30FF2387F82F30FF2387F83030FF23E9
S21400217087F83130FF2387F8323097F82C0097F82D
S2140021802D6097F82E5097F82F4097F8301097F854
S214002190312097F8323000910192029331462A4658
S2140021A0234608F089FA034687F8333023E2FB79A2
S2140021B087F82C304FF0A053B3F880309BB2DBB2D8
S2140021C087F82D304FF0A053B3F880309BB21B0A2F
S2140021D09BB2DBB287F82E30FF2387F82F30FF2321
S2140021E087F83030FF2387F83130FF2387F8323006
S2140021F097F82C0097F82D6097F82E5097F82F40F8
S21400220097F8301097F8312097F832300091019205
S214002210029331462A46234608F04EFA034687F8CC
S2140022203330E8E1FB7987F82C304FF0A053B3F851
S21400223088309BB2DBB287F82D304FF0A053B3F84E
S21400224088309BB21B0A9BB2DBB287F82E30FF2386
S21400225087F82F30FF2387F83030FF2387F8313098
S214002260FF2387F8323097F82C0097F82D6097F800
S2140022702E5097F82F4097F8301097F8312097F89F
S214002280323000910192029331462A46234608F0E6
S21400229013FA034687F83330ADE1FB7987F82C3024
S2140022A04FF0A05393F89030DBB287F82D304FF004
S2140022B0A05393F89430DBB287F82E30FF2387F8CC
S2140022C02F30FF2387F83030FF2387F83130FF2385
S2140022D087F8323097F82C0097F82D6097F82E5034
S2140022E097F82F4097F8301097F8312097F832304B
S2140022F000910192029331462A46234608F0DCF903
S214002300034687F8333076E1FB7987F82C304FF0B8
S214002310A0531B78DBB287F82D304FF0A053DB7844
S214002320DBB287F82E304FF0A0535B78DBB287F82D
S2140023302F304FF0A0539B78DBB287F830304FF049
S214002340A05393F8A230DBB287F831304FF0A05399
S21400235093F8A730DBB287F8323097F82C0097F85E
S2140023602D6097F82E5097F82F4097F8301097F872
S214002370312097F8323000910192029331462A4676
S214002380234608F099F9034687F8333033E1FB79A2
S21400239087F82C304FF0A05393F8A330DBB287F8C1
S2140023A02D304FF0A05393F8A830DBB287F82E30CC
S2140023B04FF0A05393F8A430DBB287F82F304FF0DD
S2140023C0A05393F8A930DBB287F830304FF0A05313
S2140023D093F8A530DBB287F831304FF0A05393F86E
S2140023E0AA30DBB287F8323097F82C0097F82D60C9
S2140023F097F82E5097F82F4097F8301097F831201E
S21400240097F8323000910192029331462A462346CD
S21400241008F052F9034687F83330ECE0FB7987F88A
S2140024202C304FF0A05393F8A630DBB287F82D304F
S2140024304FF0A05393F8AB30DBB287F82E304FF056
S214002440A05393F8B030DBB287F82F304FF0A0538C
S21400245093F8B130DBB287F830304FF0A05393F8E2
S214002460B230DBB287F831304FF0A05393F8B33078
S214002470DBB287F8323097F82C0097F82D6097F883
S2140024802E5097F82F4097F8301097F8312097F88D
S214002490323000910192029331462A46234608F0D4
S2140024A00BF9034687F83330A5E0FB7987F82C3024
S2140024B04FF0A05393F8B830DBB287F82D304FF0CA
S2140024C0A05393F8B930DBB287F82E304FF0A05304
S2140024D093F8BA30DBB287F82F304FF0A05393F85A
S2140024E0BB30DBB287F830304FF0A05393F8BC30E7
S2140024F0DBB287F831304FF0A05393F8BD30DBB233
S21400250087F8323097F82C0097F82D6097F82E5001
S21400251097F82F4097F8301097F8312097F8323018
S21400252000910192029331462A46234608F0C4F8E9
S214002530034687F833305EE0FB7987F82C30422379
S21400254087F82D30532387F82E30332387F82F3023
S214002550302387F83030302387F83130312387F83E
S214002560323097F82C0097F82D6097F82E5097F891
S2140025702F4097F8301097F8312097F832300091B6
S2140025800192029331462A46234608F095F8034600
S21400259087F833302FE0FB7987F82C30422387F812
S2140025A02D30532387F82E30332387F82F303023EF
S2140025B087F83030302387F83130312387F83230CF
S2140025C097F82C0097F82D6097F82E5097F82F4024
S2140025D097F8301097F8312097F832300091019232
S2140025E0029331462A46234608F066F8034687F8E3
S2140025F0333000E000BF0023FB7300BF00200B2138
S21400260014F0FCFC0346002B04D0FB7B5A1CFA7328
S214002610C72BF3D907F12C0318460B2105F0E2FA75
S2140026201437BD46BDE8F04004B0704780B588B0AA
S21400263000AF78600023FB770023BB7700237B770F
S21400264007F1100300221A60043300221A600433D4
S21400265000221A8002330023BB600023BB8107F1EF
S2140026601A03642000211A4600F0D2FB0BF060FD2E
S214002670BB7F002B0BD0012B00F00381A3E1FB7F77
S2140026805A1CFA770A2B02D90023FB7709E00020B0
S214002690002118F069FC034683F00103DBB2002B2F
S2140026A0EDD10023FB777B7F0F2B00F2E08001A2A9
S2140026B052F823F0F52600006F2800006F2800006F
S2140026C0052700006F2800006F2800006F28000014
S2140026D06F2800004B270000932700006F2800009B
S2140026E06F2800006F280000DB2700006F2800001E
S2140026F02328000000200021B34A18F013FC03230F
S2140027007B77B5E007F11003002000211A4618F089
S2140027104FFC3B8A1A4641F2883303FB02F3AB4A6E
S21400272082FB03121A44D212DB17D31A9AB2A84BB2
S2140027301A80A74B1A88A74B1A8000200021A64AA9
S21400274018F0F0FB08237B7792E007F110030233C2
S214002750002000211A4618F02BFC7B8A1A4641F20C
S214002760883303FB02F3994A82FB03121A44D212FF
S214002770DB17D31A9AB2994B1A80984B1A88954B46
S2140027805A8000200021964A18F0CCFB09237B775C
S2140027906EE007F110030433002000211A4618F0FB
S2140027A007FCBB8A1A4641F2883303FB02F3874ACA
S2140027B082FB03121A44D212DB17D31A9AB2894B41
S2140027C01A80884B1A88834B9A8000200021864AFC
S2140027D018F0A8FB0D237B774AE007F110030633B9
S2140027E0002000211A4618F0E3FBFB8A1A4641F245
S2140027F0883303FB02F3754A82FB03121A44D21293
S214002800DB17D31A9AB2794B1A80784B1A88714B19
S214002810DA8000200021764A18F084FB0F237B77AD
S21400282026E007F110030833002000211A4618F0AE
S214002830BFFB3B8B1A4641F2883303FB02F3634A25
S21400284082FB03121A44D212DB17D31A9AB2694BD0
S2140028501A80684B1A885F4B1A81002000215A4A5A
S21400286018F060FB00237B770123BB7700E000BFF6
S214002870A9E0FB7F5A1CFA770A2B02D90023FB77C4
S21400288009E00120002118F06FFB034683F00103E6
S214002890DBB2002BEDD10023FB777B7F0B2B00F206
S2140028A0908001A252F823F0D9280000C329000026
S2140028B0C3290000C3290000C3290000C329000063
S2140028C0E9280000C32900002F290000C3290000C2
S2140028D0C32900007729000001200021464A18F08D
S2140028E021FB06237B776DE007F10803012000211A
S2140028F01A4618F05DFB3B891A4641F2883303FB03
S21400290002F3324A82FB03121A44D212DB17D31A9E
S2140029109AB23A4B1A80394B1A88394B1A800120E2
S2140029200021384A18F0FEFA08237B774AE007F1C0
S21400293008030233012000211A4618F039FB7B8970
S2140029401A4641F2883303FB02F3204A82FB031245
S2140029501A44D212DB17D31A9AB22B4B1A802A4B80
S2140029601A88274B5A8001200021284A18F0DAFAE4
S2140029700B237B7726E007F10803043301200021B0
S2140029801A4618F015FBBB891A4641F2883303FB3A
S21400299002F30E4A82FB03121A44D212DB17D31A32
S2140029A09AB21B4B1A801A4B1A88154B9A80012034
S2140029B00021114A18F0B6FA00237B770023BB7774
S2140029C000E000BF00BF4AE684BF01008100088027
S2140029D066440020D047002088BF0100A650002093
S2140029E08CBF01004C48002090BF0100CE4F002055
S2140029F094BF0100204F002078BF010094440020BF
S214002A00784C00207CBF01009044002080BF01006D
S214002A10D849002080B584B000AF786007F10E0377
S214002A204FF4487000211A4600F0F2F9F6E700BFAE
S214002A3080B584B000AF786007F10E03C82000218F
S214002A401A4600F0E5F9384B1B785A1CD1B2364AC4
S214002A501170142B03D1354B02221A7009E0324B49
S214002A601B78142B05D9304B00221A702F4B0122ED
S214002A701A702F4B5A782F4B9A702D4BDB79643394
S214002A80DAB22C4B1A702C4B1B8C2C4AA2FB03235D
S214002A901B099BB2DBB23C3BDAB2264B5A70254B85
S214002AA09A78274B5B789A420CD1224B5B78643B32
S214002AB0002BB8BF5B420A2B04DD1E4B9A781D4BD9
S214002AC0DA7002E01B4B0022DA70194B9A78194B29
S214002AD01A73174B1B7A6433DAB2164B9A72164B7C
S214002AE09B8F164AA2FB03231B099BB2DBB23C3B1F
S214002AF0DAB2104BDA720F4B1A7B114B9B789A4264
S214002B000CD10C4BDB7A643B002BB8BF5B420A2B24
S214002B1004DD084B1A7B074B5A7302E0054B002274
S214002B205A730BF0E1FC87E7244F0020464800204C
S214002B309C480020684900204C4E00201F85EB5121
S214002B402C49002080B58CB00AAF7860364B002246
S214002B501A60364B00221A60354B00221A80354B1D
S214002B601B68002B08D0344B1A68324B1B68B2FB2C
S214002B70F3F3324A136007E02F4B1B68304AA2FB80
S214002B800323DB082D4A13602C4B1B682D4A136069
S214002B902D4B00221A602D4B00221A602C482D491E
S214002BA07A6802F0E1F97B681B88002B00D038E0D9
S214002BB0294B1B68002B04D17B6847F247321A80EA
S214002BC02FE0264B1A68264B1B689A4204D27B6875
S214002BD047F248321A8024E0224B1B783E2B04D959
S214002BE07B6847F246321A801BE01E4B18781A4B59
S214002BF019681D4B1A68194B1B68009001910292C8
S214002C0003930023049300230593002306930B23CA
S214002C1007937B68089315481549164A002300F069
S214002C20BBFC0837BD4680BDF8290020F4290020EB
S214002C30002A0020FCB50100E4B50100042A0020AB
S214002C40CDCCCCCC142A0020002700202027002042
S214002C50D028002028B3010000B6010008B6010005
S214002C60E0B50100F8B5010004B6010038270020E1
S214002C7038B30100012D000080B400AFBD465DF8FA
S214002C80047B704780B485B000AF78601A4B1A6832
S214002C907B689A420CD17B681B69FB60164AFB680E
S214002CA01360FB68002B12D0FB6800225A610EE00E
S214002CB07B685B69FB607B681B69BB60FB68BA6806
S214002CC01A61BB68002B02D0BB68FA685A617B6841
S214002CD0012283F826207B6800221A617B68002286
S214002CE05A61064B1B88013B9AB2044B1A80143774
S214002CF0BD465DF8047B7047F4290020002A0020BA
S214002D0080B58AB000AF786007F10C0207F11203B5
S214002D100020002100F03AFE00F05AF804F008F90E
S214002D203862284B1B680133264A1360264B1B6803
S214002D307B6233E007F11203184602F0C5FF7B6A98
S214002D401B69BB617B6A9B695A1E7B6A9A617B6AB8
S214002D509B69002B1BD17B6A9B8C022B04D17B6A60
S214002D601A6A7B6A9A6106E0786AFFF78BFF7B6ACD
S214002D70032283F826207B6A9B687B617B69002B95
S214002D8005D07B6ADA687B69786A11469847BB6922
S214002D907B6207F11203184602F0C6FF7B6A002B1F
S214002DA0C8D104F0C5F802463B6AD31AFB6100F0AE
S214002DB021F8064B1A68FB699A4202D2034AFB695D
S214002DC01360A1E700270020F42900202027002018
S214002DD090B585B002AF3C46BB1D00930448002169
S214002DE00022234602F002F90C37BD4690BD00BF14
S214002DF0D028002080B582B000AFBB1D034800215C
S214002E001A4602F0F1F90837BD4680BDD0280020EA
S214002E1080B586B000AFF8600B467A607B810023F1
S214002E207B612A4B1B78002B04D07B6846F66352E6
S214002E301A8047E07B89082B1DD801A252F823F0A0
S214002E40652E0000772E0000652E0000772E00000D
S214002E50812E0000772E0000772E0000772E0000CF
S214002E60652E0000FB68002B04D17B6847F27E22AB
S214002E701A8027E005E07B6845F625621A8021E087
S214002E8000BFFDF74FFB7861114B1A687B8910462F
S214002E90F9681A467B6800F07DF97B681B88002B72
S214002EA003D07869FDF742FB0CE0094B1B68184617
S214002EB003F090FB7869FDF739FB02F0B3FE7B6800
S214002EC000221A801837BD4680BD00BF1C23002094
S214002ED00827002080B582B000AF03F08FFEBB1D30
S214002EE00D4800211A4600F035FE0C4B1B68013BCE
S214002EF00A4A1360094B1B68002B09D1084B1B6854
S214002F00064A1360BB1D074800211A4600F022FE41
S214002F100837BD4680BD00BF40260020142A00208A
S214002F20042A00203827002080B588B000AF7860DB
S214002F300023FB6107F10E0300200021002200F0B1
S214002F4025FDFB89002B1CD1FDF7ECFAF8610D4B33
S214002F501B6801330B4A1360F869FDF7E7FA00F0C7
S214002F6007FAB86100F066FA7861BA697B691344BB
S214002F703B61054B1A683B699A4202D2024A3B699A
S214002F801360D7E708290020FC29002080B58CB004
S214002F900AAF7860284B00221A60284B00221A607D
S214002FA0274B00221A60254B00229A80234B0022D2
S214002FB0DA80234B00229A80214B0022DA80214BB4
S214002FC01B68002B04D17B6847F212221A802FE080
S214002FD01D4B1A681D4B1B689A4204D27B6847F249
S214002FE013221A8024E01A4B1B783E2B04D97B68E8
S214002FF047F211221A801BE0154B1878114B1968FE
S214003000144B1A68104B1B680090019102920393B0
S2140030100023049300230593002306930B230793B2
S2140030207B6808930C480D490D4A002300F0B4FA5B
S2140030300837BD4680BD00BF082900200C2A0020A6
S214003040182A0020ECB50100F4B50100E0B5010037
S214003050E8B50100F0B501004026002050B301009D
S214003060292F000080B489B000AFF860B9607A609C
S214003070FB681B68002B12D1BB687A681A65BB68B0
S21400308000225A61BB6800229A61BB68FA68DA615E
S214003090FB68BA681A60FB6801229A8074E0FB68D5
S2140030A01B68FB61FB681B68BB617B687B6153E048
S2140030B0BB691A6D7B699A4244D3BB699B69002B36
S2140030C01ED1BB687A691A65BB6800229A61BB6824
S2140030D0BA695A61BB68FA68DA61BB691A6D7B69BE
S2140030E0D21ABB691A65BB69BA689A61FB68BA6886
S2140030F01A60FB689B8801339AB2FB689A8043E0AB
S214003100BB699B69FB61BB687A691A65BB68FA692B
S2140031109A61BB68BA695A61BB68FA68DA61BB69CA
S2140031201A6D7B69D21ABB691A65BB69BA689A615F
S214003130FB69BA685A61FB689B8801339AB2FB68E0
S2140031409A8021E0BB691B6D7A69D31A7B61BB69E3
S214003150FB61BB695B69BB61BB69002BA8D1BB681F
S2140031607A691A65BB68FA699A61BB6800225A6177
S214003170BB68FA68DA61FB69BA685A61FB689B88C3
S21400318001339AB2FB689A802437BD465DF8047B0B
S214003190704700BF80B586B000AFF860B9603B608E
S2140031A01346FB80FB88042B13D13A4B1B68BA6886
S2140031B0D31A7B617B6913F5803F02D87B69002BAD
S2140031C058D1FB6800221A653B6847F27E221A80B7
S2140031D05CE0FB88082B3FD12E4B1A68FB685B6DC2
S2140031E0D21ABB689A4208D9BB687B61294B1A6819
S2140031F0BB681A44FB685A653CE0FB685A6D254B71
S2140032001B68D21ABB6813447B617B6913F5803F49
S21400321002D87B69002B18D1FB685A6D1D4B1968C4
S214003220FB685B6DC91ABB68B1FBF3F30133B96881
S21400323001FB03F31A44FB685A65FB6800221A6513
S2140032403B6847F27E221A8020E0FB685A6DBB6816
S2140032501A44FB685A650DE0BB68002B02D0BB68B9
S2140032607B6107E0FB6800221A653B6847F27E2216
S2140032701A800BE0FB68012283F836200648F968BE
S2140032807A69FFF7EFFE3B6800221A801837BD46C2
S21400329080BD00BF082900200C2A002080B487B01B
S2140032A000AF78607B68DB697B617B689B693B610C
S2140032B07B685B69FB603B69002B2CD1FB68002BAD
S2140032C00CD17B6900221A607B6900229A807B6899
S2140032D000221A657B680022DA613EE0FB68002265
S2140032E09A61FB681A6D7B681B6D1A44FB681A6549
S2140032F07B69FA681A607B699B88013B9AB27B6996
S2140033009A807B6800225A617B6800221A657B6877
S2140033100022DA6121E03B69FA685A61FB68002BFB
S21400332009D0FB683A699A61FB681A6D7B681B6D69
S2140033301A44FB681A657B6800229A617B699B8841
S214003340013B9AB27B699A807B6800225A617B684F
S21400335000221A657B680022DA611C37BD465DF8DC
S214003360047B704780B400AFBD465DF8047B7047B1
S21400337080B586B000AF0023FB60FDF7D3F8F86099
S21400338003F0D6FDB86000237B82294B7B607B6808
S2140033901B687B617B69002B39D07B691B6D5A1ECD
S2140033A07B691A652FE07B8A01337B827B6993F801
S2140033B03630012B07D17B69002283F836207869E6
S2140033C003F06AF808E07B6993F83630052B03D1E2
S2140033D07B69042283F836207B695A697B681A6009
S2140033E07B681B687B617B69002B03D17B680022AE
S2140033F09A800CE07B689B88013B9AB27B689A8037
S2140034007B6900229A617B691B6D002BCBD07B68A1
S2140034107A8ADA8003F08CFD0246BB68D31A3B60DA
S214003420F868FDF783F83B6818461837BD4680BD38
S2140034300C2A002080B588B000AF00233B61FDF762
S21400344071F8386103F074FDF86000237B83514BFC
S214003450BB60BB681B68FB61FB69002B00F08980C2
S214003460FB691B6D5A1EFB691A657DE07B8B013379
S2140034707B8300237B61FB6993F83430042B04D1F3
S214003480FB691B6BDB685B6A7B61FB6900229A65E4
S214003490FB690022A3F85C2003F04AFD0246FB69A4
S2140034A09A64F86902F098FEFB6993F83630032BAD
S2140034B007D1F86902F0F0FFFB69002283F8362096
S2140034C008E0FB6993F83630072B03D1FB6904222A
S2140034D083F83620FB69032283F83520FB69002237
S2140034E083F834207B69002B27D07B6993F837203C
S2140034F07B6993F838309A421FD07B6993F837205F
S214003500FB6993F837309A4217D1786901F0A8FF23
S2140035100346FB717B6993F83820FB79934228BFFA
S2140035201346FB717B6993F83730FA799A4204D0D8
S214003530FB797869194600F0C5FEFB695A69BB68D5
S2140035401A60BB681B68FB61FB69002B03D1BB6874
S21400355000229A800DE0BB689B88013B9AB2BB684C
S2140035609A80FB6900229A61FB691B6D002B3FF471
S2140035707DAFBB687A8BDA8003F0DAFC0246FB6824
S214003580D31A3B603869FCF7D1FF3B6818462037F2
S214003590BD4680BD182A002080B58CB002AFF8600A
S2140035A0B9607A603B600023BB61FB68002B04D1E6
S2140035B03B6D47F2AD121A80D6E07B68002B04D133
S2140035C03B6D47F24F121A80CEE07B6B002B04D186
S2140035D03B6D46F62F621A80C6E0654B1B68FA6B99
S2140035E09A4204D23B6D46F630621A80BCE0BA6B53
S2140035F0FB6B9A4204D33B6D46F631621A80B3E009
S21400360097F830303F2B04D93B6D46F273221A8070
S214003610AAE097F830303F2B08D1FB68554A934212
S21400362004D03B6D46F273221A809DE0F86800F0E5
S214003630BFFB3B6D00221A80B7F84C3003F0010345
S214003640002B17D0B7F84C3003F00203002B11D034
S2140036507B6BFB6100237B6208E0FB6900221A603B
S214003660FB690433FB617B6A01337B627A6AFB6B1E
S2140036709A42F2D3BB6B9B007A6B13447B61FB6B65
S2140036800093B7F84C300193786839687A6B7B6999
S21400369003F0BEF8F861FB687A689A62FB683A68DD
S2140036A0DA62FB68BA681A62FB6897F8302083F81B
S2140036B03720FB6897F8302083F83820FB68FA69D3
S2140036C01A60FB687A699A60FB68BA6C5A60FB6895
S2140036D07A6B5A62FB68FA6B1A64FB68B7F84C2080
S2140036E0A3F84420002387F823300BE097F8232024
S2140036F0FB681E32002143F8221097F8233001336E
S21400370087F8233097F82330002BEFD0FB6803F1BF
S2140037106002B7F840301046194601F0B5FFF86869
S21400372003F040F8FCF7FEFEB861FB6893F837300C
S214003730184601F0CBFBF86802F00CFFF86800F0C2
S214003740B3FA0D4B1B8801339AB20B4B1A800B4B06
S2140037501B78012B03D0B869FCF7E8FE04E0B869D3
S214003760FCF7E4FE02F05EFA2837BD4680BD00BFD7
S214003770E0B5010004280020342700202D23002077
S21400378080B586B000AF7860396000233B617B6807
S214003790684A934204D13B6847F24C121A80C5E04F
S2140037A07B68002B08D1FCF7BDFE3861624B1B68B6
S2140037B07B603869FCF7BAFEFCF7B4FE38617B68BC
S2140037C093F83630072B00F2818001A252F823F0DE
S2140037D0F1370000F937000001380000013800001A
S2140037E0DD380000F937000001380000013800001D
S2140037F0786802F0EFFE72E07868FFF74FFD6EE043
S2140038007B6893F83430072B50D801A252F823F087
S214003810AD38000031380000AD3800003138000007
S214003820393800003138000031380000AD3800006B
S214003830786802F0D1FC3AE07B681B6BDB685B6A59
S214003840FB60FB6893F83730FB75786802F0C4FCC1
S214003850FB6893F83720FB6893F838309A4214D008
S214003860FB6893F837207B6893F837309A420CD180
S214003870F86801F0F5FD0346FB75FB6893F8382001
S214003880FB7D934228BF1346FB757B68002283F8B6
S2140038903420FB6893F83730FA7D9A4205D0FB7DDA
S2140038A0F868194600F00EFD01E000E000BF7B68F6
S2140038B093F83630032B04D07B6893F83630072B0A
S2140038C003D17868FFF7EAFC09E008E03869FCF7FE
S2140038D02DFE3B6846F62D621A8027E000BF7B6807
S2140038E0DB6B002B02D0786801F0E6FD7B68603366
S2140038F0184601F08DFE786802F066FF786800F0E2
S214003900F9F90E4B1B88013B9AB20C4B1A8078686B
S21400391000F04EFA7B68FF2283F836203869FCF701
S21400392005FE3B6800221A8002F07CF91837BD4677
S21400393080BD00BF04280020082700203427002070
S21400394080B584B000AF786039600023FB60FCF778
S214003950E9FDF8607B68002B04D00B4B1B687A6887
S2140039609A4207D1F868FCF7E1FD3B6847F2571228
S2140039701A8006E0F868FCF7D9FD7868396800F028
S214003980DDFA1037BD4680BD0827002090B587B009
S21400399000AFF8607A603B600B467B8100237B615A
S2140039A07B89002B08D0B3F5004F05D03B6845F661
S2140039B025621A800023C4E000BF7B68002B02D07B
S2140039C07B6800221A60FCF7ADFD78615F4B1B68D0
S2140039D0DB6C002B35D05D4B1B68DA6C013ADA6481
S2140039E05A4B1B68DB6C3B617B68002B04D0574B43
S2140039F01B689A6C7B681A60544B1C6803F098FA34
S214003A000246524B1B689B6CD31AC4F8A0304F4B2F
S214003A101B68D3F8A4204D4B1B68D3F8A0309A42FD
S214003A2007D24A4B1B68494A1268D2F8A020C3F84E
S214003A30A4207869FCF77AFD3B6800221A803B696F
S214003A407FE07B891BB2002B08DA7869FCF76EFDF5
S214003A503B6846F2B0121A80002372E03C4B1B789B
S214003A60002B08D07869FCF761FD3B6846F6635288
S214003A701A80002365E0002000210722FB6802F080
S214003A8023FA7869FCF752FD02F0CCF8FCF74AFD01
S214003A9078612E4B1B6893F83530012B2CD0032B06
S214003AA037D0002B40D17B68002B21D0274B1B68DA
S214003AB09A6C7B681A60254B1C6803F039FA02463C
S214003AC0224B1B689B6CD31AC4F8A0301F4B1B6894
S214003AD0D3F8A4201D4B1B68D3F8A0309A4207D217
S214003AE01A4B1B68194A1268D2F8A020C3F8A42003
S214003AF03B6800221A801CE07B68002B04D0134B26
S214003B001B689A6C7B681A603B6846F2A9121A809A
S214003B100FE07B68002B02D07B6800221A603B68AF
S214003B2047F2D9221A8004E03B6846F62E621A80D5
S214003B3000BF064B1B68DB6C3B617869FCF7F6FC44
S214003B403B6918461C37BD4690BD00BF08270020BD
S214003B501C23002080B586B000AFF8600B467A6064
S214003B607B817B89002B08D0B3F5004F05D07B689E
S214003B7045F625621A8000230CE000BF03F0D8F952
S214003B8078617B89F86819467A697B6800F07AFA6A
S214003B9038613B6918461837BD4680BD80B588B089
S214003BA000AFF860B9607A603B6000237B61BB6859
S214003BB0002B04D13B6846F2D5221A8056E07B687B
S214003BC0002B04D13B6846F2D5221A804EE0FCF763
S214003BD0A9FC7861FB68002B02D1264B1B68FB60B2
S214003BE0FB681B68002B0DD17869FCF79FFCBB684F
S214003BF000221A607B6800221A603B6847F2521265
S214003C001A8033E0FB68B3F8443003F00103002B5E
S214003C100DD17869FCF78AFCBB6800221A607B68C5
S214003C2000221A603B6847F254121A801EE0786938
S214003C30FCF77CFC0023FB61FB685B6ABB6105E06C
S214003C40BB690433BB61FB690133FB61BB691B685D
S214003C50002BF5D0BB68FA691A60FB681A6CFB6922
S214003C60D21A7B681A603B6800221A802037BD464D
S214003C7080BD00BF0827002080B582B000AF786006
S214003C8039607B68074A934204D13B6847F25B126F
S214003C901A8003E07868396800F088FA0837BD466D
S214003CA080BD00BF0428002080B483B000AF7860D9
S214003CB07B680022C3F8B4200D4B1B68002B04D190
S214003CC07B680022C3F8B82009E0094B1A687B68B5
S214003CD0C3F8B820064B1B687A68C3F8B420044AB9
S214003CE07B6813600C37BD465DF8047B704700BFE9
S214003CF01C27002080B485B000AF78607B68D3F8BE
S214003D00B430FB607B68D3F8B830BB60FB68002B30
S214003D100ED1184ABB681360BB68002B03D0BB6883
S214003D200022C3F8B4207B680022C3F8B8201BE04A
S214003D30BB68002B08D1FB680022C3F8B8207B685C
S214003D400022C3F8B4200FE0FB68BA68C3F8B820B6
S214003D50BB68FA68C3F8B4207B680022C3F8B820B2
S214003D607B680022C3F8B4201437BD465DF8047B98
S214003D70704700BF1C27002080B483B000AF786077
S214003D80084B00221A60084B00221A80074B0022BC
S214003D901A607B6800221A800C37BD465DF8047BEB
S214003DA0704700BF1C270020342700202C27002047
S214003DB080B584B000AF78607B6800221A607B68AC
S214003DC000229A607B6800225A607B680022DA60D4
S214003DD07B6800221A617B6800225A617B68002299
S214003DE09A617B680022DA617B68524A1A627B68B5
S214003DF000225A627B6800229A627B680022DA629E
S214003E007B6800229A647B6800229A657B680022A1
S214003E10A3F85C207B6860331846002101F034FC70
S214003E207B6800221A677B6800225A677B6800223C
S214003E30DA677B680022A3F884207B680022C3F838
S214003E4080200023FB7308E0FA7B7B681E3200218B
S214003E5043F82210FB7B0133FB73FB7B002BF3D074
S214003E607B680022DA647B680022C3F8A0207B68A7
S214003E700022C3F8A4207B6800221A647B68002214
S214003E8083F886207B680022C3F8AC207B6800227B
S214003E90C3F8A8207B680022A3F844207B68002291
S214003EA01A657B6800225A657B680022A3F8882082
S214003EB07B680022A3F88A207B680022C3F88C2047
S214003EC07B680022C3F8902003F032F8B8607B6865
S214003ED0BA68C3F894207B680022C3F898207B68F1
S214003EE00022C3F8B0207B68002283F834207B6869
S214003EF0002283F835207B68002283F836207B6812
S214003F00402283F837207B68402283F838207B687D
S214003F100022DA637B680022C3F8B4207B680022A4
S214003F20C3F8B8207B68044AC3F8BC201037BD46E7
S214003F3080BD00BF64B301006CB3010080B584B0DF
S214003F4000AF786039600023FB60FCF7EBFAF8609E
S214003F503B6800221A807B6893F83630072B72D8AD
S214003F6001A252F823F000BF893F0000893F0000FD
S214003F70893F0000893F0000993F0000C93F0000CC
S214003F80F33F00001D400000F868FCF7CFFA3B68DE
S214003F9047F253121A805EE07B6893F88630013B46
S214003FA0DAB27B6883F886207B6893F88630002B2D
S214003FB006D17B68002283F83620786802F06CFA17
S214003FC0F868FCF7B3FA46E07B6893F88630013B66
S214003FD0DAB27B6883F886207B6893F88630002BFD
S214003FE003D17B68012283F83620F868FCF79EFA36
S214003FF031E07B6893F88630013BDAB27B6883F861
S21400400086207B6893F88630002B03D17B680222DB
S21400401083F83620F868FCF789FA1CE07B6893F88A
S2140040208630013BDAB27B6883F886207B6893F89B
S2140040308630002B03D17B68032283F83620F8688D
S214004040FCF774FA07E0F868FCF770FA3B6846F687
S2140040502D621A8001E001F0E5FD1037BD4680BDF7
S21400406080B582B000AF064B1B68184602F0BEFB58
S214004070BB1D00201946FFF783FB0837BD4680BDF1
S2140040800827002080B588B002AFF8607A603B60F1
S2140040900B467B8100233B61FCF744FA3861FB68E2
S2140040A0002B02D1404B1B68FB60FB687A689A6461
S2140040B03B6800221A80FB6893F83630072B64D8DA
S2140040C001A252F823F000BFE9400000E9400000DA
S2140040D01F4100001F410000E9400000E9400000C9
S2140040E01F4100001F410000FB68DB6CB3F1FF3F7F
S2140040F008D13869FCF71AFA3B6846F6C5521A80AA
S21400410000234DE000BFFB68DB6C5A1CFB68DA64DA
S214004110FB68DB6C7B613869FCF708FA3FE0FB68FC
S21400412093F83430072B14D17B6800930020F9688D
S2140041300022002302F0C4F8FB68DB6C7B61386960
S214004140FCF7F4F97B891BB2002B1DDB01F06AFD3E
S21400415025E0FB68DB6CB3F1FF3F08D13869FCF75C
S214004160E5F93B6846F6C5521A80002318E000BF02
S214004170FB68DB6C5A1CFB68DA64FB68DB6C7B61F3
S2140041803869FCF7D3F90AE009E03869FCF7CEF99C
S2140041903B6846F62D621A8000237B6100BF7B6970
S2140041A018461837BD4680BD0827002080B584B065
S2140041B000AF786039600023FB60FCF7B3F9F86065
S2140041C07B68002B02D13D4B1B687B603B4B1B681A
S2140041D07A689A420BD13A4B1B78002B07D0F868C6
S2140041E0FCF7A4F93B6846F663521A8063E03B6826
S2140041F000221A807B6893F83630072B51D801A22C
S21400420052F823F025420000434200005B420000C3
S214004210734200008B4200008B4200008B4200007D
S2140042208B4200007B68042283F836207B680122DC
S21400423083F88620786802F0CDF9F868FCF776F9FE
S21400424037E07B68052283F836207B68012283F8F6
S2140042508620F868FCF76AF92BE07B68062283F86C
S21400426036207B68012283F88620F868FCF75EF922
S2140042701FE07B68072283F836207B68012283F8DC
S2140042808620F868FCF752F913E07B6893F88630CE
S2140042900133DAB27B6883F88620F868FCF746F9C3
S2140042A007E0F868FCF742F93B6846F62D621A808C
S2140042B001E001F0B7FC1037BD4680BD082700209E
S2140042C01C23002080B584B000AF78600B46FB70DE
S2140042D00023FB607B6893F83730FB727B6893F8AB
S2140042E03630072B00F28A8001A252F823F000BF76
S2140042F011430000454300004F4300004F430000B9
S21400430045430000454300004F4300004F43000074
S214004310786802F05FF97B68FA7883F837207B6864
S21400432093F83730184600F0D1FD364B1B687A6894
S2140043309A4203D1786802F0CDF858E0786802F027
S21400434009F954E07B68FA7883F837204FE07B68F9
S214004350FA7883F837207B6893F83430013B052BD6
S21400436043D801A252F823F081430000EB4300003B
S2140043708143000089430000814300008143000020
S214004380786801F07BFE31E0786801F077FE7B68A4
S2140043901B6BDB685B6AFB60FA7AFB789A4208D98B
S2140043A0FB6893F83730FA789A421DD30023FB60F7
S2140043B01AE0FB6893F83730FA7A9A4214D1F86814
S2140043C001F04EF80346FB70FB6893F83820FB7844
S2140043D0934228BF1346FB70FB6893F83730FA7891
S2140043E09A4201D10023FB6000E000BF00BFFB68DB
S2140043F07B607B68002B7FF46BAF00E000BF10375C
S214004400BD4680BD0827002080B586B000AF786026
S2140044100023FB60FCF786F8F8603E4B00221A800B
S2140044203D4B00221A603D4B00221A603C4B002296
S2140044301A603C4B00221A603B4B00221A81F86837
S214004440FCF774F8FCF76EF8F860384B1B687B6175
S214004450F868FCF76BF834E0FCF764F8F8607B6902
S2140044600022C3F8B0207B6900225A677B690022CD
S214004470C3F8A4207B690022C3F88C207B69002245
S214004480A3F888207B690022A3F88A207B69002293
S214004490C3F898207B690022C3F89C2002F048FDF0
S2140044A002467B69C3F894207B696033BB60BB68B7
S2140044B000229A817B69D3F8B8307B61F868FCF7F4
S2140044C035F87B69002BC7D1FCF72CF8F860184B41
S2140044D01B683B61F868FCF729F80EE0FCF722F849
S2140044E0F8603B692033BB60BB6800229A813B6959
S2140044F09B693B61F868FCF719F83B69002BEDD126
S214004500FEF730FFFEF7B8FB7B6800221A801837EC
S214004510BD4680BD0E27002024230020FC29002055
S2140045202027002028290020F82700201C2700200C
S214004530C428002080B586B000AF786000233B61B9
S21400454007F10E0332481946FFF796FBFB89002B4E
S21400455003D0FA897B681A8056E007F10E03022022
S21400456000211A46FEF754FCFB89002B03D0FA897B
S2140045707B681A8048E0FBF7D5FF3861254B0022A0
S2140045801A603869FBF7D2FF00237B61224B1A685A
S214004590224B1B689A4206D91F4B1A681F4B1B6892
S2140045A0B2FBF3F37B617B69002B06D11A4B1B68C9
S2140045B01B4AA2FB0323DB087B6107F10E03786925
S2140045C000211A46FEF724FC07F10E031048194690
S2140045D0FFF7B6F9FB89002B03D0FA897B681A80AF
S2140045E012E0FBF79FFF38610E4B00221A60094B62
S2140045F01B680D4A13600D4B01221A703869FBF7D1
S21400460095FF7B6800221A801837BD4680BD00BF24
S2140046103827002028230020E4B50100D0B501008B
S214004620CDCCCCCC24230020042900203126002029
S21400463080B590B000AF78600023BB6109E0854B81
S2140046401B685A0007F10A03104600211A46FEF7B7
S214004650DFFB814B1B78012BF1D107F10A031846CB
S214004660FFF7D2FE0023FB617C4B1A68794B1B6870
S2140046709A4206D9794B1A68764B1B68B2FBF3F35D
S214004680FB61FB69002B06D1744B1B68744AA2FBC6
S2140046900323DB08FB6102F04BFC7861FBF742FF6B
S2140046A0B861704B1B68704A13606E4B00221A602C
S2140046B0B869FBF73BFF6D4B1A686B4B1B689A4259
S2140046C04FD96A4B1B686A4A934205D842F2107368
S2140046D07B6201233B6224E0644B1B68654A93427D
S2140046E005D84FF47A737B620A233B6219E05F4B6E
S2140046F01B68614A934204D864237B6264233B624E
S2140047000FE05A4B1B685D4A934205D80A237B622A
S2140047104FF47A733B6204E001237B6242F210732B
S2140047203B62524B1A683B6AB2FBF3F33B614E4B5B
S2140047301B687A6A02FB03F23B69B2FBF3F39BB297
S214004740C3F51C5310339AB24D4B1A804D4B1A8842
S2140047504B4B1B889A4208D2494B1A88494B1A8001
S21400476003E0474B42F210721A8002F00FF8002363
S214004770BB63FBF7D7FEB861434B1B68BB62B869E7
S214004780FBF7D4FE1FE0FBF7CDFEB861BB6AD3F89B
S2140047909820BB6AC3F89C20BB6A0022C3F8982006
S2140047A0B869FBF7C3FEBB6AD3F89C30BA6B1344F8
S2140047B0BB63FBF7B7FEB861BB6AD3F8B830BB6221
S2140047C0B869FBF7B3FEBB6A002BDCD1BB6B002BD2
S2140047D031D0BB6B264A934205D842F210733B6336
S2140047E001237B6321E0BB6B224A934205D84FF43A
S2140047F07A733B630A237B6317E0BB6B1E4A9342C4
S21400480004D864233B6364237B630EE0BB6B1B4AC4
S214004810934205D80A233B634FF47A737B6304E024
S21400482001233B6342F210737B63BA6B7B6BB2FB74
S214004830F3F3FB6203E000233B630123FB62FBF719
S21400484071FEB861104B1B68BB62B869FBF76EFE61
S21400485051E000BFD0B5010031260020E4B50100CC
S214004860CDCCCCCC282300201829002004290020F9
S2140048707F1A0600FF083D00FF596202FF83D71724
S214004880302700200E2700201C270020BB6AD3F804
S2140048909C303A6B02FB03F2FB6AB2FBF3F3FB8736
S2140048A0FB8F42F21072934202D942F21073FB87DA
S2140048B0BB6AFA8FA3F88820BB6AB3F88A30FA8FEF
S2140048C09A4203D9BB6AFA8FA3F88A20BB6A03F11F
S2140048D0AC01BB6A03F1A80207F10A03B86AFFF746
S2140048E05DF9FBF71FFEB861BB6AD3F8B830BB6250
S2140048F0B869FBF71BFEBB6A002BC7D1104B1B78B1
S214004900012B07D10E4B00221A7007F10A03184636
S214004910FFF77AFD02F00CFB02467B69D31AFB60B8
S214004920084B1A68FB689A4202D2064AFB68136074
S21400493007F10A03F86900211A46FEF769FAAAE6A3
S2140049402C2900202423002080B58CB00AAF786084
S214004950254B00221A60254B00221A60244B0022A9
S2140049601A60244B00221A70234B00221A70234B25
S2140049701B68002B04D17B6846F62B621A802FE05A
S2140049801F4B1A681F4B1B689A4204D27B6846F678
S2140049902C621A8024E01C4B1B783E2B04D97B68C3
S2140049A046F62A621A801BE0174B1878134B1968D4
S2140049B0164B1A68124B1B680090019102920393E3
S2140049C000230493002305930023069303230793F1
S2140049D07B6808930E480F490F4A0023FEF7DCFD5C
S2140049E00837BD4680BD00BF2823002018290020B8
S2140049F004290020312600202C290020D4B50100EF
S214004A00DCB50100E0B50100CCB50100D8B5010069
S214004A103429002070B301003146000080B586B00E
S214004A2000AFF860B9607A603B6000237B61FB688A
S214004A30002B04D13B6845F6C3521A8022E0FBF7F0
S214004A4071FD7861FB68114A1A60FB687A681A6221
S214004A50FB6800225A62FB68BA685A60FB68083333
S214004A60184601F035FBF86800F032F9084B1B8851
S214004A7001339AB2064B1A807869FBF757FD3B68FC
S214004A8000221A801837BD4680BD00BF53454D41F1
S214004A90C828002080B58EB000AFF860B9603B60D3
S214004AA01346FB8000237B63FB68002B05D13B6C21
S214004AB045F6C3521A800023BBE0FB88002B08D0C3
S214004AC0B3F5004F05D03B6C45F625621A800023EF
S214004AD0AFE000BFFB681B68584A934205D03B6CAA
S214004AE045F6C4521A800023A3E03B68002B02D090
S214004AF03B6800221A60FBF715FD7863FB681B6AAB
S214004B00002B16D0FB681B6A5A1EFB681A623B68AD
S214004B10002B03D0FB685A6A3B681A60FB681B6A66
S214004B203B63786BFBF702FD3B6C00221A803B6B05
S214004B307FE0FB881BB2002B0BDAFB681B6A3B632B
S214004B40786BFBF7F3FC3B6C46F2B0121A803B6BBB
S214004B506FE03B4B1B78002B08D0786BFBF7E6FC2E
S214004B603B6C46F663521A80002362E007F110039E
S214004B701846F9680622BB6801F0A6F9786BFBF7C1
S214004B80D5FC01F04FF8FBF7CDFC78632D4B1B6886
S214004B9093F83530032B3CD801A252F823F000BF1F
S214004BA0B14B0000C94B0000F94B0000E34B00007E
S214004BB03B68002B04D0234B1B689A6C3B681A603A
S214004BC03B6C00221A802DE03B68002B04D01D4B66
S214004BD01B689A6C3B681A603B6C46F2A9121A80F6
S214004BE020E03B68002B02D03B6800221A603B6C3A
S214004BF047F2D9221A8015E03B68002B04D0114BEF
S214004C001B689A6C3B681A603B6C45F6C2521A8069
S214004C1008E03B6C46F62E621A80786BFBF786FC43
S214004C20002306E0FB681B6A3B63786BFBF77EFCA1
S214004C303B6B18463837BD4680BD00BF53454D41D7
S214004C401C2300200827002080B586B000AFF8603F
S214004C500B467A607B81FB68002B05D17B6845F6A6
S214004C60C3521A8000232DE07B89B3F5007F11D054
S214004C70B3F5007F02DC002B0CD005E0B3F5004F47
S214004C8008D0B3F5024F05D07B6845F625621A803A
S214004C90002317E000BFFB681B680C4A934205D050
S214004CA07B6845F6C4521A8000230BE002F040F9F8
S214004CB078617B89F86819467A697B6800F044F861
S214004CC038613B6918461837BD4680BD53454D418F
S214004CD080B483B000AF78607B680E4ADA617B6888
S214004CE000225A610C4B1B68002B03D17B68002204
S214004CF09A6107E0084B1A687B689A61064B1B6846
S214004D007A685A61044A7B6813600C37BD465DF8C2
S214004D10047B70478CB301003426002080B483B037
S214004D2000AF7860064B00221A60064B00221A80FD
S214004D307B6800221A800C37BD465DF8047B7047FE
S214004D4034260020C828002080B58EB002AFF86058
S214004D507A603B600B467B8100237B62FBF7E2FBBD
S214004D607862FB6808333B623B6A1B89002B21D1C3
S214004D70FB681B6AB3F1FF3F08D1786AFBF7D6FBE6
S214004D803B6846F6C5521A80002348E000BFFB6821
S214004D901B6A5A1CFB681A62FB681B6A7B61FB680D
S214004DA07A685A62786AFBF7C1FB3B6800221A8071
S214004DB07B6934E07B8903F40073002B03D03B6AE5
S214004DC01B89FB8501E00123FB853B6A1B68BB62F0
S214004DD012E0BB6A9B68FB61BB6A5B68BB617B6871
S214004DE00093F868F9690022002301F069FABB69AC
S214004DF0BB62FB8D013BFB85FB8D002BE9D1FB687D
S214004E001B6A7B61786AFBF791FB7B891BB2002BE0
S214004E1001DB00F007FF3B6800221A807B6918461A
S214004E203037BD4680BD00BF80B483B000AF786029
S214004E30064B00221A60064B00221A807B6800226E
S214004E401A800C37BD465DF8047B7047C4280020E6
S214004E500C27002080B483B000AF00237B6007E0FF
S214004E60074A7B68002142F823107B6801337B6089
S214004E707B68012BF4D90C37BD465DF8047B704780
S214004E80202A002080B582B000AF0023FB700E4BB6
S214004E907B6005E0FB782033FB707B6804337B6027
S214004EA07B681B68002BF5D07B681B681846FBF7F1
S214004EB044FB0346DAB2FB781344FB70FB781846D3
S214004EC00837BD4680BD00BF202A002080B487B0CA
S214004ED000AF0346FB71FB795B09FB75FB7903F0BA
S214004EE01F033B610123FB603B69C3F11F031A46A6
S214004EF0FB689340FB60FB7DFA7D064951F8221063
S214004F00FA680A43034941F823201C37BD465DF87A
S214004F10047B7047202A002080B487B000AF034689
S214004F20FB71FB795B09FB75FB7903F01F033B61A3
S214004F300123FB603B69C3F11F031A46FB689340DD
S214004F40FB60FB7DFA7D074951F82210FA68D243D0
S214004F500A40044941F823201C37BD465DF8047B0F
S214004F60704700BF202A002080B586B000AFF860EA
S214004F70B9607A6000237B61FB68002B04D17B68F4
S214004F8045F6C3521A8029E0FBF7CCFA7861FB6835
S214004F90144A1A60FB68BA685A60FB6800221A62F4
S214004FA0FB6800225A62FB68002283F82820FB6810
S214004FB00022DA62FB680833184601F089F8F868C0
S214004FC000F0E4F9084B1B8801339AB2064B1A80AE
S214004FD07869FBF7ABFA7B6800221A801837BD4663
S214004FE080BD00BF4D5554583029002080B58EB086
S214004FF000AFF860B9603B601346FB8000237B631C
S214005000FB68002B04D13B6C45F6C3521A80E2E0E5
S214005010FB88002B07D0B3F5004F04D03B6C45F659
S21400502025621A80D7E000BFFB681B686B4A934274
S21400503004D03B6C45F6C4521A80CCE03B68002B8B
S21400504002D03B6800221A60FBF76CFA7863FB68B4
S21400505093F82830002B1BD1614B1A68FB685A6204
S214005060FB68012283F828203B68002B03D0FB68EE
S214005070DA6A3B681A605A4B1B681846F96800F0F3
S214005080C1F9786BFBF752FA3B6C00221A80A2E05B
S214005090FB685A6A524B1B689A4216D1FB6893F813
S2140050A028300133DAB2FB6883F828203B68002BEF
S2140050B003D0FB68DA6A3B681A60786BFBF736FA4F
S2140050C03B6C45F282721A8085E0FB881BB2002B8F
S2140050D007DA786BFBF72AFA3B6C46F2B0121A80B6
S2140050E079E0404B1B78002B07D0786BFBF71EFA55
S2140050F03B6C46F663521A806DE0FB685B6A3B6366
S2140051003B6B93F83720364B1B6893F837309A4240
S21400511007D9334B1B6893F83730386B1946FFF7BF
S214005120D1F807F110031846F9680422BB6800F0AE
S214005130CBFE786BFBF7FAF900F074FDFBF7F2F99B
S2140051407863274B1B6893F83530032B3BD801A2B6
S21400515052F823F0655100007D510000AD5100006B
S214005160975100003B68002B04D01D4B1B689A6CBF
S2140051703B681A603B6C00221A8029E03B68002BD3
S21400518004D0174B1B689A6C3B681A603B6C46F25F
S214005190A9121A801CE03B68002B02D03B68002254
S2140051A01A603B6C47F2D9221A8011E03B68002B4C
S2140051B004D00B4B1B689A6C3B681A603B6C45F638
S2140051C0C2521A8004E03B6C46F62E621A8000BF7C
S2140051D0786BFBF7ABF93837BD4680BD4D55545854
S2140051E0082700201C23002080B58CB002AFF86092
S2140051F00B467A607B8100237B62FB68002B04D120
S2140052007B6845F6C3521A80B6E07B89002B07D030
S214005210B3F5004F04D07B6845F625621A80ABE0F4
S21400522000BFFB681B68564A934204D07B6845F66D
S214005230C4521A80A0E0FBF775F97862FB685A6AD8
S214005240504B1B689A4207D0786AFBF76FF97B6869
S21400525045F281721A808FE001F06AFE3862FB68C0
S2140052603A6ADA62FB6893F82830013BDAB2FB68E8
S21400527083F82820FB6893F82830002B07D0786A3C
S214005280FBF754F97B6845F283721A8074E03D4B55
S2140052901B681846F96800F0C7F8FB680833FB611E
S2140052A0FB691B89002B0DD1FB6800225A62FB6844
S2140052B0002283F82820786AFBF738F97B680022FA
S2140052C01A8059E02F4B1B6893F837202D4B1B682C
S2140052D093F838309A422CD02A4B1B68184600F0B8
S2140052E0BFF80346FB76274B1B6893F83820FB7EF7
S2140052F0934228BF1346FB76224B1B6893F8373041
S214005300FA7E9A4215D91F4B1B68184601F062F9BF
S2140053101C4B1B68FA7E83F83720FB7E1846FFF787
S214005320D5FD184B1B68184601F014F9164AFB7E8B
S2140053301370FB691B689B687B61FB687A695A621D
S214005340FB68012283F828207869F96800F05AF88B
S2140053503B6A0093F86879690022002300F0B0FFEA
S214005360786AFBF7E3F87B891BB2002B01DB00F0C1
S21400537059FC7B6800221A802837BD4680BD00BFD6
S2140053804D555458082700203C26002080B483B092
S21400539000AF78607B680E4ADA617B6800225A614B
S2140053A00C4B1B68002B03D17B6800229A6107E038
S2140053B0084B1A687B689A61064B1B687A685A61C4
S2140053C0044A7B6813600C37BD465DF8047B704763
S2140053D098B30100082A002080B483B000AF78603C
S2140053E0064B00221A60064B00221A807B680022B9
S2140053F01A800C37BD465DF8047B7047082A0020EB
S2140054003029002080B483B000AF786039607B68B4
S214005410DA6B3B681A627B683A68DA630C37BD461B
S2140054205DF8047B704700BF80B485B000AF78603D
S21400543039607B683C33FB6003E0FB681B68203305
S214005440FB60FB681A683B689A42F6D1FB681B68EB
S2140054501A6AFB681A601437BD465DF8047B70470D
S21400546080B487B000AF78603F23FB747B683C3322
S2140054707B6115E07B691B689B68FB60FB68002B03
S2140054800AD0FB689B6893F83730FB72FA7AFB7C8D
S2140054909A4201D2FB7AFB747B691B6820337B61DE
S2140054A07B691B68002BE5D1FB7C18461C37BD4684
S2140054B05DF8047B704700BF80B58AB002AF7860A5
S2140054C07B68DB6BFB6134E0FB691B6ABB6101F048
S2140054D02FFD7861FB697A69DA627868F969FFF707
S2140054E0A3FFFB6908333B613B691B89002B07D18F
S2140054F0FB69002283F82820FB6900225A6216E026
S2140055003B691B689B68FB60FB697A685A62FB69AB
S214005510012283F82820F868F969FFF773FF7B6992
S2140055200093F869F9680022002300F0C9FEBB6901
S214005530FB61FB69002BC7D12037BD4680BD00BF8D
S21400554080B487B000AF78602E4B1B68002B04D168
S2140055507B6845F21E721A804EE02B4B1B88002B90
S21400556004D17B6845F21D721A8045E0254B1B6806
S2140055707B61244B1B683B613B6910333B61224BCC
S2140055801B88013BBB810023FB8114E07B693A69E1
S2140055901A607B6900225A607B6900221A817B6947
S2140055A00022DA607B6910337B613B6910333B6114
S2140055B0FB890133FB81FA89BB899A42E6D37B6972
S2140055C000221A607B6900225A607B6900221A81D9
S2140055D07B690022DA600B4B1B680C4A13600A4B8F
S2140055E01A880A4B9A80094B0022DA80074B002261
S2140055F01A817B6800221A801C37BD465DF8047B42
S214005600704700BFC8B50100C4B50100F8270020E8
S21400561080B485B000AF78607B685B89FB817B686F
S2140056205B89002B26D07B681B68BB60154B1A680D
S214005630BB681A607B685B68124A1360114BDA8895
S2140056407B685B89D31A9AB20E4BDA800D4B9A8828
S2140056507B685B8913449AB20A4B9A807B68002267
S2140056605A817B6800229A817B6800221A607B68D8
S21400567000225A60FB8918461437BD465DF8047B45
S214005680704700BFF827002080B483B000AF786072
S2140056900B467B807B687A881A817B6800225A8159
S2140056A07B6800229A817B6800221A607B68002251
S2140056B05A600C37BD465DF8047B704780B483B0F3
S2140056C000AF7860064B00221A60064B00221A8054
S2140056D07B6800221A800C37BD465DF8047B704755
S2140056E0CC2800202E29002080B483B000AF78603C
S2140056F0064B00221A60064B00221A807B680022A6
S2140057001A800C37BD465DF8047B704724290020BC
S2140057102029002080B485B000AF474BFB60474B84
S214005720BB60474BFB60474BFB60474BBB60474B40
S214005730FB60474B7B60474BFB60474BFB60474B30
S214005740FB60474BFB60474B7B60474B7B60474BA0
S214005750FB60474B7B60474BFB60474B7B60474B90
S214005760FB60474B7B60474B7B60474B7B60474B00
S2140057707B60474BFB60474BFB60474BFB60474BF0
S2140057807B60474BFB60474BFB60474B7B60474B60
S2140057907B60474B7B60474B7B60474B7B60474B50
S2140057A07B60474B7B60474BFB60474BFB60474B40
S2140057B0FB60474BFB60474B7B60474B7B60474B30
S2140057C07B60474BFB60474BFB60474BFB60474BA0
S2140057D07B60474B7B60474B7B60474BBB60474BD0
S2140057E07B60474BFB60474BFB60474BFB60474B80
S2140057F0FB60474BFB60474BFB60474BFB60474BF0
S2140058007B60474BFB60474BFB60474B7B60474BDF
S2140058107B60474BFB60474BFB60474B7B60474BCF
S214005820FB60474BFB60474B7B60474B7B60143706
S214005830BD465DF8047B704744B40100ACB501007A
S21400584045B4010046B4010048B401004CB4010060
S21400585050B401004DB4010078B4010079B40100E1
S2140058607AB401007CB401007EB4010080B401006B
S21400587084B40100A4B40100A6B40100A8B40100D9
S214005880AAB40100ACB40100AEB40100B0B401008B
S214005890E0B40100E1B40100E2B40100E4B40100A8
S2140058A0E6B40100E7B40100E8B40100EAB4010080
S2140058B0ECB40100EEB40100F0B40100F2B4010053
