S01F00005333324B3134345F426F6F746C6F616465725F76325F302E7372656369
S1130000007000206D040000AD040000AD04000089
S1130010AD040000AD040000AD04000000000000C9
S1130020000000000000000000000000AD0400001B
S1130030AD04000000000000AD04000089120000BF
S1130040AD160000B9160000C5160000D116000058
S1130050DD160000E9160000F51600000117000087
S11300600D170000191700002517000031170000B4
S11300703D170000491700005517000061170000E4
S11300806D170000AD040000AD040000AD040000D5
S1130090AD040000AD040000AD040000AD04000098
S11300A0AD040000AD040000AD040000AD04000088
S11300B0AD040000AD040000AD040000AD04000078
S11300C0AD040000AD040000AD040000AD04000068
S11300D0AD040000AD040000AD040000AD04000058
S11300E0AD040000AD040000AD040000AD04000048
S11300F0AD040000AD040000AD040000AD04000038
S1130100AD040000AD040000AD040000AD04000027
S1130110AD040000AD040000AD040000AD04000017
S1130120AD040000AD040000AD040000AD04000007
S1130130AD040000AD040000AD040000AD040000F7
S1130140AD040000AD040000AD040000AD040000E7
S1130150AD040000AD040000AD040000AD040000D7
S1130160AD040000AD040000AD040000AD040000C7
S1130170AD040000AD040000AD040000AD040000B7
S1130180AD040000DD110000AD040000AD0400006A
S1130190AD040000AD040000AD040000AD04000097
S11301A0AD040000AD040000AD040000AD04000087
S11301B0AD040000AD040000AD040000AD04000077
S11301C0AD040000AD040000AD040000AD04000067
S11303F0AD040000AD040000AD040000FFFFFFFFEA
S1130400FFFFFFFFFFFFFFFFFFFFFFFFFE7FFFFF79
S113041010B5054C237833B9044B13B10448AFF33A
S113042000800123237010BD0000002000000000A4
S1130430281C0000084B10B51BB108480849AFF34D
S113044000800848036803B910BD074B002BFBD09C
S1130450BDE81040184700BF00000000281C000041
S1130460040000202888FF1F0000000072B60B491A
S11304700A4A0A4B094C094D084E084FB846B9467A
S1130480BA46BB46BC4606488546064880470648E9
S1130490804762B600F01AF9FEE700000000000091
S11304A000700020351A000041190000FFF7FEBF5C
S11304B0844641EA000313F003036DD1403A41D36B
S11304C051F8043B40F8043B51F8043B40F8043B2A
S11304D051F8043B40F8043B51F8043B40F8043B1A
S11304E051F8043B40F8043B51F8043B40F8043B0A
S11304F051F8043B40F8043B51F8043B40F8043BFA
S113050051F8043B40F8043B51F8043B40F8043BE9
S113051051F8043B40F8043B51F8043B40F8043BD9
S113052051F8043B40F8043B51F8043B40F8043BC9
S113053051F8043B40F8043B51F8043B40F8043BB9
S1130540403ABDD2303211D351F8043B40F8043B59
S113055051F8043B40F8043B51F8043B40F8043B99
S113056051F8043B40F8043B103AEDD20C3205D369
S113057051F8043B40F8043B043AF9D2043208D061
S1130580D2071CBF11F8013B00F8013B01D30B88D3
S113059003806046704700BF082A13D38B078DD0B1
S11305A010F003038AD0C3F10403D21ADB071CBF83
S11305B011F8013B00F8013B80D331F8023B20F8ED
S11305C0023B7BE7043AD9D3013A11F8013B00F826
S11305D0013BF9D20B7803704B7843708B788370AE
S11305E06046704780B485B000AF78600B46FB70FE
S11305F01346BB70FB78124A32F813301A467B68F4
S113060053F82230FB60FB6823F08043FB60BB7827
S1130610002B02D04FF0804300E00023FA6813431C
S1130620FB60FB78064A32F8133019467B68FA6897
S113063043F821201437BD465DF8047B704700BFA2
S11306407C1B000080B483B000AF786039607B68A5
S11306503A68DA600C37BD465DF8047B704700BF2A
S113066080B400AF074B084A5A60064B4FF6FF723E
S11306709A60044B42F2A0121A60BD465DF8047BF6
S1130680704700BF0020054020C528D980B483B03E
S113069000AF78607B681B6803F40053002B03D021
S11306A07B68094A5A6009E07B684AF202625A6030
S11306B07B685B687B684BF280425A600C37BD46AE
S11306C05DF8047B704700BF02A680B480B59EB07D
S11306D000AFBC4A07F160031068516803C307F117
S11306E0540300221A60043300221A6004330022E7
S11306F01A800233002387F872300023A7F8703081
S113070044F20403FB66B04B00221A70AF4BB04AAC
S1130710C3F8042300F0F4FA00F022FB00F060FBBD
S113072000F050FC00F08EFAFFF79AFF4FF4C0225D
S113073007F1540307CA03C31A8000237B670FE041
S113074007F154027B6F13441B781A46A14B9A425B
S113075003D0012387F8723005E07B6F01337B6798
S11307607B6F0A2BECD94FF0A0531A789A4B1A706E
S1130770994B1B780F2B03D8974B1B78002B02D176
S1130780954B01221A7000F051FB512000F08AFDB4
S113079000F03CFA00F0B8FD97F87230012B28D134
S11307A0512000F097FD8D4B4FF4C0225A608B4BC3
S11307B05B681B0B1B038A4819464FF4805200F0F8
S11307C07BFE03461A46B7F870301343A7F870301F
S11307D0322000F073FA512000F064FD322000F062
S11307E06DFA7E4B5B687E4819461022794B00F007
S11307F0D9FE794B1B781B0243F0C55343F0260303
S113080007F16002104604211A4600F091FB754B73
S113081000221A7000237B6760E03B46184600F014
S1130820ADF9714B1B78002B4FD03B69FF2B4CD19A
S11308307B69532B13D1BB69332B08D0342B0AD0DB
S1130840322B00D00BE0022387F8733007E0032338
S113085087F8733003E0042387F8733000BF624BDA
S113086000221A705F4B01221A70F32387F860305C
S1130870512000F02FFD594B4FF480425A60574BE2
S11308805B681B0B1B03564819464FF48C2200F07F
S113089013FE03461A46B7F870301343A7F87030B6
S11308A0322000F00BFA512000F0FCFC4A4B1B787C
S11308B01B0243F0C55343F0260307F160021046C0
S11308C003211A4600F034FB0BE0142000F0F6F983
S11308D04648FFF7DBFE7B6F01337B677B6FC72BDB
S11308E09BD9404B1B78002B0ED14048FFF7CEFE1E
S11308F0512000F0EFFCFB6E1B68BB66BB6E984793
S11309007B6F01337B67FBE73B46184600F036F903
S113091003461A46344B1A7017E1334B00221A70FF
S1130920142000F0CBF93B69FE2B17D0FF2B03D02A
S1130930FD2B00F0DE80F1E0F32387F86030264BD6
S11309401B781B0243F0C55343F0260307F16002F2
S1130950104603211A4600F0EBFADFE02448802118
S1130960FFF770FE97F87330032B0CD0042B17D0CD
S1130970022B41D11F4B5B781B021E4A9278134312
S1130980164A53603BE01B4B5B781A04194B9B7867
S11309901B021343174AD2781343104A53602EE0C4
S11309A0144B5B781A06134B9B781B041A43114BA8
S11309B0DB781B0213430F4A12791343074A53602F
S11309C01DE000BF601B0000FA0500200040064047
S11309D001010100541B000020070020180600201C
S11309E0FC050020F9050020B4000020002005408B
S11309F080F00F403400002000F004F900BFF2231F
S1130A0087F86030544B1B7887F86130534B5B6830
S1130A101B0CDBB287F86230504B5B681B0ADBB2FD
S1130A2087F863304D4B5B68DBB287F864304C4B1E
S1130A301B7887F865304B4B1B781B0243F0C5537A
S1130A4043F0260307F16002104606211A4600F01F
S1130A506FFA97F873300133414AD25C3E4B1B78EE
S1130A609A422DD13D4B5B68B3F5804F0FD3512093
S1130A7000F030FC394B5A68394B1B783A48114620
S1130A801A463A4B00F08EFD512000F00BFCF32384
S1130A9087F86030304B1B7887F86130314B1B7816
S1130AA01B0243F0C55343F0260307F160021046CE
S1130AB004211A4600F03CFA2D48FFF7E7FD14E044
S1130AC0F12387F86030244B1B7887F86130254B7D
S1130AD01B781B0243F0C55343F0260307F1600261
S1130AE0104604211A4600F023FA1B4B00221A7008
S1130AF014E0F02387F860301A4B1B781B0243F094
S1130B00C55343F0260307F16002104604211A4638
S1130B1000F00EFA174B02221A7000BF154B1B7817
S1130B20022B12D14FF4FA7000F0C8F81048FFF706
S1130B30ADFD512000F0CEFBFB6E1B68BB66BB6EA7
S1130B4098477B6F01337B67FBE70B4B1B78002BCC
S1130B507FF4E3AED8E600BFFA05002018060020B3
S1130B603400002020070020FC0500203C00002069
S1130B7000200540F9050020B400002080B582B0B3
S1130B8000AF78601A4B1A781A4B1B789A4203D13B
S1130B90194B1B78002B25D1184B01221A70144BCA
S1130BA01B785A1CD1B2124A117018467968144A3B
S1130BB0542303FB00F313441A46542308461146F6
S1130BC01A46FFF775FC0A4B1B780F2B02D9084B0A
S1130BD000221A70084B1B780133DAB2064B1A70E4
S1130BE0012300E0002318460837BD4680BD00BF3E
S1130BF0F80500203000002031000020B40000205F
S1130C00B800002080B400AFFEE700BF80B582B01A
S1130C1000AF09483A210122FFF7E4FC07480849DC
S1130C2000F010FC03467B607B68002B01D0FFF7CB
S1130C30E9FF0837BD4680BD00500640681B000030
S1130C40FC05002080B400AF184A184BD3F83431A7
S1130C5043F08043C2F83431144A144BD3F828319A
S1130C6043F08043C2F82831114A114B1B6843F406
S1130C70A06313600E4A0E4B5B6843F4A063536099
S1130C800A4A0A4BD3F82C3143F08043C2F82C3182
S1130C90084B4FF48072DA61074A074B5B6943F0F3
S1130CA080035361BD465DF8047B704700500640E5
S1130CB000A0044000B0044080F00F4080B487B02E
S1130CC000AF78600023FB6000237B610FE000230A
S1130CD03B6105E0FB680133FB603B6901333B6129
S1130CE03B69B3F5967FF5DB7B6901337B617A69F8
S1130CF07B689A42EBDB1C37BD465DF8047B70478A
S1130D0080B400AF154A154BD3F8003123F001032A
S1130D10C2F80031114A114BD3F8083143F02C03C7
S1130D20C2F808310D4A0D4BD3F8003143F00113DA
S1130D30C2F80031094A094BD3F8043143F48073F3
S1130D40C2F8043100BF054BD3F8003103F08073BF
S1130D50002BF8D0BD465DF8047B70470040064088
S1130D6080B400AF1D4A1D4BD3F8003623F00103B5
S1130D70C2F80036194A194BD3F8003643F48033CD
S1130D80C2F80036154A154BD3F8083623F0010390
S1130D90C2F80836114A114BD3F8083623F4E0633D
S1130DA0C2F808360D4A0D4BD3F8083643F4C01385
S1130DB0C2F80836094A094BD3F8003643F0010358
S1130DC0C2F8003600BF054BD3F8003603F0807339
S1130DD0002BF8D0BD465DF8047B70470040064008
S1130DE080B400AF104A104B5B6943F44033536145
S1130DF00D4A0D4B5B6943F0100353610A4A0A4BD9
S1130E005B6943F002035361074A074B5B6923F0B4
S1130E1080735361044A044B5B6943F0C0635361BC
S1130E20BD465DF8047B70470040064080B483B043
S1130E3000AF00237B603A4A394BD3F8903043F03B
S1130E408043C2F89030374A364B1B6843F0004366
S1130E501360344A334B5B6823F400535360314AC4
S1130E60304B1B6823F0004313602E4A2D4B1B6844
S1130E7023F48033136000BF2A4B1B6803F0807394
S1130E801B0E002BF8D0274B274A5A6000237B60A7
S1130E9008E0244A7B682033002142F823107B6851
S1130EA001337B607B687F2BF3D900237B600AE0EE
S1130EB01C4A7B6803F508734FF0FF3142F8231096
S1130EC07B6801337B607B680F2BF1D9154B6FF086
S1130ED060421A61134B4FF08462C3F8C020114A78
S1130EE0124B1B7843F0C55343F41853C2F8C43073
S1130EF00C4B40F6FF729A620A4B1F221A6000BF25
S1130F00084B1B68002B00D000BF00BF054B1B68BB
S1130F10002B00D000BF0C37BD465DF8047B704742
S1130F2000500640004002400600DB03200700207A
S1130F3080B487B000AFF8600B467A60FB72204B38
S1130F4001221A63FB681B781A06FB6801331B78BD
S1130F501B041A43FB6802331B781B021343FA6811
S1130F600332127813437B61154A7B69C2F88830D7
S1130F70FB6804331B781A06FB6805331B781B04D3
S1130F801A43FB6806331B781B021343FA680732C3
S1130F90127813437B610A4A7B69C2F88C30084A91
S1130FA07B68C2F88430064AFB7A1B0443F046632C
S1130FB0C2F880301C37BD465DF8047B704700BF23
S1130FC00040024080B400AF064B10221A70064B5A
S1130FD000221A70054B00221A70BD465DF8047B8E
S1130FE0704700BF3100002030000020F8050020C9
S1130FF080B485B000AF7860734BD3F8C03003F091
S1131000E0631A0E7B681A606F4BD3F8C43023F088
S113101060427B685A606C4BD3F8C03003F4702391
S11310201A0C7B689A600023FB7342E0FB7B6649E1
S1131030FA7B1232203251F82220644941F82320ED
S1131040FB7B9A00FB7B614951F823301B0EDBB21A
S113105019467B68043243F82210FB7B9B005A1C20
S1131060FB7B5A4951F823301B0CDBB219467B68D1
S1131070043243F82210FB7B9B009A1CFB7B5349F0
S113108051F823301B0ADBB219467B68043243F85B
S11310902210FB7B9B00DA1CFB7B4C4951F823306C
S11310A0DBB219467B68043243F82210FB7B013320
S11310B0FB73FB7B012BB9D97B681B69FE2B37D1F2
S11310C0434B00221A707B681B69DAB2414B1B78D0
S11310D01344DAB23F4B1A700123FB7321E03C4BFB
S11310E01B781A46FB7B1344F97B7A68043152F867
S11310F02120D1B2384AD154FA7B7B689B68023BE9
S11311009A420BD2FA7B7B68043253F82230DAB26B
S1131110304B1B781344DAB22E4B1A70FB7B01332D
S1131120FB73FA7B7B689B68013B9A42D7D340E010
S11311307B681B690F2B3CD87B681B69DAB2254B93
S11311401B781344DAB2234B1A700123FB731CE09F
S11311501F4B1B781A46FB7B13440733F97B7A68D1
S1131160043152F82120D1B21B4AD154FA7B7B6856
S1131170043253F82230DAB2164B1B781344DAB235
S1131180144B1A70FB7B0133FB73FA7B7B689B68FF
S11311909A42DDD37B689B68DAB20D4B1B7813440B
S11311A0DBB2013BDAB20A4B1A70094B1A780A4BCC
S11311B01A70054BD3F880309AB27B681A651437DD
S11311C0BD465DF8047B70470040024028000020C3
S11311D0B5000020FA0500203400002080B500AFDF
S11311E0194B93F83030C3F34303DBB203F0080325
S11311F0002B1FD0154B1B78002B1BD0144B1B78D6
S11312005A1CD1B2124A11701A46542303FB02F33A
S1131210104A13441846FFF7EBFE0D4B1B780F2BB7
S113122002D90B4B00221A70084B1B78013BDAB22F
S1131230064B1A70044A92F83030082161F34403D3
S113124082F8303080BD00BF0040024031000020F1
S113125030000020B800002080B483B000AF786074
S11312600B46FB701346BB70BB78002B03D07B6826
S1131270FA78DA7602E07B68FA789A760C37BD461B
S11312805DF8047B704700BF80B400AF044B1B685B
S11312900133034A1360BD465DF8047B704700BF09
S11312A01C00002080B483B000AF0346FB710849E2
S11312B097F907305B09FA7902F01F02012000FA5E
S11312C002F241F823200C37BD465DF8047B7047D9
S11312D000E100E080B483B000AF0346FB7109492C
S11312E097F907305B09FA7902F01F02012000FA2E
S11312F002F2203341F823200C37BD465DF8047B0D
S1131300704700BF00E100E080B400AF084B1B68E9
S1131310002B09DD064B1B68013B054A1360044B97
S11313201B68002B00DC62B6BD465DF8047B704789
S11313302000002080B483B000AF78600B46FB70BF
S1131340FB78002B04D17B684FF48032DA6074E0C0
S1131350FB78012B04D17B684FF0FF32DA606CE03C
S1131360FB78022B04D17B684FF0FF32DA6064E033
S1131370FB78032B04D17B684FF40042DA605CE015
S1131380FB78042B03D17B680022DA6055E0FB78FC
S1131390052B04D17B684FF0FF32DA604DE0FB7817
S11313A0062B04D17B684FF0FF32DA6045E0FB780E
S11313B0072B04D17B684FF0FF32DA603DE0FB7805
S11313C0082B03D17B680022DA6036E0FB78092B16
S11313D004D17B684FF0FF32DA602EE0FB780A2BF1
S11313E004D17B684FF48042DA6026E0FB780B2B53
S11313F004D17B684FF40042DA601EE0FB780C2BCA
S113140004D17B684FF48032DA6016E0FB780D2B50
S113141004D17B684FF0FF32DA600EE0FB780E2BCC
S113142004D17B684FF0FF32DA6006E0FB780F2BC3
S113143003D17B684FF48032DA600C37BD465DF827
S1131440047B704780B584B000AF786039600023B6
S1131450FB817B681A683B681A607B685A683B6842
S11314605A607B689A683B689A607B68DA683B6874
S11314701A617B681A693B689A610E4BDB6C03F452
S113148070431B0B7B737B7B38681946FFF752FF55
S11314903B68DB68B3F5803F04D23B684FF480526D
S11314A05A6102E03B6800225A61FB8918461037F2
S11314B0BD4680BD0080044080B588B000AFF860B0
S11314C0B9607A600023FB837B687B61FB689B685F
S11314D03B61BA683B699A4210D3FB68DA683B699E
S11314E01A44BB689A4209D9BA683B69D31A03F50E
S11314F00003BB604FF40063BB611BE0FB681B6827
S11315003B61BA683B699A420ED3FB685A683B69EF
S11315101A44BB689A4207D9BA683B69D31ABB60BC
S11315204FF48053BB6105E00123FB8300237B61FF
S11315300023BB61BB695A1E7B691340002B01D099
S11315400423FB8320E0164B70221A70144B0922EB
S1131550DA71134ABB681B0CDBB29371104ABB6887
S11315601B0ADBB253710E4BBA68D2B21A71F86817
S113157000F066FB0346FB837A69BB69D31A7B617F
S1131580BA68BB691344BB607B69002B02D0FB8B38
S1131590002BD8D0FB8B18462037BD4680BD00BF3A
S11315A00000024080B586B000AFF860B9607A6090
S11315B03B600023FB827B6803F00703002B02D00F
S11315C00423FB8268E0FB689B683B61BA683B6963
S11315D09A420DD3FB68DA683B691A44BB689A42A5
S11315E006D9BA683B69D31A03F50003BB6014E05B
S11315F0FB681B683B61BA683B699A420BD3FB6882
S11316005A683B691A44BB689A4204D9BA683B6970
S1131610D31ABB6001E00123FB8237E0214B702227
S11316201A70204B0722DA711E4ABB681B0CDBB20E
S113163093711C4ABB681B0ADBB25371194BBA681D
S1131640D2B21A7100237B750CE07A7D164B1344D9
S11316503B613B697A7D39680A4412781A707B7D54
S113166001337B757B7D072BEFD9F86800F0E8FA2E
S11316700346FB82BB680833BB607B68083B7B6026
S11316803B6808333B601920FFF718FB7B68002B8D
S113169002D0FB8A002BC1D0FB8A18461837BD46FE
S11316A080BD00BF000002400800024080B500AFCA
S11316B0002000F0CDF880BD80B500AF012000F01F
S11316C0C7F880BD80B500AF022000F0C1F880BD2E
S11316D080B500AF032000F0BBF880BD80B500AF3B
S11316E0042000F0B5F880BD80B500AF052000F0FF
S11316F0AFF880BD80B500AF062000F0A9F880BD2A
S113170080B500AF072000F0A3F880BD80B500AF1E
S1131710082000F09DF880BD80B500AF092000F0DE
S113172097F880BD80B500AF0A2000F091F880BD25
S113173080B500AF0B2000F08BF880BD80B500AF02
S11317400C2000F085F880BD80B500AF0D2000F0BE
S11317507FF880BD80B500AF0E2000F079F880BD21
S113176080B500AF0F2000F073F880BD80B500AFE6
S113177000F094F880BD00BF80B485B000AF7860FD
S11317800B46FB707B681B68FB60FB6823F020033F
S1131790FB60FB78002B01D0202300E00023FA68D3
S11317A01343FB607B68FA681A601437BD465DF822
S11317B0047B704780B483B000AF78607B68DB6AD9
S11317C018460C37BD465DF8047B704780B483B07F
S11317D000AF78600B46FB707B68FA789A770C3719
S11317E0BD465DF8047B704780B483B000AF786079
S11317F00B46FB707B68FA781A770C37BD465DF8A8
S1131800047B704780B483B000AF78600B46FB70F4
S11318107B68FA78DA770C37BD465DF8047B70474D
S113182080B584B000AF0346FB71084B1B68FB60B6
S1131830FB79F8681946FFF7D7FFFB79F868194672
S1131840FFF7E0FF1037BD4680BD00BF1C1C000041
S113185080B584B000AF0346FB710F4B1B68FA7967
S113186053F82230FB60FB791846FFF7D9FFFB6879
S1131870002B0DD0FB685B68002B09D0FB685B680C
S1131880FA689168FA68127BD2B208461146984702
S11318901037BD4680BD00BF2400002080B584B051
S11318A000AF0023FB73244B1B687B607868FFF751
S11318B081FFB86033E0BB6803F00103002B28D03C
S11318C0FB7B786819460022FFF7C6FC1B4B1B689C
S11318D0FA7B53F822303B603B68002B19D0FB7B2A
S11318E01846FFF79DFFFB7B78681946FFF76EFFEC
S11318F03B6802221A733B685B68002B09D03B6883
S11319005B683A6891683A68127BD2B2084611461D
S11319109847BB685B08BB60FB7B0133FB73BB6808
S1131920002B02D0FB7B0F2BC5D978680021FFF771
S113193023FF1037BD4680BD1C1C0000240000207E
S113194080B48BB000AF304B3B62304B7B61304B8B
S1131950FB60304BFB61304B3B61304BBB60304B29
S1131960BB61304B7B60304A304B9A4218D0002325
S11319707B620AE02D4A7B6A52F823202A497B6A5B
S113198041F823207B6A01337B62294B9B087A6AE6
S11319909A42EFD34FF0E023234AC3F8082D04E022
S11319A04FF0E023214AC3F8082D09E07B691A7837
S11319B03B6A1A703B6A01333B627B6901337B618A
S11319C0FA687B699A42F1D109E03B691A78FB69AC
S11319D01A70FB690133FB613B6901333B61BA68EF
S11319E03B699A42F1D105E0BB6900221A70BB69D8
S11319F00133BB617A68BB699A42F5D12C37BD4685
S1131A005DF8047B704700BF0084FF1F5C1C00006E
S1131A10882000002C88FF1F88200000E42000009C
S1131A2000000020240700200080FF1F00000000A9
S1131A300004000080B400AF084B094A5A60074B09
S1131A405B68064B42F220121A60044B4FF6FF7299
S1131A509A60BD465DF8047B704700BF00200540D6
S1131A6020C528D9024B13B1024800F005B87047CD
S1131A7000000000851A00000146002002460346CB
S1131A8000F016B838B5084B084DED1AAC1018BF65
S1131A90ED1805D0013C55F8043D9847002CF9D1C8
S1131AA0BDE8384000F0C6B8581C00005C1C0000BB
S1131AB02DE9F047254C2568D5F848410646884667
S1131AC092469946CCB360681F2818DC431C7EB14B
S1131AD004EB80050121C5F888A0D4F8887101FAC7
S1131AE000F21743022EC4F88871C5F808911ED07D
S1131AF00230636044F820800020BDE8F087144B76
S1131B0003B34FF4C870AFF300800446D0B1D5F8E6
S1131B104831002780E88800C5F848413846012349
S1131B20C4F88871C4F88C71002EE1D0D0E7D4F8E1
S1131B308C110A43C4F88C21DAE705F5A674C5F8BC
S1131B404841C0E74FF0FF30BDE8F087241C000097
S1131B5000000000424C342E30315F43315200000B
S1131B60FF1122334455667700000000000008008E
S1131B700000001000000014FFFFFFFF0000000041
S1131B800000000000000000000000000000000051
S1131B900000000000000000000000000000000041
S1131BA00000000000000000000000000000000031
S1131BB00000000000000000000000000000000021
S1131BC000000000000000000000000000002100F0
S1131BD032003D0049004A004B004C004D006100BA
S1131BE073000000240025002B00310036000000A3
S1131BF0200000002600380039003A0000002700C9
S1131C002C002D002E0037003B0040005A006600D7
S1131C106A006B006C0000000000000000800040BF
S1131C20430000000084FF1FF8B500BFF8BC08BCE7
S1131C309E467047F8B500BFF8BC08BC9E46704786
S1131C4001B40248844601BC604700BF2D88FF1FD1
S10B1C50651A000035040000D0
S1071C58110400006F
S1131C5C00000000EC86FF1F5487FF1FBC87FF1F8A
S1131C6C0000000000000000000000000000000064
S1131C7C0000000000000000000000000000000054
S1131C8C00000000201C0000000000000000000008
S1131C9C0000000000000000000000000000000034
S1131CAC0000000000000000000000000000000024
S1131CBC0000000000000000000000000000000014
S1131CCC0000000000000000000000000000000004
S1131CDC00000000000000000000000000000000F4
S1131CEC00000000000000000000000000000000E4
S1131CFC00000000000000000100000000000000D3
S1131D0C0E33CDAB34126DE6ECDE05000B00000097
S1131D1C00000000000000000000000000000000B3
S1131D2C00000000000000000000000000000000A3
S1131D3C0000000000000000000000000000000093
S1131D4C0000000000000000000000000000000083
S113208880B584B000AF78600023FB81124A124BFC
S11320981B78DBB263F07F03DBB2137007E07B6865
S11320A89B69B3F1FF3F02D07B689B6998470A4B51
S11320B81B78DBB2DBB25BB2002BF0DA064B1B7881
S11320C8DBB203F07103002B01D00123FB81FB89F0
S10F20D818461037BD4680BD00000240D1
S903046D8B
